{
  "contractName": "GameToken",
  "abi": [
    {
      "inputs": [],
      "stateMutability": "nonpayable",
      "type": "constructor"
    },
    {
      "anonymous": false,
      "inputs": [
        {
          "indexed": true,
          "internalType": "address",
          "name": "owner",
          "type": "address"
        },
        {
          "indexed": true,
          "internalType": "address",
          "name": "spender",
          "type": "address"
        },
        {
          "indexed": false,
          "internalType": "uint256",
          "name": "value",
          "type": "uint256"
        }
      ],
      "name": "Approval",
      "type": "event"
    },
    {
      "anonymous": false,
      "inputs": [
        {
          "indexed": false,
          "internalType": "address",
          "name": "account",
          "type": "address"
        }
      ],
      "name": "Paused",
      "type": "event"
    },
    {
      "anonymous": false,
      "inputs": [
        {
          "indexed": true,
          "internalType": "bytes32",
          "name": "role",
          "type": "bytes32"
        },
        {
          "indexed": true,
          "internalType": "bytes32",
          "name": "previousAdminRole",
          "type": "bytes32"
        },
        {
          "indexed": true,
          "internalType": "bytes32",
          "name": "newAdminRole",
          "type": "bytes32"
        }
      ],
      "name": "RoleAdminChanged",
      "type": "event"
    },
    {
      "anonymous": false,
      "inputs": [
        {
          "indexed": true,
          "internalType": "bytes32",
          "name": "role",
          "type": "bytes32"
        },
        {
          "indexed": true,
          "internalType": "address",
          "name": "account",
          "type": "address"
        },
        {
          "indexed": true,
          "internalType": "address",
          "name": "sender",
          "type": "address"
        }
      ],
      "name": "RoleGranted",
      "type": "event"
    },
    {
      "anonymous": false,
      "inputs": [
        {
          "indexed": true,
          "internalType": "bytes32",
          "name": "role",
          "type": "bytes32"
        },
        {
          "indexed": true,
          "internalType": "address",
          "name": "account",
          "type": "address"
        },
        {
          "indexed": true,
          "internalType": "address",
          "name": "sender",
          "type": "address"
        }
      ],
      "name": "RoleRevoked",
      "type": "event"
    },
    {
      "anonymous": false,
      "inputs": [
        {
          "indexed": true,
          "internalType": "address",
          "name": "from",
          "type": "address"
        },
        {
          "indexed": true,
          "internalType": "address",
          "name": "to",
          "type": "address"
        },
        {
          "indexed": false,
          "internalType": "uint256",
          "name": "value",
          "type": "uint256"
        }
      ],
      "name": "Transfer",
      "type": "event"
    },
    {
      "anonymous": false,
      "inputs": [
        {
          "indexed": false,
          "internalType": "address",
          "name": "account",
          "type": "address"
        }
      ],
      "name": "Unpaused",
      "type": "event"
    },
    {
      "inputs": [],
      "name": "DEFAULT_ADMIN_ROLE",
      "outputs": [
        {
          "internalType": "bytes32",
          "name": "",
          "type": "bytes32"
        }
      ],
      "stateMutability": "view",
      "type": "function",
      "constant": true
    },
    {
      "inputs": [],
      "name": "MINTER_ROLE",
      "outputs": [
        {
          "internalType": "bytes32",
          "name": "",
          "type": "bytes32"
        }
      ],
      "stateMutability": "view",
      "type": "function",
      "constant": true
    },
    {
      "inputs": [],
      "name": "PAUSER_ROLE",
      "outputs": [
        {
          "internalType": "bytes32",
          "name": "",
          "type": "bytes32"
        }
      ],
      "stateMutability": "view",
      "type": "function",
      "constant": true
    },
    {
      "inputs": [
        {
          "internalType": "address",
          "name": "owner",
          "type": "address"
        },
        {
          "internalType": "address",
          "name": "spender",
          "type": "address"
        }
      ],
      "name": "allowance",
      "outputs": [
        {
          "internalType": "uint256",
          "name": "",
          "type": "uint256"
        }
      ],
      "stateMutability": "view",
      "type": "function",
      "constant": true
    },
    {
      "inputs": [
        {
          "internalType": "address",
          "name": "spender",
          "type": "address"
        },
        {
          "internalType": "uint256",
          "name": "amount",
          "type": "uint256"
        }
      ],
      "name": "approve",
      "outputs": [
        {
          "internalType": "bool",
          "name": "",
          "type": "bool"
        }
      ],
      "stateMutability": "nonpayable",
      "type": "function"
    },
    {
      "inputs": [
        {
          "internalType": "address",
          "name": "account",
          "type": "address"
        }
      ],
      "name": "balanceOf",
      "outputs": [
        {
          "internalType": "uint256",
          "name": "",
          "type": "uint256"
        }
      ],
      "stateMutability": "view",
      "type": "function",
      "constant": true
    },
    {
      "inputs": [],
      "name": "decimals",
      "outputs": [
        {
          "internalType": "uint8",
          "name": "",
          "type": "uint8"
        }
      ],
      "stateMutability": "view",
      "type": "function",
      "constant": true
    },
    {
      "inputs": [
        {
          "internalType": "address",
          "name": "spender",
          "type": "address"
        },
        {
          "internalType": "uint256",
          "name": "subtractedValue",
          "type": "uint256"
        }
      ],
      "name": "decreaseAllowance",
      "outputs": [
        {
          "internalType": "bool",
          "name": "",
          "type": "bool"
        }
      ],
      "stateMutability": "nonpayable",
      "type": "function"
    },
    {
      "inputs": [
        {
          "internalType": "bytes32",
          "name": "role",
          "type": "bytes32"
        }
      ],
      "name": "getRoleAdmin",
      "outputs": [
        {
          "internalType": "bytes32",
          "name": "",
          "type": "bytes32"
        }
      ],
      "stateMutability": "view",
      "type": "function",
      "constant": true
    },
    {
      "inputs": [
        {
          "internalType": "bytes32",
          "name": "role",
          "type": "bytes32"
        },
        {
          "internalType": "uint256",
          "name": "index",
          "type": "uint256"
        }
      ],
      "name": "getRoleMember",
      "outputs": [
        {
          "internalType": "address",
          "name": "",
          "type": "address"
        }
      ],
      "stateMutability": "view",
      "type": "function",
      "constant": true
    },
    {
      "inputs": [
        {
          "internalType": "bytes32",
          "name": "role",
          "type": "bytes32"
        }
      ],
      "name": "getRoleMemberCount",
      "outputs": [
        {
          "internalType": "uint256",
          "name": "",
          "type": "uint256"
        }
      ],
      "stateMutability": "view",
      "type": "function",
      "constant": true
    },
    {
      "inputs": [
        {
          "internalType": "bytes32",
          "name": "role",
          "type": "bytes32"
        },
        {
          "internalType": "address",
          "name": "account",
          "type": "address"
        }
      ],
      "name": "grantRole",
      "outputs": [],
      "stateMutability": "nonpayable",
      "type": "function"
    },
    {
      "inputs": [
        {
          "internalType": "bytes32",
          "name": "role",
          "type": "bytes32"
        },
        {
          "internalType": "address",
          "name": "account",
          "type": "address"
        }
      ],
      "name": "hasRole",
      "outputs": [
        {
          "internalType": "bool",
          "name": "",
          "type": "bool"
        }
      ],
      "stateMutability": "view",
      "type": "function",
      "constant": true
    },
    {
      "inputs": [
        {
          "internalType": "address",
          "name": "spender",
          "type": "address"
        },
        {
          "internalType": "uint256",
          "name": "addedValue",
          "type": "uint256"
        }
      ],
      "name": "increaseAllowance",
      "outputs": [
        {
          "internalType": "bool",
          "name": "",
          "type": "bool"
        }
      ],
      "stateMutability": "nonpayable",
      "type": "function"
    },
    {
      "inputs": [],
      "name": "name",
      "outputs": [
        {
          "internalType": "string",
          "name": "",
          "type": "string"
        }
      ],
      "stateMutability": "view",
      "type": "function",
      "constant": true
    },
    {
      "inputs": [],
      "name": "paused",
      "outputs": [
        {
          "internalType": "bool",
          "name": "",
          "type": "bool"
        }
      ],
      "stateMutability": "view",
      "type": "function",
      "constant": true
    },
    {
      "inputs": [
        {
          "internalType": "bytes32",
          "name": "role",
          "type": "bytes32"
        },
        {
          "internalType": "address",
          "name": "account",
          "type": "address"
        }
      ],
      "name": "renounceRole",
      "outputs": [],
      "stateMutability": "nonpayable",
      "type": "function"
    },
    {
      "inputs": [
        {
          "internalType": "bytes32",
          "name": "role",
          "type": "bytes32"
        },
        {
          "internalType": "address",
          "name": "account",
          "type": "address"
        }
      ],
      "name": "revokeRole",
      "outputs": [],
      "stateMutability": "nonpayable",
      "type": "function"
    },
    {
      "inputs": [
        {
          "internalType": "bytes4",
          "name": "interfaceId",
          "type": "bytes4"
        }
      ],
      "name": "supportsInterface",
      "outputs": [
        {
          "internalType": "bool",
          "name": "",
          "type": "bool"
        }
      ],
      "stateMutability": "view",
      "type": "function",
      "constant": true
    },
    {
      "inputs": [],
      "name": "symbol",
      "outputs": [
        {
          "internalType": "string",
          "name": "",
          "type": "string"
        }
      ],
      "stateMutability": "view",
      "type": "function",
      "constant": true
    },
    {
      "inputs": [],
      "name": "totalSupply",
      "outputs": [
        {
          "internalType": "uint256",
          "name": "",
          "type": "uint256"
        }
      ],
      "stateMutability": "view",
      "type": "function",
      "constant": true
    },
    {
      "inputs": [
        {
          "internalType": "address",
          "name": "recipient",
          "type": "address"
        },
        {
          "internalType": "uint256",
          "name": "amount",
          "type": "uint256"
        }
      ],
      "name": "transfer",
      "outputs": [
        {
          "internalType": "bool",
          "name": "",
          "type": "bool"
        }
      ],
      "stateMutability": "nonpayable",
      "type": "function"
    },
    {
      "inputs": [
        {
          "internalType": "address",
          "name": "sender",
          "type": "address"
        },
        {
          "internalType": "address",
          "name": "recipient",
          "type": "address"
        },
        {
          "internalType": "uint256",
          "name": "amount",
          "type": "uint256"
        }
      ],
      "name": "transferFrom",
      "outputs": [
        {
          "internalType": "bool",
          "name": "",
          "type": "bool"
        }
      ],
      "stateMutability": "nonpayable",
      "type": "function"
    },
    {
      "inputs": [
        {
          "internalType": "address",
          "name": "to",
          "type": "address"
        },
        {
          "internalType": "uint256",
          "name": "amount",
          "type": "uint256"
        }
      ],
      "name": "mint",
      "outputs": [],
      "stateMutability": "nonpayable",
      "type": "function"
    },
    {
      "inputs": [],
      "name": "pause",
      "outputs": [],
      "stateMutability": "nonpayable",
      "type": "function"
    },
    {
      "inputs": [],
      "name": "unpause",
      "outputs": [],
      "stateMutability": "nonpayable",
      "type": "function"
    }
  ],
  "bytecode": "0x60806040523480156200001157600080fd5b506040518060400160405280600b81526020017f6a75676f736b616e64696b0000000000000000000000000000000000000000008152506040518060400160405280600381526020017f4a534400000000000000000000000000000000000000000000000000000000008152508160059080519060200190620000969291906200040f565b508060069080519060200190620000af9291906200040f565b5050506000600760006101000a81548160ff021916908315150217905550620000f16000801b620000e56200017960201b60201c565b6200018160201b60201c565b620001327f9f2df0fed2c77648de5860a4cc508cd0818c85b8b8a1ab4ceeef8d981c8956a6620001266200017960201b60201c565b6200018160201b60201c565b620001737f65d7a28e3265b37a6474929f336521b332c1681b933f6cb9f3376673440d862a620001676200017960201b60201c565b6200018160201b60201c565b62000524565b600033905090565b620001988282620001c960201b62000de31760201c565b620001c48160016000858152602001908152602001600020620001df60201b62000df11790919060201c565b505050565b620001db82826200021760201b60201c565b5050565b60006200020f836000018373ffffffffffffffffffffffffffffffffffffffff1660001b6200030860201b60201c565b905092915050565b6200022982826200038260201b60201c565b6200030457600160008084815260200190815260200160002060000160008373ffffffffffffffffffffffffffffffffffffffff1673ffffffffffffffffffffffffffffffffffffffff16815260200190815260200160002060006101000a81548160ff021916908315150217905550620002a96200017960201b60201c565b73ffffffffffffffffffffffffffffffffffffffff168173ffffffffffffffffffffffffffffffffffffffff16837f2f8788117e7eff1d82e926ec794901d17c78024a50270940304540a733656f0d60405160405180910390a45b5050565b60006200031c8383620003ec60201b60201c565b620003775782600001829080600181540180825580915050600190039060005260206000200160009091909190915055826000018054905083600101600084815260200190815260200160002081905550600190506200037c565b600090505b92915050565b600080600084815260200190815260200160002060000160008373ffffffffffffffffffffffffffffffffffffffff1673ffffffffffffffffffffffffffffffffffffffff16815260200190815260200160002060009054906101000a900460ff16905092915050565b600080836001016000848152602001908152602001600020541415905092915050565b8280546200041d90620004bf565b90600052602060002090601f0160209004810192826200044157600085556200048d565b82601f106200045c57805160ff19168380011785556200048d565b828001600101855582156200048d579182015b828111156200048c5782518255916020019190600101906200046f565b5b5090506200049c9190620004a0565b5090565b5b80821115620004bb576000816000905550600101620004a1565b5090565b60006002820490506001821680620004d857607f821691505b60208210811415620004ef57620004ee620004f5565b5b50919050565b7f4e487b7100000000000000000000000000000000000000000000000000000000600052602260045260246000fd5b612dad80620005346000396000f3fe608060405234801561001057600080fd5b506004361061018e5760003560e01c806370a08231116100de578063a457c2d711610097578063d539139311610071578063d5391393146104bf578063d547741f146104dd578063dd62ed3e146104f9578063e63ab1e9146105295761018e565b8063a457c2d71461042f578063a9059cbb1461045f578063ca15c8731461048f5761018e565b806370a08231146103595780638456cb59146103895780639010d07c1461039357806391d14854146103c357806395d89b41146103f3578063a217fddf146104115761018e565b80632f2ff15d1161014b578063395093511161012557806339509351146102e55780633f4ba83a1461031557806340c10f191461031f5780635c975abb1461033b5761018e565b80632f2ff15d1461028f578063313ce567146102ab57806336568abe146102c95761018e565b806301ffc9a71461019357806306fdde03146101c3578063095ea7b3146101e157806318160ddd1461021157806323b872dd1461022f578063248a9ca31461025f575b600080fd5b6101ad60048036038101906101a89190612150565b610547565b6040516101ba9190612819565b60405180910390f35b6101cb6105c1565b6040516101d8919061284f565b60405180910390f35b6101fb60048036038101906101f69190612073565b610653565b6040516102089190612819565b60405180910390f35b610219610671565b6040516102269190612a51565b60405180910390f35b61024960048036038101906102449190612024565b61067b565b6040516102569190612819565b60405180910390f35b610279600480360381019061027491906120af565b610773565b6040516102869190612834565b60405180910390f35b6102a960048036038101906102a491906120d8565b610792565b005b6102b36107c6565b6040516102c09190612a6c565b60405180910390f35b6102e360048036038101906102de91906120d8565b6107cf565b005b6102ff60048036038101906102fa9190612073565b610803565b60405161030c9190612819565b60405180910390f35b61031d6108af565b005b61033960048036038101906103349190612073565b610929565b005b6103436109a7565b6040516103509190612819565b60405180910390f35b610373600480360381019061036e9190611fbf565b6109be565b6040516103809190612a51565b60405180910390f35b610391610a07565b005b6103ad60048036038101906103a89190612114565b610a81565b6040516103ba91906127fe565b60405180910390f35b6103dd60048036038101906103d891906120d8565b610ab0565b6040516103ea9190612819565b60405180910390f35b6103fb610b1a565b604051610408919061284f565b60405180910390f35b610419610bac565b6040516104269190612834565b60405180910390f35b61044960048036038101906104449190612073565b610bb3565b6040516104569190612819565b60405180910390f35b61047960048036038101906104749190612073565b610c9e565b6040516104869190612819565b60405180910390f35b6104a960048036038101906104a491906120af565b610cbc565b6040516104b69190612a51565b60405180910390f35b6104c7610ce0565b6040516104d49190612834565b60405180910390f35b6104f760048036038101906104f291906120d8565b610d04565b005b610513600480360381019061050e9190611fe8565b610d38565b6040516105209190612a51565b60405180910390f35b610531610dbf565b60405161053e9190612834565b60405180910390f35b60007f5a05180f000000000000000000000000000000000000000000000000000000007bffffffffffffffffffffffffffffffffffffffffffffffffffffffff1916827bffffffffffffffffffffffffffffffffffffffffffffffffffffffff191614806105ba57506105b982610e21565b5b9050919050565b6060600580546105d090612c7a565b80601f01602080910402602001604051908101604052809291908181526020018280546105fc90612c7a565b80156106495780601f1061061e57610100808354040283529160200191610649565b820191906000526020600020905b81548152906001019060200180831161062c57829003601f168201915b5050505050905090565b6000610667610660610e9b565b8484610ea3565b6001905092915050565b6000600454905090565b600061068884848461106e565b6000600360008673ffffffffffffffffffffffffffffffffffffffff1673ffffffffffffffffffffffffffffffffffffffff16815260200190815260200160002060006106d3610e9b565b73ffffffffffffffffffffffffffffffffffffffff1673ffffffffffffffffffffffffffffffffffffffff16815260200190815260200160002054905082811015610753576040517f08c379a000000000000000000000000000000000000000000000000000000000815260040161074a90612931565b60405180910390fd5b6107678561075f610e9b565b858403610ea3565b60019150509392505050565b6000806000838152602001908152602001600020600101549050919050565b61079c82826112f2565b6107c18160016000858152602001908152602001600020610df190919063ffffffff16565b505050565b60006012905090565b6107d9828261131b565b6107fe816001600085815260200190815260200160002061139e90919063ffffffff16565b505050565b60006108a5610810610e9b565b84846003600061081e610e9b565b73ffffffffffffffffffffffffffffffffffffffff1673ffffffffffffffffffffffffffffffffffffffff16815260200190815260200160002060008873ffffffffffffffffffffffffffffffffffffffff1673ffffffffffffffffffffffffffffffffffffffff168152602001908152602001600020546108a09190612aae565b610ea3565b6001905092915050565b6108e07f65d7a28e3265b37a6474929f336521b332c1681b933f6cb9f3376673440d862a6108db610e9b565b610ab0565b61091f576040517f08c379a0000000000000000000000000000000000000000000000000000000008152600401610916906129b1565b60405180910390fd5b6109276113ce565b565b61095a7f9f2df0fed2c77648de5860a4cc508cd0818c85b8b8a1ab4ceeef8d981c8956a6610955610e9b565b610ab0565b610999576040517f08c379a000000000000000000000000000000000000000000000000000000000815260040161099090612991565b60405180910390fd5b6109a38282611470565b5050565b6000600760009054906101000a900460ff16905090565b6000600260008373ffffffffffffffffffffffffffffffffffffffff1673ffffffffffffffffffffffffffffffffffffffff168152602001908152602001600020549050919050565b610a387f65d7a28e3265b37a6474929f336521b332c1681b933f6cb9f3376673440d862a610a33610e9b565b610ab0565b610a77576040517f08c379a0000000000000000000000000000000000000000000000000000000008152600401610a6e906129b1565b60405180910390fd5b610a7f6115d1565b565b6000610aa8826001600086815260200190815260200160002061167490919063ffffffff16565b905092915050565b600080600084815260200190815260200160002060000160008373ffffffffffffffffffffffffffffffffffffffff1673ffffffffffffffffffffffffffffffffffffffff16815260200190815260200160002060009054906101000a900460ff16905092915050565b606060068054610b2990612c7a565b80601f0160208091040260200160405190810160405280929190818152602001828054610b5590612c7a565b8015610ba25780601f10610b7757610100808354040283529160200191610ba2565b820191906000526020600020905b815481529060010190602001808311610b8557829003601f168201915b5050505050905090565b6000801b81565b60008060036000610bc2610e9b565b73ffffffffffffffffffffffffffffffffffffffff1673ffffffffffffffffffffffffffffffffffffffff16815260200190815260200160002060008573ffffffffffffffffffffffffffffffffffffffff1673ffffffffffffffffffffffffffffffffffffffff16815260200190815260200160002054905082811015610c7f576040517f08c379a0000000000000000000000000000000000000000000000000000000008152600401610c76906129d1565b60405180910390fd5b610c93610c8a610e9b565b85858403610ea3565b600191505092915050565b6000610cb2610cab610e9b565b848461106e565b6001905092915050565b6000610cd96001600084815260200190815260200160002061168e565b9050919050565b7f9f2df0fed2c77648de5860a4cc508cd0818c85b8b8a1ab4ceeef8d981c8956a681565b610d0e82826116a3565b610d33816001600085815260200190815260200160002061139e90919063ffffffff16565b505050565b6000600360008473ffffffffffffffffffffffffffffffffffffffff1673ffffffffffffffffffffffffffffffffffffffff16815260200190815260200160002060008373ffffffffffffffffffffffffffffffffffffffff1673ffffffffffffffffffffffffffffffffffffffff16815260200190815260200160002054905092915050565b7f65d7a28e3265b37a6474929f336521b332c1681b933f6cb9f3376673440d862a81565b610ded82826116cc565b5050565b6000610e19836000018373ffffffffffffffffffffffffffffffffffffffff1660001b6117ac565b905092915050565b60007f7965db0b000000000000000000000000000000000000000000000000000000007bffffffffffffffffffffffffffffffffffffffffffffffffffffffff1916827bffffffffffffffffffffffffffffffffffffffffffffffffffffffff19161480610e945750610e938261181c565b5b9050919050565b600033905090565b600073ffffffffffffffffffffffffffffffffffffffff168373ffffffffffffffffffffffffffffffffffffffff161415610f13576040517f08c379a0000000000000000000000000000000000000000000000000000000008152600401610f0a90612971565b60405180910390fd5b600073ffffffffffffffffffffffffffffffffffffffff168273ffffffffffffffffffffffffffffffffffffffff161415610f83576040517f08c379a0000000000000000000000000000000000000000000000000000000008152600401610f7a906128d1565b60405180910390fd5b80600360008573ffffffffffffffffffffffffffffffffffffffff1673ffffffffffffffffffffffffffffffffffffffff16815260200190815260200160002060008473ffffffffffffffffffffffffffffffffffffffff1673ffffffffffffffffffffffffffffffffffffffff168152602001908152602001600020819055508173ffffffffffffffffffffffffffffffffffffffff168373ffffffffffffffffffffffffffffffffffffffff167f8c5be1e5ebec7d5bd14f71427d1e84f3dd0314c0f7b2291e5b200ac8c7c3b925836040516110619190612a51565b60405180910390a3505050565b600073ffffffffffffffffffffffffffffffffffffffff168373ffffffffffffffffffffffffffffffffffffffff1614156110de576040517f08c379a00000000000000000000000000000000000000000000000000000000081526004016110d590612951565b60405180910390fd5b600073ffffffffffffffffffffffffffffffffffffffff168273ffffffffffffffffffffffffffffffffffffffff16141561114e576040517f08c379a000000000000000000000000000000000000000000000000000000000815260040161114590612891565b60405180910390fd5b611159838383611886565b6000600260008573ffffffffffffffffffffffffffffffffffffffff1673ffffffffffffffffffffffffffffffffffffffff168152602001908152602001600020549050818110156111e0576040517f08c379a00000000000000000000000000000000000000000000000000000000081526004016111d7906128f1565b60405180910390fd5b818103600260008673ffffffffffffffffffffffffffffffffffffffff1673ffffffffffffffffffffffffffffffffffffffff1681526020019081526020016000208190555081600260008573ffffffffffffffffffffffffffffffffffffffff1673ffffffffffffffffffffffffffffffffffffffff16815260200190815260200160002060008282546112759190612aae565b925050819055508273ffffffffffffffffffffffffffffffffffffffff168473ffffffffffffffffffffffffffffffffffffffff167fddf252ad1be2c89b69c2b068fc378daa952ba7f163c4a11628f55a4df523b3ef846040516112d99190612a51565b60405180910390a36112ec8484846118de565b50505050565b6112fb82610773565b61130c81611307610e9b565b6118e3565b61131683836116cc565b505050565b611323610e9b565b73ffffffffffffffffffffffffffffffffffffffff168173ffffffffffffffffffffffffffffffffffffffff1614611390576040517f08c379a0000000000000000000000000000000000000000000000000000000008152600401611387906129f1565b60405180910390fd5b61139a8282611980565b5050565b60006113c6836000018373ffffffffffffffffffffffffffffffffffffffff1660001b611a61565b905092915050565b6113d66109a7565b611415576040517f08c379a000000000000000000000000000000000000000000000000000000000815260040161140c906128b1565b60405180910390fd5b6000600760006101000a81548160ff0219169083151502179055507f5db9ee0a495bf2e6ff9c91a7834c1ba4fdd244a5e8aa4e537bd38aeae4b073aa611459610e9b565b60405161146691906127fe565b60405180910390a1565b600073ffffffffffffffffffffffffffffffffffffffff168273ffffffffffffffffffffffffffffffffffffffff1614156114e0576040517f08c379a00000000000000000000000000000000000000000000000000000000081526004016114d790612a11565b60405180910390fd5b6114ec60008383611886565b80600460008282546114fe9190612aae565b9250508190555080600260008473ffffffffffffffffffffffffffffffffffffffff1673ffffffffffffffffffffffffffffffffffffffff16815260200190815260200160002060008282546115549190612aae565b925050819055508173ffffffffffffffffffffffffffffffffffffffff16600073ffffffffffffffffffffffffffffffffffffffff167fddf252ad1be2c89b69c2b068fc378daa952ba7f163c4a11628f55a4df523b3ef836040516115b99190612a51565b60405180910390a36115cd600083836118de565b5050565b6115d96109a7565b15611619576040517f08c379a000000000000000000000000000000000000000000000000000000000815260040161161090612911565b60405180910390fd5b6001600760006101000a81548160ff0219169083151502179055507f62e78cea01bee320cd4e420270b5ea74000d11b0c9f74754ebdbfc544b05a25861165d610e9b565b60405161166a91906127fe565b60405180910390a1565b60006116838360000183611be7565b60001c905092915050565b600061169c82600001611c38565b9050919050565b6116ac82610773565b6116bd816116b8610e9b565b6118e3565b6116c78383611980565b505050565b6116d68282610ab0565b6117a857600160008084815260200190815260200160002060000160008373ffffffffffffffffffffffffffffffffffffffff1673ffffffffffffffffffffffffffffffffffffffff16815260200190815260200160002060006101000a81548160ff02191690831515021790555061174d610e9b565b73ffffffffffffffffffffffffffffffffffffffff168173ffffffffffffffffffffffffffffffffffffffff16837f2f8788117e7eff1d82e926ec794901d17c78024a50270940304540a733656f0d60405160405180910390a45b5050565b60006117b88383611c49565b611811578260000182908060018154018082558091505060019003906000526020600020016000909190919091505582600001805490508360010160008481526020019081526020016000208190555060019050611816565b600090505b92915050565b60007f01ffc9a7000000000000000000000000000000000000000000000000000000007bffffffffffffffffffffffffffffffffffffffffffffffffffffffff1916827bffffffffffffffffffffffffffffffffffffffffffffffffffffffff1916149050919050565b611891838383611c6c565b6118996109a7565b156118d9576040517f08c379a00000000000000000000000000000000000000000000000000000000081526004016118d090612a31565b60405180910390fd5b505050565b505050565b6118ed8282610ab0565b61197c576119128173ffffffffffffffffffffffffffffffffffffffff166014611c71565b6119208360001c6020611c71565b6040516020016119319291906127c4565b6040516020818303038152906040526040517f08c379a0000000000000000000000000000000000000000000000000000000008152600401611973919061284f565b60405180910390fd5b5050565b61198a8282610ab0565b15611a5d57600080600084815260200190815260200160002060000160008373ffffffffffffffffffffffffffffffffffffffff1673ffffffffffffffffffffffffffffffffffffffff16815260200190815260200160002060006101000a81548160ff021916908315150217905550611a02610e9b565b73ffffffffffffffffffffffffffffffffffffffff168173ffffffffffffffffffffffffffffffffffffffff16837ff6391f5c32d9c69d2a47ea670b442974b53935d1edc7fd64eb21e047a839171b60405160405180910390a45b5050565b60008083600101600084815260200190815260200160002054905060008114611bdb576000600182611a939190612b5e565b9050600060018660000180549050611aab9190612b5e565b9050818114611b66576000866000018281548110611af2577f4e487b7100000000000000000000000000000000000000000000000000000000600052603260045260246000fd5b9060005260206000200154905080876000018481548110611b3c577f4e487b7100000000000000000000000000000000000000000000000000000000600052603260045260246000fd5b90600052602060002001819055508387600101600083815260200190815260200160002081905550505b85600001805480611ba0577f4e487b7100000000000000000000000000000000000000000000000000000000600052603160045260246000fd5b600190038181906000526020600020016000905590558560010160008681526020019081526020016000206000905560019350505050611be1565b60009150505b92915050565b6000826000018281548110611c25577f4e487b7100000000000000000000000000000000000000000000000000000000600052603260045260246000fd5b9060005260206000200154905092915050565b600081600001805490509050919050565b600080836001016000848152602001908152602001600020541415905092915050565b505050565b606060006002836002611c849190612b04565b611c8e9190612aae565b67ffffffffffffffff811115611ccd577f4e487b7100000000000000000000000000000000000000000000000000000000600052604160045260246000fd5b6040519080825280601f01601f191660200182016040528015611cff5781602001600182028036833780820191505090505b5090507f300000000000000000000000000000000000000000000000000000000000000081600081518110611d5d577f4e487b7100000000000000000000000000000000000000000000000000000000600052603260045260246000fd5b60200101907effffffffffffffffffffffffffffffffffffffffffffffffffffffffffffff1916908160001a9053507f780000000000000000000000000000000000000000000000000000000000000081600181518110611de7577f4e487b7100000000000000000000000000000000000000000000000000000000600052603260045260246000fd5b60200101907effffffffffffffffffffffffffffffffffffffffffffffffffffffffffffff1916908160001a90535060006001846002611e279190612b04565b611e319190612aae565b90505b6001811115611f1d577f3031323334353637383961626364656600000000000000000000000000000000600f861660108110611e99577f4e487b7100000000000000000000000000000000000000000000000000000000600052603260045260246000fd5b1a60f81b828281518110611ed6577f4e487b7100000000000000000000000000000000000000000000000000000000600052603260045260246000fd5b60200101907effffffffffffffffffffffffffffffffffffffffffffffffffffffffffffff1916908160001a905350600485901c945080611f1690612c50565b9050611e34565b5060008414611f61576040517f08c379a0000000000000000000000000000000000000000000000000000000008152600401611f5890612871565b60405180910390fd5b8091505092915050565b600081359050611f7a81612d1b565b92915050565b600081359050611f8f81612d32565b92915050565b600081359050611fa481612d49565b92915050565b600081359050611fb981612d60565b92915050565b600060208284031215611fd157600080fd5b6000611fdf84828501611f6b565b91505092915050565b60008060408385031215611ffb57600080fd5b600061200985828601611f6b565b925050602061201a85828601611f6b565b9150509250929050565b60008060006060848603121561203957600080fd5b600061204786828701611f6b565b935050602061205886828701611f6b565b925050604061206986828701611faa565b9150509250925092565b6000806040838503121561208657600080fd5b600061209485828601611f6b565b92505060206120a585828601611faa565b9150509250929050565b6000602082840312156120c157600080fd5b60006120cf84828501611f80565b91505092915050565b600080604083850312156120eb57600080fd5b60006120f985828601611f80565b925050602061210a85828601611f6b565b9150509250929050565b6000806040838503121561212757600080fd5b600061213585828601611f80565b925050602061214685828601611faa565b9150509250929050565b60006020828403121561216257600080fd5b600061217084828501611f95565b91505092915050565b61218281612b92565b82525050565b61219181612ba4565b82525050565b6121a081612bb0565b82525050565b60006121b182612a87565b6121bb8185612a92565b93506121cb818560208601612c1d565b6121d481612d0a565b840191505092915050565b60006121ea82612a87565b6121f48185612aa3565b9350612204818560208601612c1d565b80840191505092915050565b600061221d602083612a92565b91507f537472696e67733a20686578206c656e67746820696e73756666696369656e746000830152602082019050919050565b600061225d602383612a92565b91507f45524332303a207472616e7366657220746f20746865207a65726f206164647260008301527f65737300000000000000000000000000000000000000000000000000000000006020830152604082019050919050565b60006122c3601483612a92565b91507f5061757361626c653a206e6f74207061757365640000000000000000000000006000830152602082019050919050565b6000612303602283612a92565b91507f45524332303a20617070726f766520746f20746865207a65726f20616464726560008301527f73730000000000000000000000000000000000000000000000000000000000006020830152604082019050919050565b6000612369602683612a92565b91507f45524332303a207472616e7366657220616d6f756e742065786365656473206260008301527f616c616e636500000000000000000000000000000000000000000000000000006020830152604082019050919050565b60006123cf601083612a92565b91507f5061757361626c653a20706175736564000000000000000000000000000000006000830152602082019050919050565b600061240f602883612a92565b91507f45524332303a207472616e7366657220616d6f756e742065786365656473206160008301527f6c6c6f77616e63650000000000000000000000000000000000000000000000006020830152604082019050919050565b6000612475602583612a92565b91507f45524332303a207472616e736665722066726f6d20746865207a65726f20616460008301527f64726573730000000000000000000000000000000000000000000000000000006020830152604082019050919050565b60006124db602483612a92565b91507f45524332303a20617070726f76652066726f6d20746865207a65726f2061646460008301527f72657373000000000000000000000000000000000000000000000000000000006020830152604082019050919050565b6000612541601d83612a92565b91507f6d7573742068617665206d696e74657220726f6c6520746f206d696e740000006000830152602082019050919050565b6000612581601783612aa3565b91507f416363657373436f6e74726f6c3a206163636f756e74200000000000000000006000830152601782019050919050565b60006125c1601683612a92565b91507f6d75737420686176652070617573657220726f6c6520000000000000000000006000830152602082019050919050565b6000612601602583612a92565b91507f45524332303a2064656372656173656420616c6c6f77616e63652062656c6f7760008301527f207a65726f0000000000000000000000000000000000000000000000000000006020830152604082019050919050565b6000612667601183612aa3565b91507f206973206d697373696e6720726f6c65200000000000000000000000000000006000830152601182019050919050565b60006126a7602f83612a92565b91507f416363657373436f6e74726f6c3a2063616e206f6e6c792072656e6f756e636560008301527f20726f6c657320666f722073656c6600000000000000000000000000000000006020830152604082019050919050565b600061270d601f83612a92565b91507f45524332303a206d696e7420746f20746865207a65726f2061646472657373006000830152602082019050919050565b600061274d602a83612a92565b91507f45524332305061757361626c653a20746f6b656e207472616e7366657220776860008301527f696c6520706175736564000000000000000000000000000000000000000000006020830152604082019050919050565b6127af81612c06565b82525050565b6127be81612c10565b82525050565b60006127cf82612574565b91506127db82856121df565b91506127e68261265a565b91506127f282846121df565b91508190509392505050565b60006020820190506128136000830184612179565b92915050565b600060208201905061282e6000830184612188565b92915050565b60006020820190506128496000830184612197565b92915050565b6000602082019050818103600083015261286981846121a6565b905092915050565b6000602082019050818103600083015261288a81612210565b9050919050565b600060208201905081810360008301526128aa81612250565b9050919050565b600060208201905081810360008301526128ca816122b6565b9050919050565b600060208201905081810360008301526128ea816122f6565b9050919050565b6000602082019050818103600083015261290a8161235c565b9050919050565b6000602082019050818103600083015261292a816123c2565b9050919050565b6000602082019050818103600083015261294a81612402565b9050919050565b6000602082019050818103600083015261296a81612468565b9050919050565b6000602082019050818103600083015261298a816124ce565b9050919050565b600060208201905081810360008301526129aa81612534565b9050919050565b600060208201905081810360008301526129ca816125b4565b9050919050565b600060208201905081810360008301526129ea816125f4565b9050919050565b60006020820190508181036000830152612a0a8161269a565b9050919050565b60006020820190508181036000830152612a2a81612700565b9050919050565b60006020820190508181036000830152612a4a81612740565b9050919050565b6000602082019050612a6660008301846127a6565b92915050565b6000602082019050612a8160008301846127b5565b92915050565b600081519050919050565b600082825260208201905092915050565b600081905092915050565b6000612ab982612c06565b9150612ac483612c06565b9250827fffffffffffffffffffffffffffffffffffffffffffffffffffffffffffffffff03821115612af957612af8612cac565b5b828201905092915050565b6000612b0f82612c06565b9150612b1a83612c06565b9250817fffffffffffffffffffffffffffffffffffffffffffffffffffffffffffffffff0483118215151615612b5357612b52612cac565b5b828202905092915050565b6000612b6982612c06565b9150612b7483612c06565b925082821015612b8757612b86612cac565b5b828203905092915050565b6000612b9d82612be6565b9050919050565b60008115159050919050565b6000819050919050565b60007fffffffff0000000000000000000000000000000000000000000000000000000082169050919050565b600073ffffffffffffffffffffffffffffffffffffffff82169050919050565b6000819050919050565b600060ff82169050919050565b60005b83811015612c3b578082015181840152602081019050612c20565b83811115612c4a576000848401525b50505050565b6000612c5b82612c06565b91506000821415612c6f57612c6e612cac565b5b600182039050919050565b60006002820490506001821680612c9257607f821691505b60208210811415612ca657612ca5612cdb565b5b50919050565b7f4e487b7100000000000000000000000000000000000000000000000000000000600052601160045260246000fd5b7f4e487b7100000000000000000000000000000000000000000000000000000000600052602260045260246000fd5b6000601f19601f8301169050919050565b612d2481612b92565b8114612d2f57600080fd5b50565b612d3b81612bb0565b8114612d4657600080fd5b50565b612d5281612bba565b8114612d5d57600080fd5b50565b612d6981612c06565b8114612d7457600080fd5b5056fea2646970667358221220769afd58261f3ae817d6da42af759abd9cda6909735584dc7b086b7bac2febe564736f6c63430008000033",
  "immutableReferences": {},
  "source": "// SPDX-License-Identifier: MIT\npragma solidity 0.8.0;\n\nimport \"@openzeppelin/contracts/token/ERC20/ERC20.sol\";\nimport \"@openzeppelin/contracts/token/ERC20/extensions/ERC20Pausable.sol\";\nimport \"@openzeppelin/contracts/access/AccessControlEnumerable.sol\";\n\ncontract GameToken is Context, AccessControlEnumerable, ERC20Pausable {\n  bytes32 public constant MINTER_ROLE = keccak256(\"MINTER_ROLE\");\n  bytes32 public constant PAUSER_ROLE = keccak256(\"PAUSER_ROLE\");\n\n  constructor() ERC20(\"jugoskandik\", \"JSD\") {\n    _setupRole(DEFAULT_ADMIN_ROLE, _msgSender());\n    _setupRole(MINTER_ROLE, _msgSender());\n    _setupRole(PAUSER_ROLE, _msgSender());\n  }\n\n  modifier minter() {\n    require(hasRole(MINTER_ROLE, _msgSender()), \"must have minter role to mint\");\n    _;\n  }\n  \n  modifier pauser() {\n    require(hasRole(PAUSER_ROLE, _msgSender()), \"must have pauser role \");\n    _;\n  }\n\n  /**\n\n  */\n  function mint(address to, uint256 amount) minter() public virtual {\n    _mint(to, amount);\n  }\n\n  \n  /**\n    * @dev Pauses all token transfers.\n    *\n    * See {ERC20Pausable} and {Pausable-_pause}.\n    *\n    * Requirements:\n    *\n    * - the caller must have the `PAUSER_ROLE`.\n    */\n  function pause() public pauser() virtual {\n    _pause();\n  }\n\n  /**\n    * @dev Unpauses all token transfers.\n    *\n    * See {ERC20Pausable} and {Pausable-_unpause}.\n    *\n    * Requirements:\n    *\n    * - the caller must have the `PAUSER_ROLE`.\n    */\n  function unpause() public pauser() virtual {\n    _unpause();\n  }\n}\n",
  "sourcePath": "/d/projects/ConsenSys/boot camp/blockchain-boot-camp/contracts/GameToken.sol",
  "compiler": {
    "name": "solc",
    "version": "0.8.0+commit.c7dfd78e.Emscripten.clang"
  },
  "schemaVersion": "3.4.3",
  "updatedAt": "2021-11-25T22:16:30.144Z",
  "networkType": "ethereum",
  "devdoc": {
    "kind": "dev",
    "methods": {
      "allowance(address,address)": {
        "details": "See {IERC20-allowance}."
      },
      "approve(address,uint256)": {
        "details": "See {IERC20-approve}. Requirements: - `spender` cannot be the zero address."
      },
      "balanceOf(address)": {
        "details": "See {IERC20-balanceOf}."
      },
      "decimals()": {
        "details": "Returns the number of decimals used to get its user representation. For example, if `decimals` equals `2`, a balance of `505` tokens should be displayed to a user as `5.05` (`505 / 10 ** 2`). Tokens usually opt for a value of 18, imitating the relationship between Ether and Wei. This is the value {ERC20} uses, unless this function is overridden; NOTE: This information is only used for _display_ purposes: it in no way affects any of the arithmetic of the contract, including {IERC20-balanceOf} and {IERC20-transfer}."
      },
      "decreaseAllowance(address,uint256)": {
        "details": "Atomically decreases the allowance granted to `spender` by the caller. This is an alternative to {approve} that can be used as a mitigation for problems described in {IERC20-approve}. Emits an {Approval} event indicating the updated allowance. Requirements: - `spender` cannot be the zero address. - `spender` must have allowance for the caller of at least `subtractedValue`."
      },
      "getRoleAdmin(bytes32)": {
        "details": "Returns the admin role that controls `role`. See {grantRole} and {revokeRole}. To change a role's admin, use {_setRoleAdmin}."
      },
      "getRoleMember(bytes32,uint256)": {
        "details": "Returns one of the accounts that have `role`. `index` must be a value between 0 and {getRoleMemberCount}, non-inclusive. Role bearers are not sorted in any particular way, and their ordering may change at any point. WARNING: When using {getRoleMember} and {getRoleMemberCount}, make sure you perform all queries on the same block. See the following https://forum.openzeppelin.com/t/iterating-over-elements-on-enumerableset-in-openzeppelin-contracts/2296[forum post] for more information."
      },
      "getRoleMemberCount(bytes32)": {
        "details": "Returns the number of accounts that have `role`. Can be used together with {getRoleMember} to enumerate all bearers of a role."
      },
      "grantRole(bytes32,address)": {
        "details": "Overload {grantRole} to track enumerable memberships"
      },
      "hasRole(bytes32,address)": {
        "details": "Returns `true` if `account` has been granted `role`."
      },
      "increaseAllowance(address,uint256)": {
        "details": "Atomically increases the allowance granted to `spender` by the caller. This is an alternative to {approve} that can be used as a mitigation for problems described in {IERC20-approve}. Emits an {Approval} event indicating the updated allowance. Requirements: - `spender` cannot be the zero address."
      },
      "name()": {
        "details": "Returns the name of the token."
      },
      "pause()": {
        "details": "Pauses all token transfers. See {ERC20Pausable} and {Pausable-_pause}. Requirements: - the caller must have the `PAUSER_ROLE`."
      },
      "paused()": {
        "details": "Returns true if the contract is paused, and false otherwise."
      },
      "renounceRole(bytes32,address)": {
        "details": "Overload {renounceRole} to track enumerable memberships"
      },
      "revokeRole(bytes32,address)": {
        "details": "Overload {revokeRole} to track enumerable memberships"
      },
      "supportsInterface(bytes4)": {
        "details": "See {IERC165-supportsInterface}."
      },
      "symbol()": {
        "details": "Returns the symbol of the token, usually a shorter version of the name."
      },
      "totalSupply()": {
        "details": "See {IERC20-totalSupply}."
      },
      "transfer(address,uint256)": {
        "details": "See {IERC20-transfer}. Requirements: - `recipient` cannot be the zero address. - the caller must have a balance of at least `amount`."
      },
      "transferFrom(address,address,uint256)": {
        "details": "See {IERC20-transferFrom}. Emits an {Approval} event indicating the updated allowance. This is not required by the EIP. See the note at the beginning of {ERC20}. Requirements: - `sender` and `recipient` cannot be the zero address. - `sender` must have a balance of at least `amount`. - the caller must have allowance for ``sender``'s tokens of at least `amount`."
      },
      "unpause()": {
        "details": "Unpauses all token transfers. See {ERC20Pausable} and {Pausable-_unpause}. Requirements: - the caller must have the `PAUSER_ROLE`."
      }
    },
    "version": 1
  },
  "userdoc": {
    "kind": "user",
    "methods": {},
    "version": 1
  }
}