{
  "contractName": "RockPaperScissors",
  "abi": [
    {
      "inputs": [
        {
          "internalType": "contract GameToken",
          "name": "_gameToken",
          "type": "address"
        }
      ],
      "stateMutability": "nonpayable",
      "type": "constructor"
    },
    {
      "anonymous": false,
      "inputs": [
        {
          "indexed": false,
          "internalType": "uint256",
          "name": "gameId",
          "type": "uint256"
        }
      ],
      "name": "GameDrawn",
      "type": "event"
    },
    {
      "anonymous": false,
      "inputs": [
        {
          "indexed": false,
          "internalType": "address",
          "name": "player",
          "type": "address"
        },
        {
          "indexed": false,
          "internalType": "uint256",
          "name": "gameId",
          "type": "uint256"
        }
      ],
      "name": "GamerWinner",
      "type": "event"
    },
    {
      "anonymous": false,
      "inputs": [
        {
          "indexed": false,
          "internalType": "address",
          "name": "player",
          "type": "address"
        },
        {
          "indexed": false,
          "internalType": "uint256",
          "name": "gameId",
          "type": "uint256"
        }
      ],
      "name": "MoveCommited",
      "type": "event"
    },
    {
      "anonymous": false,
      "inputs": [
        {
          "indexed": false,
          "internalType": "address",
          "name": "player",
          "type": "address"
        },
        {
          "indexed": false,
          "internalType": "uint256",
          "name": "gameId",
          "type": "uint256"
        }
      ],
      "name": "MoveRevealed",
      "type": "event"
    },
    {
      "anonymous": false,
      "inputs": [
        {
          "indexed": false,
          "internalType": "address",
          "name": "account",
          "type": "address"
        }
      ],
      "name": "Paused",
      "type": "event"
    },
    {
      "anonymous": false,
      "inputs": [
        {
          "indexed": false,
          "internalType": "address",
          "name": "player",
          "type": "address"
        },
        {
          "indexed": false,
          "internalType": "uint256",
          "name": "gameId",
          "type": "uint256"
        }
      ],
      "name": "PlayerRegistered",
      "type": "event"
    },
    {
      "anonymous": false,
      "inputs": [
        {
          "indexed": true,
          "internalType": "bytes32",
          "name": "role",
          "type": "bytes32"
        },
        {
          "indexed": true,
          "internalType": "bytes32",
          "name": "previousAdminRole",
          "type": "bytes32"
        },
        {
          "indexed": true,
          "internalType": "bytes32",
          "name": "newAdminRole",
          "type": "bytes32"
        }
      ],
      "name": "RoleAdminChanged",
      "type": "event"
    },
    {
      "anonymous": false,
      "inputs": [
        {
          "indexed": true,
          "internalType": "bytes32",
          "name": "role",
          "type": "bytes32"
        },
        {
          "indexed": true,
          "internalType": "address",
          "name": "account",
          "type": "address"
        },
        {
          "indexed": true,
          "internalType": "address",
          "name": "sender",
          "type": "address"
        }
      ],
      "name": "RoleGranted",
      "type": "event"
    },
    {
      "anonymous": false,
      "inputs": [
        {
          "indexed": true,
          "internalType": "bytes32",
          "name": "role",
          "type": "bytes32"
        },
        {
          "indexed": true,
          "internalType": "address",
          "name": "account",
          "type": "address"
        },
        {
          "indexed": true,
          "internalType": "address",
          "name": "sender",
          "type": "address"
        }
      ],
      "name": "RoleRevoked",
      "type": "event"
    },
    {
      "anonymous": false,
      "inputs": [
        {
          "indexed": false,
          "internalType": "address",
          "name": "account",
          "type": "address"
        }
      ],
      "name": "Unpaused",
      "type": "event"
    },
    {
      "inputs": [],
      "name": "DEFAULT_ADMIN_ROLE",
      "outputs": [
        {
          "internalType": "bytes32",
          "name": "",
          "type": "bytes32"
        }
      ],
      "stateMutability": "view",
      "type": "function",
      "constant": true
    },
    {
      "inputs": [],
      "name": "PAUSER_ROLE",
      "outputs": [
        {
          "internalType": "bytes32",
          "name": "",
          "type": "bytes32"
        }
      ],
      "stateMutability": "view",
      "type": "function",
      "constant": true
    },
    {
      "inputs": [],
      "name": "gameIdCount",
      "outputs": [
        {
          "internalType": "uint256",
          "name": "",
          "type": "uint256"
        }
      ],
      "stateMutability": "view",
      "type": "function",
      "constant": true
    },
    {
      "inputs": [
        {
          "internalType": "uint256",
          "name": "",
          "type": "uint256"
        }
      ],
      "name": "games",
      "outputs": [
        {
          "internalType": "address",
          "name": "winner",
          "type": "address"
        },
        {
          "internalType": "bool",
          "name": "finished",
          "type": "bool"
        }
      ],
      "stateMutability": "view",
      "type": "function",
      "constant": true
    },
    {
      "inputs": [
        {
          "internalType": "bytes32",
          "name": "role",
          "type": "bytes32"
        }
      ],
      "name": "getRoleAdmin",
      "outputs": [
        {
          "internalType": "bytes32",
          "name": "",
          "type": "bytes32"
        }
      ],
      "stateMutability": "view",
      "type": "function",
      "constant": true
    },
    {
      "inputs": [
        {
          "internalType": "bytes32",
          "name": "role",
          "type": "bytes32"
        },
        {
          "internalType": "uint256",
          "name": "index",
          "type": "uint256"
        }
      ],
      "name": "getRoleMember",
      "outputs": [
        {
          "internalType": "address",
          "name": "",
          "type": "address"
        }
      ],
      "stateMutability": "view",
      "type": "function",
      "constant": true
    },
    {
      "inputs": [
        {
          "internalType": "bytes32",
          "name": "role",
          "type": "bytes32"
        }
      ],
      "name": "getRoleMemberCount",
      "outputs": [
        {
          "internalType": "uint256",
          "name": "",
          "type": "uint256"
        }
      ],
      "stateMutability": "view",
      "type": "function",
      "constant": true
    },
    {
      "inputs": [
        {
          "internalType": "bytes32",
          "name": "role",
          "type": "bytes32"
        },
        {
          "internalType": "address",
          "name": "account",
          "type": "address"
        }
      ],
      "name": "grantRole",
      "outputs": [],
      "stateMutability": "nonpayable",
      "type": "function"
    },
    {
      "inputs": [
        {
          "internalType": "bytes32",
          "name": "role",
          "type": "bytes32"
        },
        {
          "internalType": "address",
          "name": "account",
          "type": "address"
        }
      ],
      "name": "hasRole",
      "outputs": [
        {
          "internalType": "bool",
          "name": "",
          "type": "bool"
        }
      ],
      "stateMutability": "view",
      "type": "function",
      "constant": true
    },
    {
      "inputs": [],
      "name": "paused",
      "outputs": [
        {
          "internalType": "bool",
          "name": "",
          "type": "bool"
        }
      ],
      "stateMutability": "view",
      "type": "function",
      "constant": true
    },
    {
      "inputs": [
        {
          "internalType": "bytes32",
          "name": "role",
          "type": "bytes32"
        },
        {
          "internalType": "address",
          "name": "account",
          "type": "address"
        }
      ],
      "name": "renounceRole",
      "outputs": [],
      "stateMutability": "nonpayable",
      "type": "function"
    },
    {
      "inputs": [
        {
          "internalType": "bytes32",
          "name": "role",
          "type": "bytes32"
        },
        {
          "internalType": "address",
          "name": "account",
          "type": "address"
        }
      ],
      "name": "revokeRole",
      "outputs": [],
      "stateMutability": "nonpayable",
      "type": "function"
    },
    {
      "inputs": [
        {
          "internalType": "bytes4",
          "name": "interfaceId",
          "type": "bytes4"
        }
      ],
      "name": "supportsInterface",
      "outputs": [
        {
          "internalType": "bool",
          "name": "",
          "type": "bool"
        }
      ],
      "stateMutability": "view",
      "type": "function",
      "constant": true
    },
    {
      "inputs": [],
      "name": "pause",
      "outputs": [],
      "stateMutability": "nonpayable",
      "type": "function"
    },
    {
      "inputs": [],
      "name": "unpause",
      "outputs": [],
      "stateMutability": "nonpayable",
      "type": "function"
    },
    {
      "inputs": [],
      "name": "register",
      "outputs": [
        {
          "internalType": "uint256",
          "name": "",
          "type": "uint256"
        }
      ],
      "stateMutability": "nonpayable",
      "type": "function"
    },
    {
      "inputs": [
        {
          "internalType": "uint256",
          "name": "gameId",
          "type": "uint256"
        },
        {
          "internalType": "bytes32",
          "name": "encrMove",
          "type": "bytes32"
        }
      ],
      "name": "commit",
      "outputs": [
        {
          "internalType": "bool",
          "name": "",
          "type": "bool"
        }
      ],
      "stateMutability": "nonpayable",
      "type": "function"
    },
    {
      "inputs": [
        {
          "internalType": "uint256",
          "name": "gameId",
          "type": "uint256"
        },
        {
          "internalType": "string",
          "name": "plainMove",
          "type": "string"
        }
      ],
      "name": "reveal",
      "outputs": [
        {
          "internalType": "bool",
          "name": "",
          "type": "bool"
        }
      ],
      "stateMutability": "nonpayable",
      "type": "function"
    },
    {
      "inputs": [
        {
          "internalType": "uint256",
          "name": "gameId",
          "type": "uint256"
        }
      ],
      "name": "getOpponentMove",
      "outputs": [
        {
          "components": [
            {
              "internalType": "bytes32",
              "name": "encrMove",
              "type": "bytes32"
            },
            {
              "internalType": "enum RockPaperScissors.Moves",
              "name": "move",
              "type": "uint8"
            },
            {
              "internalType": "bool",
              "name": "registered",
              "type": "bool"
            }
          ],
          "internalType": "struct RockPaperScissors.PlayerMove",
          "name": "",
          "type": "tuple"
        }
      ],
      "stateMutability": "view",
      "type": "function",
      "constant": true
    },
    {
      "inputs": [
        {
          "internalType": "uint256",
          "name": "gameId",
          "type": "uint256"
        }
      ],
      "name": "getPlayers",
      "outputs": [
        {
          "internalType": "address[]",
          "name": "",
          "type": "address[]"
        }
      ],
      "stateMutability": "view",
      "type": "function",
      "constant": true
    }
  ],
  "bytecode": "0x608060405260016003553480156200001657600080fd5b5060405162003cb238038062003cb283398181016040528101906200003c919062000393565b6000600260006101000a81548160ff02191690831515021790555080600460006101000a81548173ffffffffffffffffffffffffffffffffffffffff021916908373ffffffffffffffffffffffffffffffffffffffff160217905550620000ad6000801b33620000e660201b60201c565b620000df7f65d7a28e3265b37a6474929f336521b332c1681b933f6cb9f3376673440d862a33620000e660201b60201c565b5062000421565b620000fd82826200012e60201b62001bf01760201c565b6200012981600160008581526020019081526020016000206200014460201b62001bfe1790919060201c565b505050565b6200014082826200017c60201b60201c565b5050565b600062000174836000018373ffffffffffffffffffffffffffffffffffffffff1660001b6200026d60201b60201c565b905092915050565b6200018e8282620002e760201b60201c565b6200026957600160008084815260200190815260200160002060000160008373ffffffffffffffffffffffffffffffffffffffff1673ffffffffffffffffffffffffffffffffffffffff16815260200190815260200160002060006101000a81548160ff0219169083151502179055506200020e6200035160201b60201c565b73ffffffffffffffffffffffffffffffffffffffff168173ffffffffffffffffffffffffffffffffffffffff16837f2f8788117e7eff1d82e926ec794901d17c78024a50270940304540a733656f0d60405160405180910390a45b5050565b60006200028183836200035960201b60201c565b620002dc578260000182908060018154018082558091505060019003906000526020600020016000909190919091505582600001805490508360010160008481526020019081526020016000208190555060019050620002e1565b600090505b92915050565b600080600084815260200190815260200160002060000160008373ffffffffffffffffffffffffffffffffffffffff1673ffffffffffffffffffffffffffffffffffffffff16815260200190815260200160002060009054906101000a900460ff16905092915050565b600033905090565b600080836001016000848152602001908152602001600020541415905092915050565b6000815190506200038d8162000407565b92915050565b600060208284031215620003a657600080fd5b6000620003b6848285016200037c565b91505092915050565b6000620003cc82620003e7565b9050919050565b6000620003e082620003bf565b9050919050565b600073ffffffffffffffffffffffffffffffffffffffff82169050919050565b6200041281620003d3565b81146200041e57600080fd5b50565b61388180620004316000396000f3fe608060405234801561001057600080fd5b506004361061012c5760003560e01c80635c975abb116100ad578063a217fddf11610071578063a217fddf14610358578063ca15c87314610376578063d547741f146103a6578063e63ab1e9146103c2578063f2f03877146103e05761012c565b80635c975abb146102a05780635f152a62146102be5780638456cb59146102ee5780639010d07c146102f857806391d14854146103285761012c565b80632f2ff15d116100f45780632f2ff15d146101fe5780632fa4548b1461021a57806336568abe1461024a5780633f4ba83a14610266578063460e2049146102705761012c565b806301ffc9a714610131578063061f4de414610161578063117a5b901461017f5780631aa3a008146101b0578063248a9ca3146101ce575b600080fd5b61014b60048036038101906101469190612cce565b610410565b60405161015891906132c8565b60405180910390f35b61016961048a565b604051610176919061341b565b60405180910390f35b61019960048036038101906101949190612cf7565b610490565b6040516101a792919061322b565b60405180910390f35b6101b86104e1565b6040516101c5919061341b565b60405180910390f35b6101e860048036038101906101e39190612c2d565b610820565b6040516101f591906132e3565b60405180910390f35b61021860048036038101906102139190612c56565b61083f565b005b610234600480360381019061022f9190612d5c565b610873565b60405161024191906132c8565b60405180910390f35b610264600480360381019061025f9190612c56565b611315565b005b61026e611349565b005b61028a60048036038101906102859190612cf7565b6113c3565b60405161029791906132a6565b60405180910390f35b6102a861150c565b6040516102b591906132c8565b60405180910390f35b6102d860048036038101906102d39190612cf7565b611523565b6040516102e59190613400565b60405180910390f35b6102f661186d565b005b610312600480360381019061030d9190612c92565b6118e7565b60405161031f9190613210565b60405180910390f35b610342600480360381019061033d9190612c56565b611916565b60405161034f91906132c8565b60405180910390f35b610360611980565b60405161036d91906132e3565b60405180910390f35b610390600480360381019061038b9190612c2d565b611987565b60405161039d919061341b565b60405180910390f35b6103c060048036038101906103bb9190612c56565b6119ab565b005b6103ca6119df565b6040516103d791906132e3565b60405180910390f35b6103fa60048036038101906103f59190612d20565b611a03565b60405161040791906132c8565b60405180910390f35b60007f5a05180f000000000000000000000000000000000000000000000000000000007bffffffffffffffffffffffffffffffffffffffffffffffffffffffff1916827bffffffffffffffffffffffffffffffffffffffffffffffffffffffff19161480610483575061048282611c2e565b5b9050919050565b60035481565b60056020528060005260406000206000915090508060020160009054906101000a900473ffffffffffffffffffffffffffffffffffffffff16908060020160149054906101000a900460ff16905082565b60006104eb61150c565b1561052b576040517f08c379a0000000000000000000000000000000000000000000000000000000008152600401610522906133a0565b60405180910390fd5b60006005600060035481526020019081526020016000209050600281600101805490501015806105a957508060000160003373ffffffffffffffffffffffffffffffffffffffff1673ffffffffffffffffffffffffffffffffffffffff16815260200190815260200160002060010160019054906101000a900460ff165b1561063f5760016003546105bd91906134f7565b6003819055506000600560006003548152602001908152602001600020905060008160020160006101000a81548173ffffffffffffffffffffffffffffffffffffffff021916908373ffffffffffffffffffffffffffffffffffffffff16021790555060008160020160146101000a81548160ff021916908315150217905550505b6000600560006003548152602001908152602001600020905080600101339080600181540180825580915050600190039060005260206000200160009091909190916101000a81548173ffffffffffffffffffffffffffffffffffffffff021916908373ffffffffffffffffffffffffffffffffffffffff16021790555060405180606001604052806000801b81526020016000600381111561070b577f4e487b7100000000000000000000000000000000000000000000000000000000600052602160045260246000fd5b8152602001600115158152508160000160003373ffffffffffffffffffffffffffffffffffffffff1673ffffffffffffffffffffffffffffffffffffffff1681526020019081526020016000206000820151816000015560208201518160010160006101000a81548160ff021916908360038111156107b3577f4e487b7100000000000000000000000000000000000000000000000000000000600052602160045260246000fd5b021790555060408201518160010160016101000a81548160ff0219169083151502179055509050507f324cb0062138d65997c86cd3012489ceb351d602f2f55c7408306e8040c79f3f3360035460405161080e92919061327d565b60405180910390a16003549250505090565b6000806000838152602001908152602001600020600101549050919050565b6108498282611ca8565b61086e8160016000858152602001908152602001600020611bfe90919063ffffffff16565b505050565b600061087d61150c565b156108bd576040517f08c379a00000000000000000000000000000000000000000000000000000000081526004016108b4906133a0565b60405180910390fd5b826005600082815260200190815260200160002060000160003373ffffffffffffffffffffffffffffffffffffffff1673ffffffffffffffffffffffffffffffffffffffff16815260200190815260200160002060010160019054906101000a900460ff16610961576040517f08c379a000000000000000000000000000000000000000000000000000000000815260040161095890613380565b60405180910390fd5b8360006005600083815260200190815260200160002090506000801b816000016000836001016000815481106109c0577f4e487b7100000000000000000000000000000000000000000000000000000000600052603260045260246000fd5b9060005260206000200160009054906101000a900473ffffffffffffffffffffffffffffffffffffffff1673ffffffffffffffffffffffffffffffffffffffff1673ffffffffffffffffffffffffffffffffffffffff1681526020019081526020016000206000015414158015610ae557506000801b81600001600083600101600181548110610a79577f4e487b7100000000000000000000000000000000000000000000000000000000600052603260045260246000fd5b9060005260206000200160009054906101000a900473ffffffffffffffffffffffffffffffffffffffff1673ffffffffffffffffffffffffffffffffffffffff1673ffffffffffffffffffffffffffffffffffffffff1681526020019081526020016000206000015414155b610b24576040517f08c379a0000000000000000000000000000000000000000000000000000000008152600401610b1b906133c0565b60405180910390fd5b60006005600088815260200190815260200160002090508060020160149054906101000a900460ff1615610b5c57600094505061130c565b600086604051602001610b6f91906131bf565b6040516020818303038152906040528051906020012090506000610b9288611cd1565b905060006003811115610bce577f4e487b7100000000000000000000000000000000000000000000000000000000600052602160045260246000fd5b816003811115610c07577f4e487b7100000000000000000000000000000000000000000000000000000000600052602160045260246000fd5b1415610c19576000965050505061130c565b818360000160003373ffffffffffffffffffffffffffffffffffffffff1673ffffffffffffffffffffffffffffffffffffffff1681526020019081526020016000206000015414610c70576000965050505061130c565b808360000160003373ffffffffffffffffffffffffffffffffffffffff1673ffffffffffffffffffffffffffffffffffffffff16815260200190815260200160002060010160006101000a81548160ff02191690836003811115610cfd577f4e487b7100000000000000000000000000000000000000000000000000000000600052602160045260246000fd5b02179055507ff7bddf1d0b83b2c5abf9e1570cc4f5e462865216c066867b59ed1d05a140fc25338a604051610d3392919061327d565b60405180910390a1600083600001600085600101600081548110610d80577f4e487b7100000000000000000000000000000000000000000000000000000000600052603260045260246000fd5b9060005260206000200160009054906101000a900473ffffffffffffffffffffffffffffffffffffffff1673ffffffffffffffffffffffffffffffffffffffff1673ffffffffffffffffffffffffffffffffffffffff16815260200190815260200160002060010160009054906101000a900460ff169050600084600001600086600101600181548110610e3d577f4e487b7100000000000000000000000000000000000000000000000000000000600052603260045260246000fd5b9060005260206000200160009054906101000a900473ffffffffffffffffffffffffffffffffffffffff1673ffffffffffffffffffffffffffffffffffffffff1673ffffffffffffffffffffffffffffffffffffffff16815260200190815260200160002060010160009054906101000a900460ff16905060006003811115610eef577f4e487b7100000000000000000000000000000000000000000000000000000000600052602160045260246000fd5b826003811115610f28577f4e487b7100000000000000000000000000000000000000000000000000000000600052602160045260246000fd5b14158015610fa7575060006003811115610f6b577f4e487b7100000000000000000000000000000000000000000000000000000000600052602160045260246000fd5b816003811115610fa4577f4e487b7100000000000000000000000000000000000000000000000000000000600052602160045260246000fd5b14155b156113025760018560020160146101000a81548160ff021916908315150217905550806003811115611002577f4e487b7100000000000000000000000000000000000000000000000000000000600052602160045260246000fd5b82600381111561103b577f4e487b7100000000000000000000000000000000000000000000000000000000600052602160045260246000fd5b1415611086577f4a08cf13c7203fa768acdfaf086e73d97f5f70bc438fd2f9a6c35cb03f3b25c48b604051611070919061341b565b60405180910390a160019850505050505061130c565b6110908282611d87565b1561114457846001016000815481106110d2577f4e487b7100000000000000000000000000000000000000000000000000000000600052603260045260246000fd5b9060005260206000200160009054906101000a900473ffffffffffffffffffffffffffffffffffffffff168560020160006101000a81548173ffffffffffffffffffffffffffffffffffffffff021916908373ffffffffffffffffffffffffffffffffffffffff1602179055506111ef565b84600101600181548110611181577f4e487b7100000000000000000000000000000000000000000000000000000000600052603260045260246000fd5b9060005260206000200160009054906101000a900473ffffffffffffffffffffffffffffffffffffffff168560020160006101000a81548173ffffffffffffffffffffffffffffffffffffffff021916908373ffffffffffffffffffffffffffffffffffffffff1602179055505b7fd95406dab69c42cef3161ee146f91b944c3a41020b0c78f1ec532f1dce196c9e8560020160009054906101000a900473ffffffffffffffffffffffffffffffffffffffff168c60405161124492919061327d565b60405180910390a1600460009054906101000a900473ffffffffffffffffffffffffffffffffffffffff1673ffffffffffffffffffffffffffffffffffffffff166340c10f198660020160009054906101000a900473ffffffffffffffffffffffffffffffffffffffff166103e86040518363ffffffff1660e01b81526004016112cf929190613254565b600060405180830381600087803b1580156112e957600080fd5b505af11580156112fd573d6000803e3d6000fd5b505050505b6001985050505050505b50505092915050565b61131f828261207e565b611344816001600085815260200190815260200160002061210190919063ffffffff16565b505050565b61137a7f65d7a28e3265b37a6474929f336521b332c1681b933f6cb9f3376673440d862a611375612131565b611916565b6113b9576040517f08c379a00000000000000000000000000000000000000000000000000000000081526004016113b090613360565b60405180910390fd5b6113c1612139565b565b6060816005600082815260200190815260200160002060000160003373ffffffffffffffffffffffffffffffffffffffff1673ffffffffffffffffffffffffffffffffffffffff16815260200190815260200160002060010160019054906101000a900460ff16611469576040517f08c379a000000000000000000000000000000000000000000000000000000000815260040161146090613380565b60405180910390fd5b600560008481526020019081526020016000206001018054806020026020016040519081016040528092919081815260200182805480156114ff57602002820191906000526020600020905b8160009054906101000a900473ffffffffffffffffffffffffffffffffffffffff1673ffffffffffffffffffffffffffffffffffffffff16815260200190600101908083116114b5575b5050505050915050919050565b6000600260009054906101000a900460ff16905090565b61152b612b13565b816005600082815260200190815260200160002060000160003373ffffffffffffffffffffffffffffffffffffffff1673ffffffffffffffffffffffffffffffffffffffff16815260200190815260200160002060010160019054906101000a900460ff166115cf576040517f08c379a00000000000000000000000000000000000000000000000000000000081526004016115c690613380565b60405180910390fd5b6000600560008581526020019081526020016000209050600060018260010180549050111561176b573373ffffffffffffffffffffffffffffffffffffffff168260010160008154811061164c577f4e487b7100000000000000000000000000000000000000000000000000000000600052603260045260246000fd5b9060005260206000200160009054906101000a900473ffffffffffffffffffffffffffffffffffffffff1673ffffffffffffffffffffffffffffffffffffffff16146116ff57816001016000815481106116cf577f4e487b7100000000000000000000000000000000000000000000000000000000600052603260045260246000fd5b9060005260206000200160009054906101000a900473ffffffffffffffffffffffffffffffffffffffff16611768565b8160010160018154811061173c577f4e487b7100000000000000000000000000000000000000000000000000000000600052603260045260246000fd5b9060005260206000200160009054906101000a900473ffffffffffffffffffffffffffffffffffffffff165b90505b8160000160008273ffffffffffffffffffffffffffffffffffffffff1673ffffffffffffffffffffffffffffffffffffffff168152602001908152602001600020604051806060016040529081600082015481526020016001820160009054906101000a900460ff16600381111561180c577f4e487b7100000000000000000000000000000000000000000000000000000000600052602160045260246000fd5b6003811115611844577f4e487b7100000000000000000000000000000000000000000000000000000000600052602160045260246000fd5b81526020016001820160019054906101000a900460ff1615151515815250509350505050919050565b61189e7f65d7a28e3265b37a6474929f336521b332c1681b933f6cb9f3376673440d862a611899612131565b611916565b6118dd576040517f08c379a00000000000000000000000000000000000000000000000000000000081526004016118d490613360565b60405180910390fd5b6118e56121db565b565b600061190e826001600086815260200190815260200160002061227e90919063ffffffff16565b905092915050565b600080600084815260200190815260200160002060000160008373ffffffffffffffffffffffffffffffffffffffff1673ffffffffffffffffffffffffffffffffffffffff16815260200190815260200160002060009054906101000a900460ff16905092915050565b6000801b81565b60006119a460016000848152602001908152602001600020612298565b9050919050565b6119b582826122ad565b6119da816001600085815260200190815260200160002061210190919063ffffffff16565b505050565b7f65d7a28e3265b37a6474929f336521b332c1681b933f6cb9f3376673440d862a81565b6000611a0d61150c565b15611a4d576040517f08c379a0000000000000000000000000000000000000000000000000000000008152600401611a44906133a0565b60405180910390fd5b826005600082815260200190815260200160002060000160003373ffffffffffffffffffffffffffffffffffffffff1673ffffffffffffffffffffffffffffffffffffffff16815260200190815260200160002060010160019054906101000a900460ff16611af1576040517f08c379a0000000000000000000000000000000000000000000000000000000008152600401611ae890613380565b60405180910390fd5b60006005600086815260200190815260200160002090506000801b8160000160003373ffffffffffffffffffffffffffffffffffffffff1673ffffffffffffffffffffffffffffffffffffffff168152602001908152602001600020600001541415611be357838160000160003373ffffffffffffffffffffffffffffffffffffffff1673ffffffffffffffffffffffffffffffffffffffff168152602001908152602001600020600001819055507f6c2cfdaa8e96e4d8f50bf459a3aa7e5b3c55e52e16e24412aca144a7d89535403386604051611bd192919061327d565b60405180910390a16001925050611be9565b60009250505b5092915050565b611bfa82826122d6565b5050565b6000611c26836000018373ffffffffffffffffffffffffffffffffffffffff1660001b6123b6565b905092915050565b60007f7965db0b000000000000000000000000000000000000000000000000000000007bffffffffffffffffffffffffffffffffffffffffffffffffffffffff1916827bffffffffffffffffffffffffffffffffffffffffffffffffffffffff19161480611ca15750611ca082612426565b5b9050919050565b611cb182610820565b611cc281611cbd612131565b612490565b611ccc83836122d6565b505050565b600080603083600081518110611d10577f4e487b7100000000000000000000000000000000000000000000000000000000600052603260045260246000fd5b602001015160f81c60f81b60f81c611d2891906135db565b60ff1690506003811180611d3c5750600081105b15611d4657600090505b806003811115611d7f577f4e487b7100000000000000000000000000000000000000000000000000000000600052602160045260246000fd5b915050919050565b600060016003811115611dc3577f4e487b7100000000000000000000000000000000000000000000000000000000600052602160045260246000fd5b836003811115611dfc577f4e487b7100000000000000000000000000000000000000000000000000000000600052602160045260246000fd5b148015611e785750600380811115611e3d577f4e487b7100000000000000000000000000000000000000000000000000000000600052602160045260246000fd5b826003811115611e76577f4e487b7100000000000000000000000000000000000000000000000000000000600052602160045260246000fd5b145b80611f6e5750600380811115611eb7577f4e487b7100000000000000000000000000000000000000000000000000000000600052602160045260246000fd5b836003811115611ef0577f4e487b7100000000000000000000000000000000000000000000000000000000600052602160045260246000fd5b148015611f6d575060026003811115611f32577f4e487b7100000000000000000000000000000000000000000000000000000000600052602160045260246000fd5b826003811115611f6b577f4e487b7100000000000000000000000000000000000000000000000000000000600052602160045260246000fd5b145b5b80612065575060026003811115611fae577f4e487b7100000000000000000000000000000000000000000000000000000000600052602160045260246000fd5b836003811115611fe7577f4e487b7100000000000000000000000000000000000000000000000000000000600052602160045260246000fd5b148015612064575060016003811115612029577f4e487b7100000000000000000000000000000000000000000000000000000000600052602160045260246000fd5b826003811115612062577f4e487b7100000000000000000000000000000000000000000000000000000000600052602160045260246000fd5b145b5b156120735760019050612078565b600090505b92915050565b612086612131565b73ffffffffffffffffffffffffffffffffffffffff168173ffffffffffffffffffffffffffffffffffffffff16146120f3576040517f08c379a00000000000000000000000000000000000000000000000000000000081526004016120ea906133e0565b60405180910390fd5b6120fd828261252d565b5050565b6000612129836000018373ffffffffffffffffffffffffffffffffffffffff1660001b61260e565b905092915050565b600033905090565b61214161150c565b612180576040517f08c379a000000000000000000000000000000000000000000000000000000000815260040161217790613340565b60405180910390fd5b6000600260006101000a81548160ff0219169083151502179055507f5db9ee0a495bf2e6ff9c91a7834c1ba4fdd244a5e8aa4e537bd38aeae4b073aa6121c4612131565b6040516121d19190613210565b60405180910390a1565b6121e361150c565b15612223576040517f08c379a000000000000000000000000000000000000000000000000000000000815260040161221a906133a0565b60405180910390fd5b6001600260006101000a81548160ff0219169083151502179055507f62e78cea01bee320cd4e420270b5ea74000d11b0c9f74754ebdbfc544b05a258612267612131565b6040516122749190613210565b60405180910390a1565b600061228d8360000183612794565b60001c905092915050565b60006122a6826000016127e5565b9050919050565b6122b682610820565b6122c7816122c2612131565b612490565b6122d1838361252d565b505050565b6122e08282611916565b6123b257600160008084815260200190815260200160002060000160008373ffffffffffffffffffffffffffffffffffffffff1673ffffffffffffffffffffffffffffffffffffffff16815260200190815260200160002060006101000a81548160ff021916908315150217905550612357612131565b73ffffffffffffffffffffffffffffffffffffffff168173ffffffffffffffffffffffffffffffffffffffff16837f2f8788117e7eff1d82e926ec794901d17c78024a50270940304540a733656f0d60405160405180910390a45b5050565b60006123c283836127f6565b61241b578260000182908060018154018082558091505060019003906000526020600020016000909190919091505582600001805490508360010160008481526020019081526020016000208190555060019050612420565b600090505b92915050565b60007f01ffc9a7000000000000000000000000000000000000000000000000000000007bffffffffffffffffffffffffffffffffffffffffffffffffffffffff1916827bffffffffffffffffffffffffffffffffffffffffffffffffffffffff1916149050919050565b61249a8282611916565b612529576124bf8173ffffffffffffffffffffffffffffffffffffffff166014612819565b6124cd8360001c6020612819565b6040516020016124de9291906131d6565b6040516020818303038152906040526040517f08c379a000000000000000000000000000000000000000000000000000000000815260040161252091906132fe565b60405180910390fd5b5050565b6125378282611916565b1561260a57600080600084815260200190815260200160002060000160008373ffffffffffffffffffffffffffffffffffffffff1673ffffffffffffffffffffffffffffffffffffffff16815260200190815260200160002060006101000a81548160ff0219169083151502179055506125af612131565b73ffffffffffffffffffffffffffffffffffffffff168173ffffffffffffffffffffffffffffffffffffffff16837ff6391f5c32d9c69d2a47ea670b442974b53935d1edc7fd64eb21e047a839171b60405160405180910390a45b5050565b6000808360010160008481526020019081526020016000205490506000811461278857600060018261264091906135a7565b905060006001866000018054905061265891906135a7565b905081811461271357600086600001828154811061269f577f4e487b7100000000000000000000000000000000000000000000000000000000600052603260045260246000fd5b90600052602060002001549050808760000184815481106126e9577f4e487b7100000000000000000000000000000000000000000000000000000000600052603260045260246000fd5b90600052602060002001819055508387600101600083815260200190815260200160002081905550505b8560000180548061274d577f4e487b7100000000000000000000000000000000000000000000000000000000600052603160045260246000fd5b60019003818190600052602060002001600090559055856001016000868152602001908152602001600020600090556001935050505061278e565b60009150505b92915050565b60008260000182815481106127d2577f4e487b7100000000000000000000000000000000000000000000000000000000600052603260045260246000fd5b9060005260206000200154905092915050565b600081600001805490509050919050565b600080836001016000848152602001908152602001600020541415905092915050565b60606000600283600261282c919061354d565b61283691906134f7565b67ffffffffffffffff811115612875577f4e487b7100000000000000000000000000000000000000000000000000000000600052604160045260246000fd5b6040519080825280601f01601f1916602001820160405280156128a75781602001600182028036833780820191505090505b5090507f300000000000000000000000000000000000000000000000000000000000000081600081518110612905577f4e487b7100000000000000000000000000000000000000000000000000000000600052603260045260246000fd5b60200101907effffffffffffffffffffffffffffffffffffffffffffffffffffffffffffff1916908160001a9053507f78000000000000000000000000000000000000000000000000000000000000008160018151811061298f577f4e487b7100000000000000000000000000000000000000000000000000000000600052603260045260246000fd5b60200101907effffffffffffffffffffffffffffffffffffffffffffffffffffffffffffff1916908160001a905350600060018460026129cf919061354d565b6129d991906134f7565b90505b6001811115612ac5577f3031323334353637383961626364656600000000000000000000000000000000600f861660108110612a41577f4e487b7100000000000000000000000000000000000000000000000000000000600052603260045260246000fd5b1a60f81b828281518110612a7e577f4e487b7100000000000000000000000000000000000000000000000000000000600052603260045260246000fd5b60200101907effffffffffffffffffffffffffffffffffffffffffffffffffffffffffffff1916908160001a905350600485901c945080612abe90613713565b90506129dc565b5060008414612b09576040517f08c379a0000000000000000000000000000000000000000000000000000000008152600401612b0090613320565b60405180910390fd5b8091505092915050565b60405180606001604052806000801916815260200160006003811115612b62577f4e487b7100000000000000000000000000000000000000000000000000000000600052602160045260246000fd5b81526020016000151581525090565b6000612b84612b7f84613467565b613436565b905082815260208101848484011115612b9c57600080fd5b612ba78482856136d1565b509392505050565b600081359050612bbe816137ef565b92915050565b600081359050612bd381613806565b92915050565b600081359050612be88161381d565b92915050565b600082601f830112612bff57600080fd5b8135612c0f848260208601612b71565b91505092915050565b600081359050612c2781613834565b92915050565b600060208284031215612c3f57600080fd5b6000612c4d84828501612bc4565b91505092915050565b60008060408385031215612c6957600080fd5b6000612c7785828601612bc4565b9250506020612c8885828601612baf565b9150509250929050565b60008060408385031215612ca557600080fd5b6000612cb385828601612bc4565b9250506020612cc485828601612c18565b9150509250929050565b600060208284031215612ce057600080fd5b6000612cee84828501612bd9565b91505092915050565b600060208284031215612d0957600080fd5b6000612d1784828501612c18565b91505092915050565b60008060408385031215612d3357600080fd5b6000612d4185828601612c18565b9250506020612d5285828601612bc4565b9150509250929050565b60008060408385031215612d6f57600080fd5b6000612d7d85828601612c18565b925050602083013567ffffffffffffffff811115612d9a57600080fd5b612da685828601612bee565b9150509250929050565b6000612dbc8383612dc8565b60208301905092915050565b612dd18161360f565b82525050565b612de08161360f565b82525050565b6000612df1826134a7565b612dfb81856134ca565b9350612e0683613497565b8060005b83811015612e37578151612e1e8882612db0565b9750612e29836134bd565b925050600181019050612e0a565b5085935050505092915050565b612e4d81613621565b82525050565b612e5c81613621565b82525050565b612e6b8161362d565b82525050565b612e7a8161362d565b82525050565b612e89816136ad565b82525050565b612e98816136bf565b82525050565b6000612ea9826134b2565b612eb381856134db565b9350612ec38185602086016136e0565b612ecc816137ca565b840191505092915050565b6000612ee2826134b2565b612eec81856134ec565b9350612efc8185602086016136e0565b80840191505092915050565b6000612f156020836134db565b91507f537472696e67733a20686578206c656e67746820696e73756666696369656e746000830152602082019050919050565b6000612f556014836134db565b91507f5061757361626c653a206e6f74207061757365640000000000000000000000006000830152602082019050919050565b6000612f956015836134db565b91507f6d75737420686176652070617573657220726f6c6500000000000000000000006000830152602082019050919050565b6000612fd56018836134db565b91507f506c61796572206973206e6f74207265676973746572656400000000000000006000830152602082019050919050565b60006130156010836134db565b91507f5061757361626c653a20706175736564000000000000000000000000000000006000830152602082019050919050565b60006130556017836134ec565b91507f416363657373436f6e74726f6c3a206163636f756e74200000000000000000006000830152601782019050919050565b6000613095601d836134db565b91507f426f746820706c61796572206d75737420636f6d6d6974206d6f7665730000006000830152602082019050919050565b60006130d56011836134ec565b91507f206973206d697373696e6720726f6c65200000000000000000000000000000006000830152601182019050919050565b6000613115602f836134db565b91507f416363657373436f6e74726f6c3a2063616e206f6e6c792072656e6f756e636560008301527f20726f6c657320666f722073656c6600000000000000000000000000000000006020830152604082019050919050565b6060820160008201516131846000850182612e62565b5060208201516131976020850182612e80565b5060408201516131aa6040850182612e44565b50505050565b6131b981613696565b82525050565b60006131cb8284612ed7565b915081905092915050565b60006131e182613048565b91506131ed8285612ed7565b91506131f8826130c8565b91506132048284612ed7565b91508190509392505050565b60006020820190506132256000830184612dd7565b92915050565b60006040820190506132406000830185612dd7565b61324d6020830184612e53565b9392505050565b60006040820190506132696000830185612dd7565b6132766020830184612e8f565b9392505050565b60006040820190506132926000830185612dd7565b61329f60208301846131b0565b9392505050565b600060208201905081810360008301526132c08184612de6565b905092915050565b60006020820190506132dd6000830184612e53565b92915050565b60006020820190506132f86000830184612e71565b92915050565b600060208201905081810360008301526133188184612e9e565b905092915050565b6000602082019050818103600083015261333981612f08565b9050919050565b6000602082019050818103600083015261335981612f48565b9050919050565b6000602082019050818103600083015261337981612f88565b9050919050565b6000602082019050818103600083015261339981612fc8565b9050919050565b600060208201905081810360008301526133b981613008565b9050919050565b600060208201905081810360008301526133d981613088565b9050919050565b600060208201905081810360008301526133f981613108565b9050919050565b6000606082019050613415600083018461316e565b92915050565b600060208201905061343060008301846131b0565b92915050565b6000604051905081810181811067ffffffffffffffff8211171561345d5761345c61379b565b5b8060405250919050565b600067ffffffffffffffff8211156134825761348161379b565b5b601f19601f8301169050602081019050919050565b6000819050602082019050919050565b600081519050919050565b600081519050919050565b6000602082019050919050565b600082825260208201905092915050565b600082825260208201905092915050565b600081905092915050565b600061350282613696565b915061350d83613696565b9250827fffffffffffffffffffffffffffffffffffffffffffffffffffffffffffffffff038211156135425761354161373d565b5b828201905092915050565b600061355882613696565b915061356383613696565b9250817fffffffffffffffffffffffffffffffffffffffffffffffffffffffffffffffff048311821515161561359c5761359b61373d565b5b828202905092915050565b60006135b282613696565b91506135bd83613696565b9250828210156135d0576135cf61373d565b5b828203905092915050565b60006135e6826136a0565b91506135f1836136a0565b9250828210156136045761360361373d565b5b828203905092915050565b600061361a82613676565b9050919050565b60008115159050919050565b6000819050919050565b60007fffffffff0000000000000000000000000000000000000000000000000000000082169050919050565b6000819050613671826137db565b919050565b600073ffffffffffffffffffffffffffffffffffffffff82169050919050565b6000819050919050565b600060ff82169050919050565b60006136b882613663565b9050919050565b60006136ca82613696565b9050919050565b82818337600083830152505050565b60005b838110156136fe5780820151818401526020810190506136e3565b8381111561370d576000848401525b50505050565b600061371e82613696565b915060008214156137325761373161373d565b5b600182039050919050565b7f4e487b7100000000000000000000000000000000000000000000000000000000600052601160045260246000fd5b7f4e487b7100000000000000000000000000000000000000000000000000000000600052602160045260246000fd5b7f4e487b7100000000000000000000000000000000000000000000000000000000600052604160045260246000fd5b6000601f19601f8301169050919050565b600481106137ec576137eb61376c565b5b50565b6137f88161360f565b811461380357600080fd5b50565b61380f8161362d565b811461381a57600080fd5b50565b61382681613637565b811461383157600080fd5b50565b61383d81613696565b811461384857600080fd5b5056fea264697066735822122029fb8101213f3c1a49818ad685554890976c34d41a21f6a9c1d19e4a8686ac8664736f6c63430008000033",
  "immutableReferences": {},
  "source": "// SPDX-License-Identifier: MIT\r\npragma solidity 0.8.0;\r\n\r\nimport \"@openzeppelin/contracts/security/Pausable.sol\";\r\nimport \"@openzeppelin/contracts/access/AccessControlEnumerable.sol\";\r\nimport \"./GameToken.sol\";\r\n\r\ncontract RockPaperScissors is AccessControlEnumerable, Pausable {\r\n  bytes32 public constant PAUSER_ROLE = keccak256(\"PAUSER_ROLE\");\r\n\r\n  /// @notice counter that keeps track of number of the games played\r\n  /// @dev used to determine what next gameId should be, start count from 1\r\n  uint public gameIdCount = 1;\r\n\r\n  /// @dev token instance for minting\r\n  GameToken private gameToken;\r\n  \r\n  /// @dev enum that defines allowed move in game with None as defaults\r\n  enum Moves {None, Rock, Paper, Scissors}\r\n\r\n  /// @dev struct that keeps submitted and revealed player move\r\n  struct PlayerMove {\r\n    bytes32 encrMove;\r\n    Moves move;\r\n    bool registered;\r\n  }\r\n\r\n  /// @dev struct that keep track of one game with players, moves and winner\r\n  struct Game { \r\n    mapping(address => PlayerMove) playerMoves;\r\n    address[] players;\r\n    address winner;\r\n    bool finished;\r\n  }\r\n\r\n  /// @notice mapping of games played\r\n  /// @dev keeps list of games with players and submitted moves\r\n  mapping(uint => Game) public games;\r\n\r\n  /// @notice emited when player registers\r\n  /// @dev emited when player registers\r\n  /// @param player address of registered player\r\n  /// @param gameId identifier of a game that player is registered to\r\n  event PlayerRegistered(address player, uint gameId);\r\n\r\n  /// @notice emited when player commits his move\r\n  /// @dev emited when player commits his move\r\n  /// @param player address of player that commited move\r\n  /// @param gameId identifier of a game\r\n  event MoveCommited(address player, uint gameId);\r\n\r\n  /// @notice emited when player reveals his move\r\n  /// @dev emited when player reveals his move\r\n  /// @param player address of player that revealed move\r\n  /// @param gameId identifier of a game\r\n  event MoveRevealed(address player, uint gameId);\r\n\r\n  /// @notice emited when game is drawn\r\n  /// @dev emited when game is drawn\r\n  /// @param gameId identifier of a game\r\n  event GameDrawn(uint gameId);\r\n\r\n  /// @notice emited when game winner is calculated\r\n  /// @dev emited when game winner is calculated\r\n  /// @param player address of player that won\r\n  /// @param gameId identifier of a game\r\n  event GamerWinner(address player, uint gameId);\r\n\r\n  constructor(GameToken _gameToken) {\r\n    gameToken = _gameToken;\r\n\r\n    _setupRole(DEFAULT_ADMIN_ROLE, msg.sender);\r\n    _setupRole(PAUSER_ROLE, msg.sender);\r\n  }\r\n  \r\n  /// @notice Modifier that require Pauser role when user tries to pause/resume contract execution\r\n  /// @dev Modifier used on pause/unpause functions\r\n  modifier pauser() {\r\n    require(hasRole(PAUSER_ROLE, _msgSender()), \"must have pauser role\");\r\n    _;\r\n  }\r\n\r\n  /// @notice pause contact execution\r\n  /// @dev this function will set pause to true in Pausable\r\n  function pause() public pauser() virtual {\r\n    _pause();\r\n  }\r\n\r\n  /// @notice resume contact execution\r\n  /// @dev this function will set pause to false in Pausable\r\n  function unpause() public pauser() virtual {\r\n    _unpause();\r\n  }\r\n  /// @notice resume contact execution\r\n  /// @dev modifier that checks if sender is registered that specific game instance\r\n  modifier isRegistered(uint _gameId) {\r\n    require (games[_gameId].playerMoves[msg.sender].registered, \"Player is not registered\");\r\n    _;\r\n  }\r\n  \r\n  /// @notice modifier function that checks wheter both users commited their moves\r\n  /// @dev check encrMove is not default for both players \r\n  modifier whenMovesCommited(uint _gameId) {\r\n    Game storage current = games[_gameId];\r\n    require(current.playerMoves[current.players[0]].encrMove != 0x0 && \r\n      current.playerMoves[current.players[1]].encrMove != 0x0, \"Both player must commit moves\");\r\n      _;\r\n  }\r\n\r\n  /// @notice Register user that wants to play the game.\r\n  /// @dev register user / pair user to play with player that is waiting or create new game\r\n  /// @return returns game id \r\n  function register() public whenNotPaused() returns(uint) {\r\n    Game storage activeGame = games[gameIdCount];\r\n    if (\r\n      activeGame.players.length >= 2 || \r\n      activeGame.playerMoves[msg.sender].registered\r\n    ) { \r\n      // start new game\r\n      // current game is full or registered player wants to start new game\r\n      gameIdCount = gameIdCount + 1;\r\n      Game storage  newGame = games[gameIdCount];\r\n      newGame.winner = address(0x0);\r\n      newGame.finished = false;\r\n    }\r\n    \r\n    Game storage currentGame = games[gameIdCount];\r\n  \r\n    currentGame.players.push(msg.sender);\r\n    currentGame.playerMoves[msg.sender] = PlayerMove({\r\n      move: Moves.None,\r\n      registered: true,\r\n      encrMove: 0x0\r\n    });\r\n\r\n    emit PlayerRegistered(msg.sender, gameIdCount);\r\n    return gameIdCount;\r\n  }\r\n\r\n  /// @notice player commits move\r\n  /// @dev Explain to a developer any extra details\r\n  /// @param gameId game identifier\r\n  /// @param encrMove encrypted move, first char in encrypted string should corresponds with Moves enum \r\n  /// @return if commit phase was successful.\r\n  function commit(uint gameId, bytes32 encrMove) public whenNotPaused() isRegistered(gameId) returns (bool) {\r\n    Game storage currentGame = games[gameId];\r\n    if (currentGame.playerMoves[msg.sender].encrMove == 0x0) {\r\n      currentGame.playerMoves[msg.sender].encrMove = encrMove;\r\n      emit MoveCommited(msg.sender, gameId);\r\n      return true;\r\n    }\r\n    return false;\r\n  }\r\n\r\n  /// @notice Reveal player move, if both player commited move than calculate \r\n  /// @dev Explain to a developer any extra details\r\n  /// @param gameId game identifier\r\n  /// @param plainMove plain string that was commited in commit phase.\r\n  /// @return boolean whether action was successful\r\n  function reveal(uint gameId, string memory plainMove) public whenNotPaused() isRegistered(gameId) whenMovesCommited(gameId) returns (bool) {\r\n    Game storage currentGame = games[gameId];\r\n    if (currentGame.finished) {\r\n      // game is over\r\n      return false;\r\n    }\r\n    \r\n    bytes32 encrMove = keccak256(abi.encodePacked(plainMove));\r\n    Moves move = getMove(plainMove);\r\n    if (move == Moves.None) {\r\n      return false;\r\n    }\r\n\r\n    if(currentGame.playerMoves[msg.sender].encrMove != encrMove) {\r\n      return false;\r\n    }\r\n\r\n    currentGame.playerMoves[msg.sender].move = move;\r\n    emit MoveRevealed(msg.sender, gameId);\r\n\r\n    Moves movePlayer1 = currentGame.playerMoves[currentGame.players[0]].move;\r\n    Moves movePlayer2 = currentGame.playerMoves[currentGame.players[1]].move;\r\n\r\n    if (movePlayer1 != Moves.None && movePlayer2 != Moves.None) {\r\n      currentGame.finished = true;\r\n      if (movePlayer1 == movePlayer2) {\r\n        // drawn game;\r\n        emit GameDrawn(gameId);\r\n        return true;\r\n      }\r\n\r\n      // game has winner\r\n      if (isWinner(movePlayer1, movePlayer2)) {\r\n        currentGame.winner = currentGame.players[0];\r\n      } else {\r\n        currentGame.winner = currentGame.players[1];\r\n      }\r\n      \r\n      emit GamerWinner(currentGame.winner, gameId);\r\n\r\n      // send transaction to mint token and mint token\r\n      gameToken.mint(currentGame.winner, 1000);\r\n    }\r\n\r\n    return true;\r\n  }\r\n\r\n  /// @notice return game by game id\r\n  /// @dev returns game struct\r\n  /// @param gameId game id to return\r\n  /// @return Game from games storage variable\r\n  function getOpponentMove(uint gameId) public view isRegistered(gameId) returns (PlayerMove memory) {\r\n    Game storage currentGame = games[gameId];\r\n    address opponentAddress = address(0x0);\r\n    if (currentGame.players.length > 1) {\r\n      opponentAddress = currentGame.players[0] == msg.sender ? currentGame.players[1] : currentGame.players[0];\r\n    }\r\n\r\n    return currentGame.playerMoves[opponentAddress];\r\n  }\r\n\r\n  /// @notice returns players for gameId\r\n  /// @dev fetch player addresses for gameid\r\n  /// @param gameId game id to return\r\n  /// @return array of address\r\n  function getPlayers(uint gameId) public view isRegistered(gameId) returns (address[] memory) {\r\n    return games[gameId].players;\r\n  }\r\n\r\n  /// @notice get move from submitted string\r\n  /// @dev first char should contain uint and is converted into enum Moves\r\n  /// @param value plain string submitted in reveal phase\r\n  /// @return Moves enum\r\n  function getMove(string memory value) private pure returns (Moves) {\r\n    uint moveValue = uint(uint8((bytes(value)[0])) - 48);\r\n    if (moveValue > 3 || moveValue < 0) moveValue = 0;\r\n\r\n    return Moves(moveValue);\r\n  }\r\n\r\n  /// @notice Check if first param move is winning move\r\n  /// @dev it only checks cases when move1 is winning move, other returns false (even if it's drawn)\r\n  /// @param move1 move submitted by one of the player\r\n  /// @param move2 move submitted by other player\r\n  /// @return true if is move1 is winning move\r\n  function isWinner(Moves move1, Moves move2) private pure returns (bool) {\r\n    if ((move1 == Moves.Rock && move2 == Moves.Scissors) || \r\n        (move1 == Moves.Scissors && move2 == Moves.Paper) ||\r\n        (move1 == Moves.Paper && move2 == Moves.Rock)\r\n    ) {\r\n      return true;\r\n    } \r\n\r\n    return false;\r\n  }\r\n}\r\n",
  "sourcePath": "/d/projects/ConsenSys/boot camp/blockchain-boot-camp/contracts/RockPaperScissors.sol",
  "compiler": {
    "name": "solc",
    "version": "0.8.0+commit.c7dfd78e.Emscripten.clang"
  },
  "schemaVersion": "3.4.3",
  "updatedAt": "2021-11-24T22:06:43.751Z",
  "networkType": "ethereum",
  "devdoc": {
    "events": {
      "GameDrawn(uint256)": {
        "details": "emited when game is drawn",
        "params": {
          "gameId": "identifier of a game"
        }
      },
      "GamerWinner(address,uint256)": {
        "details": "emited when game winner is calculated",
        "params": {
          "gameId": "identifier of a game",
          "player": "address of player that won"
        }
      },
      "MoveCommited(address,uint256)": {
        "details": "emited when player commits his move",
        "params": {
          "gameId": "identifier of a game",
          "player": "address of player that commited move"
        }
      },
      "MoveRevealed(address,uint256)": {
        "details": "emited when player reveals his move",
        "params": {
          "gameId": "identifier of a game",
          "player": "address of player that revealed move"
        }
      },
      "PlayerRegistered(address,uint256)": {
        "details": "emited when player registers",
        "params": {
          "gameId": "identifier of a game that player is registered to",
          "player": "address of registered player"
        }
      }
    },
    "kind": "dev",
    "methods": {
      "commit(uint256,bytes32)": {
        "details": "Explain to a developer any extra details",
        "params": {
          "encrMove": "encrypted move, first char in encrypted string should corresponds with Moves enum ",
          "gameId": "game identifier"
        },
        "returns": {
          "_0": "if commit phase was successful."
        }
      },
      "getOpponentMove(uint256)": {
        "details": "returns game struct",
        "params": {
          "gameId": "game id to return"
        },
        "returns": {
          "_0": "Game from games storage variable"
        }
      },
      "getPlayers(uint256)": {
        "details": "fetch player addresses for gameid",
        "params": {
          "gameId": "game id to return"
        },
        "returns": {
          "_0": "array of address"
        }
      },
      "getRoleAdmin(bytes32)": {
        "details": "Returns the admin role that controls `role`. See {grantRole} and {revokeRole}. To change a role's admin, use {_setRoleAdmin}."
      },
      "getRoleMember(bytes32,uint256)": {
        "details": "Returns one of the accounts that have `role`. `index` must be a value between 0 and {getRoleMemberCount}, non-inclusive. Role bearers are not sorted in any particular way, and their ordering may change at any point. WARNING: When using {getRoleMember} and {getRoleMemberCount}, make sure you perform all queries on the same block. See the following https://forum.openzeppelin.com/t/iterating-over-elements-on-enumerableset-in-openzeppelin-contracts/2296[forum post] for more information."
      },
      "getRoleMemberCount(bytes32)": {
        "details": "Returns the number of accounts that have `role`. Can be used together with {getRoleMember} to enumerate all bearers of a role."
      },
      "grantRole(bytes32,address)": {
        "details": "Overload {grantRole} to track enumerable memberships"
      },
      "hasRole(bytes32,address)": {
        "details": "Returns `true` if `account` has been granted `role`."
      },
      "pause()": {
        "details": "this function will set pause to true in Pausable"
      },
      "paused()": {
        "details": "Returns true if the contract is paused, and false otherwise."
      },
      "register()": {
        "details": "register user / pair user to play with player that is waiting or create new game",
        "returns": {
          "_0": "returns game id "
        }
      },
      "renounceRole(bytes32,address)": {
        "details": "Overload {renounceRole} to track enumerable memberships"
      },
      "reveal(uint256,string)": {
        "details": "Explain to a developer any extra details",
        "params": {
          "gameId": "game identifier",
          "plainMove": "plain string that was commited in commit phase."
        },
        "returns": {
          "_0": "boolean whether action was successful"
        }
      },
      "revokeRole(bytes32,address)": {
        "details": "Overload {revokeRole} to track enumerable memberships"
      },
      "supportsInterface(bytes4)": {
        "details": "See {IERC165-supportsInterface}."
      },
      "unpause()": {
        "details": "this function will set pause to false in Pausable"
      }
    },
    "stateVariables": {
      "gameIdCount": {
        "details": "used to determine what next gameId should be, start count from 1"
      },
      "gameToken": {
        "details": "token instance for minting"
      },
      "games": {
        "details": "keeps list of games with players and submitted moves"
      }
    },
    "version": 1
  },
  "userdoc": {
    "events": {
      "GameDrawn(uint256)": {
        "notice": "emited when game is drawn"
      },
      "GamerWinner(address,uint256)": {
        "notice": "emited when game winner is calculated"
      },
      "MoveCommited(address,uint256)": {
        "notice": "emited when player commits his move"
      },
      "MoveRevealed(address,uint256)": {
        "notice": "emited when player reveals his move"
      },
      "PlayerRegistered(address,uint256)": {
        "notice": "emited when player registers"
      }
    },
    "kind": "user",
    "methods": {
      "commit(uint256,bytes32)": {
        "notice": "player commits move"
      },
      "gameIdCount()": {
        "notice": "counter that keeps track of number of the games played"
      },
      "games(uint256)": {
        "notice": "mapping of games played"
      },
      "getOpponentMove(uint256)": {
        "notice": "return game by game id"
      },
      "getPlayers(uint256)": {
        "notice": "returns players for gameId"
      },
      "pause()": {
        "notice": "pause contact execution"
      },
      "register()": {
        "notice": "Register user that wants to play the game."
      },
      "reveal(uint256,string)": {
        "notice": "Reveal player move, if both player commited move than calculate "
      },
      "unpause()": {
        "notice": "resume contact execution"
      }
    },
    "version": 1
  }
}