{
  "contractName": "RockPaperScissors",
  "abi": [
    {
      "inputs": [
        {
          "internalType": "contract GameToken",
          "name": "_gameToken",
          "type": "address"
        }
      ],
      "stateMutability": "nonpayable",
      "type": "constructor"
    },
    {
      "anonymous": false,
      "inputs": [
        {
          "indexed": false,
          "internalType": "uint256",
          "name": "gameId",
          "type": "uint256"
        }
      ],
      "name": "GameDrawn",
      "type": "event"
    },
    {
      "anonymous": false,
      "inputs": [
        {
          "indexed": false,
          "internalType": "address",
          "name": "player",
          "type": "address"
        },
        {
          "indexed": false,
          "internalType": "uint256",
          "name": "gameId",
          "type": "uint256"
        }
      ],
      "name": "GamerWinner",
      "type": "event"
    },
    {
      "anonymous": false,
      "inputs": [
        {
          "indexed": false,
          "internalType": "address",
          "name": "player",
          "type": "address"
        },
        {
          "indexed": false,
          "internalType": "uint256",
          "name": "gameId",
          "type": "uint256"
        }
      ],
      "name": "MoveCommited",
      "type": "event"
    },
    {
      "anonymous": false,
      "inputs": [
        {
          "indexed": false,
          "internalType": "address",
          "name": "player",
          "type": "address"
        },
        {
          "indexed": false,
          "internalType": "uint256",
          "name": "gameId",
          "type": "uint256"
        }
      ],
      "name": "MoveRevealed",
      "type": "event"
    },
    {
      "anonymous": false,
      "inputs": [
        {
          "indexed": false,
          "internalType": "address",
          "name": "account",
          "type": "address"
        }
      ],
      "name": "Paused",
      "type": "event"
    },
    {
      "anonymous": false,
      "inputs": [
        {
          "indexed": false,
          "internalType": "address",
          "name": "player",
          "type": "address"
        },
        {
          "indexed": false,
          "internalType": "uint256",
          "name": "gameId",
          "type": "uint256"
        }
      ],
      "name": "PlayerRegistered",
      "type": "event"
    },
    {
      "anonymous": false,
      "inputs": [
        {
          "indexed": true,
          "internalType": "bytes32",
          "name": "role",
          "type": "bytes32"
        },
        {
          "indexed": true,
          "internalType": "bytes32",
          "name": "previousAdminRole",
          "type": "bytes32"
        },
        {
          "indexed": true,
          "internalType": "bytes32",
          "name": "newAdminRole",
          "type": "bytes32"
        }
      ],
      "name": "RoleAdminChanged",
      "type": "event"
    },
    {
      "anonymous": false,
      "inputs": [
        {
          "indexed": true,
          "internalType": "bytes32",
          "name": "role",
          "type": "bytes32"
        },
        {
          "indexed": true,
          "internalType": "address",
          "name": "account",
          "type": "address"
        },
        {
          "indexed": true,
          "internalType": "address",
          "name": "sender",
          "type": "address"
        }
      ],
      "name": "RoleGranted",
      "type": "event"
    },
    {
      "anonymous": false,
      "inputs": [
        {
          "indexed": true,
          "internalType": "bytes32",
          "name": "role",
          "type": "bytes32"
        },
        {
          "indexed": true,
          "internalType": "address",
          "name": "account",
          "type": "address"
        },
        {
          "indexed": true,
          "internalType": "address",
          "name": "sender",
          "type": "address"
        }
      ],
      "name": "RoleRevoked",
      "type": "event"
    },
    {
      "anonymous": false,
      "inputs": [
        {
          "indexed": false,
          "internalType": "address",
          "name": "account",
          "type": "address"
        }
      ],
      "name": "Unpaused",
      "type": "event"
    },
    {
      "inputs": [],
      "name": "DEFAULT_ADMIN_ROLE",
      "outputs": [
        {
          "internalType": "bytes32",
          "name": "",
          "type": "bytes32"
        }
      ],
      "stateMutability": "view",
      "type": "function"
    },
    {
      "inputs": [],
      "name": "PAUSER_ROLE",
      "outputs": [
        {
          "internalType": "bytes32",
          "name": "",
          "type": "bytes32"
        }
      ],
      "stateMutability": "view",
      "type": "function"
    },
    {
      "inputs": [],
      "name": "gameIdCount",
      "outputs": [
        {
          "internalType": "uint256",
          "name": "",
          "type": "uint256"
        }
      ],
      "stateMutability": "view",
      "type": "function"
    },
    {
      "inputs": [
        {
          "internalType": "uint256",
          "name": "",
          "type": "uint256"
        }
      ],
      "name": "games",
      "outputs": [
        {
          "internalType": "address",
          "name": "winner",
          "type": "address"
        }
      ],
      "stateMutability": "view",
      "type": "function"
    },
    {
      "inputs": [
        {
          "internalType": "bytes32",
          "name": "role",
          "type": "bytes32"
        }
      ],
      "name": "getRoleAdmin",
      "outputs": [
        {
          "internalType": "bytes32",
          "name": "",
          "type": "bytes32"
        }
      ],
      "stateMutability": "view",
      "type": "function"
    },
    {
      "inputs": [
        {
          "internalType": "bytes32",
          "name": "role",
          "type": "bytes32"
        },
        {
          "internalType": "uint256",
          "name": "index",
          "type": "uint256"
        }
      ],
      "name": "getRoleMember",
      "outputs": [
        {
          "internalType": "address",
          "name": "",
          "type": "address"
        }
      ],
      "stateMutability": "view",
      "type": "function"
    },
    {
      "inputs": [
        {
          "internalType": "bytes32",
          "name": "role",
          "type": "bytes32"
        }
      ],
      "name": "getRoleMemberCount",
      "outputs": [
        {
          "internalType": "uint256",
          "name": "",
          "type": "uint256"
        }
      ],
      "stateMutability": "view",
      "type": "function"
    },
    {
      "inputs": [
        {
          "internalType": "bytes32",
          "name": "role",
          "type": "bytes32"
        },
        {
          "internalType": "address",
          "name": "account",
          "type": "address"
        }
      ],
      "name": "grantRole",
      "outputs": [],
      "stateMutability": "nonpayable",
      "type": "function"
    },
    {
      "inputs": [
        {
          "internalType": "bytes32",
          "name": "role",
          "type": "bytes32"
        },
        {
          "internalType": "address",
          "name": "account",
          "type": "address"
        }
      ],
      "name": "hasRole",
      "outputs": [
        {
          "internalType": "bool",
          "name": "",
          "type": "bool"
        }
      ],
      "stateMutability": "view",
      "type": "function"
    },
    {
      "inputs": [],
      "name": "paused",
      "outputs": [
        {
          "internalType": "bool",
          "name": "",
          "type": "bool"
        }
      ],
      "stateMutability": "view",
      "type": "function"
    },
    {
      "inputs": [
        {
          "internalType": "bytes32",
          "name": "role",
          "type": "bytes32"
        },
        {
          "internalType": "address",
          "name": "account",
          "type": "address"
        }
      ],
      "name": "renounceRole",
      "outputs": [],
      "stateMutability": "nonpayable",
      "type": "function"
    },
    {
      "inputs": [
        {
          "internalType": "bytes32",
          "name": "role",
          "type": "bytes32"
        },
        {
          "internalType": "address",
          "name": "account",
          "type": "address"
        }
      ],
      "name": "revokeRole",
      "outputs": [],
      "stateMutability": "nonpayable",
      "type": "function"
    },
    {
      "inputs": [
        {
          "internalType": "bytes4",
          "name": "interfaceId",
          "type": "bytes4"
        }
      ],
      "name": "supportsInterface",
      "outputs": [
        {
          "internalType": "bool",
          "name": "",
          "type": "bool"
        }
      ],
      "stateMutability": "view",
      "type": "function"
    },
    {
      "inputs": [],
      "name": "pause",
      "outputs": [],
      "stateMutability": "nonpayable",
      "type": "function"
    },
    {
      "inputs": [],
      "name": "unpause",
      "outputs": [],
      "stateMutability": "nonpayable",
      "type": "function"
    },
    {
      "inputs": [],
      "name": "register",
      "outputs": [
        {
          "internalType": "uint256",
          "name": "",
          "type": "uint256"
        }
      ],
      "stateMutability": "nonpayable",
      "type": "function"
    },
    {
      "inputs": [
        {
          "internalType": "uint256",
          "name": "gameId",
          "type": "uint256"
        },
        {
          "internalType": "bytes32",
          "name": "encrMove",
          "type": "bytes32"
        }
      ],
      "name": "commit",
      "outputs": [
        {
          "internalType": "bool",
          "name": "",
          "type": "bool"
        }
      ],
      "stateMutability": "nonpayable",
      "type": "function"
    },
    {
      "inputs": [
        {
          "internalType": "uint256",
          "name": "gameId",
          "type": "uint256"
        },
        {
          "internalType": "string",
          "name": "plainMove",
          "type": "string"
        }
      ],
      "name": "reveal",
      "outputs": [
        {
          "internalType": "bool",
          "name": "",
          "type": "bool"
        }
      ],
      "stateMutability": "nonpayable",
      "type": "function"
    }
  ],
  "bytecode": "0x608060405260006003553480156200001657600080fd5b50604051620031063803806200310683398181016040528101906200003c9190620003fa565b6000600260006101000a81548160ff02191690831515021790555080600460006101000a81548173ffffffffffffffffffffffffffffffffffffffff021916908373ffffffffffffffffffffffffffffffffffffffff160217905550620000ad6000801b33620000e660201b60201c565b620000df7f65d7a28e3265b37a6474929f336521b332c1681b933f6cb9f3376673440d862a33620000e660201b60201c565b506200042c565b620000fd82826200012e60201b620013dd1760201c565b6200012981600160008581526020019081526020016000206200014460201b620013eb1790919060201c565b505050565b6200014082826200017c60201b60201c565b5050565b600062000174836000018373ffffffffffffffffffffffffffffffffffffffff1660001b6200026d60201b60201c565b905092915050565b6200018e8282620002e760201b60201c565b6200026957600160008084815260200190815260200160002060000160008373ffffffffffffffffffffffffffffffffffffffff1673ffffffffffffffffffffffffffffffffffffffff16815260200190815260200160002060006101000a81548160ff0219169083151502179055506200020e6200035160201b60201c565b73ffffffffffffffffffffffffffffffffffffffff168173ffffffffffffffffffffffffffffffffffffffff16837f2f8788117e7eff1d82e926ec794901d17c78024a50270940304540a733656f0d60405160405180910390a45b5050565b60006200028183836200035960201b60201c565b620002dc578260000182908060018154018082558091505060019003906000526020600020016000909190919091505582600001805490508360010160008481526020019081526020016000208190555060019050620002e1565b600090505b92915050565b600080600084815260200190815260200160002060000160008373ffffffffffffffffffffffffffffffffffffffff1673ffffffffffffffffffffffffffffffffffffffff16815260200190815260200160002060009054906101000a900460ff16905092915050565b600033905090565b600080836001016000848152602001908152602001600020541415905092915050565b600080fd5b600073ffffffffffffffffffffffffffffffffffffffff82169050919050565b6000620003ae8262000381565b9050919050565b6000620003c282620003a1565b9050919050565b620003d481620003b5565b8114620003e057600080fd5b50565b600081519050620003f481620003c9565b92915050565b6000602082840312156200041357620004126200037c565b5b60006200042384828501620003e3565b91505092915050565b612cca806200043c6000396000f3fe608060405234801561001057600080fd5b50600436106101165760003560e01c80635c975abb116100a2578063a217fddf11610071578063a217fddf146102e1578063ca15c873146102ff578063d547741f1461032f578063e63ab1e91461034b578063f2f038771461036957610116565b80635c975abb146102595780638456cb59146102775780639010d07c1461028157806391d14854146102b157610116565b8063248a9ca3116100e9578063248a9ca3146101b75780632f2ff15d146101e75780632fa4548b1461020357806336568abe146102335780633f4ba83a1461024f57610116565b806301ffc9a71461011b578063061f4de41461014b578063117a5b90146101695780631aa3a00814610199575b600080fd5b61013560048036038101906101309190612002565b610399565b604051610142919061204a565b60405180910390f35b610153610413565b604051610160919061207e565b60405180910390f35b610183600480360381019061017e91906120c5565b610419565b6040516101909190612133565b60405180910390f35b6101a1610457565b6040516101ae919061207e565b60405180910390f35b6101d160048036038101906101cc9190612184565b6106d2565b6040516101de91906121c0565b60405180910390f35b61020160048036038101906101fc9190612207565b6106f1565b005b61021d6004803603810190610218919061238d565b610725565b60405161022a919061204a565b60405180910390f35b61024d60048036038101906102489190612207565b610f95565b005b610257610fc9565b005b610261611043565b60405161026e919061204a565b60405180910390f35b61027f61105a565b005b61029b600480360381019061029691906123e9565b6110d4565b6040516102a89190612133565b60405180910390f35b6102cb60048036038101906102c69190612207565b611103565b6040516102d8919061204a565b60405180910390f35b6102e961116d565b6040516102f691906121c0565b60405180910390f35b61031960048036038101906103149190612184565b611174565b604051610326919061207e565b60405180910390f35b61034960048036038101906103449190612207565b611198565b005b6103536111cc565b60405161036091906121c0565b60405180910390f35b610383600480360381019061037e9190612429565b6111f0565b604051610390919061204a565b60405180910390f35b60007f5a05180f000000000000000000000000000000000000000000000000000000007bffffffffffffffffffffffffffffffffffffffffffffffffffffffff1916827bffffffffffffffffffffffffffffffffffffffffffffffffffffffff1916148061040c575061040b8261141b565b5b9050919050565b60035481565b60056020528060005260406000206000915090508060020160009054906101000a900473ffffffffffffffffffffffffffffffffffffffff16905081565b6000610461611043565b156104a1576040517f08c379a0000000000000000000000000000000000000000000000000000000008152600401610498906124c6565b60405180910390fd5b60006005600060035481526020019081526020016000209050600281600101805490501061053d5760016003546104d89190612515565b6003819055506000600560006003548152602001908152602001600020905060008160020160006101000a81548173ffffffffffffffffffffffffffffffffffffffff021916908373ffffffffffffffffffffffffffffffffffffffff160217905550505b6000600560006003548152602001908152602001600020905080600101339080600181540180825580915050600190039060005260206000200160009091909190916101000a81548173ffffffffffffffffffffffffffffffffffffffff021916908373ffffffffffffffffffffffffffffffffffffffff16021790555060405180606001604052806000801b8152602001600060038111156105e3576105e261256b565b5b8152602001600115158152508160000160003373ffffffffffffffffffffffffffffffffffffffff1673ffffffffffffffffffffffffffffffffffffffff1681526020019081526020016000206000820151816000015560208201518160010160006101000a81548160ff021916908360038111156106655761066461256b565b5b021790555060408201518160010160016101000a81548160ff0219169083151502179055509050507f324cb0062138d65997c86cd3012489ceb351d602f2f55c7408306e8040c79f3f336003546040516106c092919061259a565b60405180910390a16003549250505090565b6000806000838152602001908152602001600020600101549050919050565b6106fb8282611495565b61072081600160008581526020019081526020016000206113eb90919063ffffffff16565b505050565b600061072f611043565b1561076f576040517f08c379a0000000000000000000000000000000000000000000000000000000008152600401610766906124c6565b60405180910390fd5b826005600082815260200190815260200160002060000160003373ffffffffffffffffffffffffffffffffffffffff1673ffffffffffffffffffffffffffffffffffffffff16815260200190815260200160002060010160019054906101000a900460ff16610813576040517f08c379a000000000000000000000000000000000000000000000000000000000815260040161080a9061260f565b60405180910390fd5b8360006005600083815260200190815260200160002090506000801b8160000160008360010160008154811061084c5761084b61262f565b5b9060005260206000200160009054906101000a900473ffffffffffffffffffffffffffffffffffffffff1673ffffffffffffffffffffffffffffffffffffffff1673ffffffffffffffffffffffffffffffffffffffff168152602001908152602001600020600001541415801561094b57506000801b816000016000836001016001815481106108df576108de61262f565b5b9060005260206000200160009054906101000a900473ffffffffffffffffffffffffffffffffffffffff1673ffffffffffffffffffffffffffffffffffffffff1673ffffffffffffffffffffffffffffffffffffffff1681526020019081526020016000206000015414155b61098a576040517f08c379a0000000000000000000000000000000000000000000000000000000008152600401610981906126aa565b60405180910390fd5b600060028660405160200161099f9190612744565b6040516020818303038152906040526040516109bb91906127a2565b602060405180830381855afa1580156109d8573d6000803e3d6000fd5b5050506040513d601f19601f820116820180604052508101906109fb91906127ce565b90506000610a08876114be565b905060006003811115610a1e57610a1d61256b565b5b816003811115610a3157610a3061256b565b5b1415610a4257600095505050610f8c565b6000600560008a81526020019081526020016000209050828160000160003373ffffffffffffffffffffffffffffffffffffffff1673ffffffffffffffffffffffffffffffffffffffff1681526020019081526020016000206000015414610ab05760009650505050610f8c565b818160000160003373ffffffffffffffffffffffffffffffffffffffff1673ffffffffffffffffffffffffffffffffffffffff16815260200190815260200160002060010160006101000a81548160ff02191690836003811115610b1757610b1661256b565b5b02179055507ff7bddf1d0b83b2c5abf9e1570cc4f5e462865216c066867b59ed1d05a140fc25338a604051610b4d92919061259a565b60405180910390a1600081600001600083600101600081548110610b7457610b7361262f565b5b9060005260206000200160009054906101000a900473ffffffffffffffffffffffffffffffffffffffff1673ffffffffffffffffffffffffffffffffffffffff1673ffffffffffffffffffffffffffffffffffffffff16815260200190815260200160002060010160009054906101000a900460ff169050600082600001600084600101600181548110610c0b57610c0a61262f565b5b9060005260206000200160009054906101000a900473ffffffffffffffffffffffffffffffffffffffff1673ffffffffffffffffffffffffffffffffffffffff1673ffffffffffffffffffffffffffffffffffffffff16815260200190815260200160002060010160009054906101000a900460ff16905060006003811115610c9757610c9661256b565b5b826003811115610caa57610ca961256b565b5b14158015610cdd575060006003811115610cc757610cc661256b565b5b816003811115610cda57610cd961256b565b5b14155b15610f8257806003811115610cf557610cf461256b565b5b826003811115610d0857610d0761256b565b5b1415610d53577f4a08cf13c7203fa768acdfaf086e73d97f5f70bc438fd2f9a6c35cb03f3b25c48b604051610d3d919061207e565b60405180910390a1600198505050505050610f8c565b610d5d8282611528565b15610deb5782600101600081548110610d7957610d7861262f565b5b9060005260206000200160009054906101000a900473ffffffffffffffffffffffffffffffffffffffff168360020160006101000a81548173ffffffffffffffffffffffffffffffffffffffff021916908373ffffffffffffffffffffffffffffffffffffffff160217905550610e70565b82600101600181548110610e0257610e0161262f565b5b9060005260206000200160009054906101000a900473ffffffffffffffffffffffffffffffffffffffff168360020160006101000a81548173ffffffffffffffffffffffffffffffffffffffff021916908373ffffffffffffffffffffffffffffffffffffffff1602179055505b7fd95406dab69c42cef3161ee146f91b944c3a41020b0c78f1ec532f1dce196c9e8360020160009054906101000a900473ffffffffffffffffffffffffffffffffffffffff168c604051610ec592919061259a565b60405180910390a1600460009054906101000a900473ffffffffffffffffffffffffffffffffffffffff1673ffffffffffffffffffffffffffffffffffffffff166340c10f198460020160009054906101000a900473ffffffffffffffffffffffffffffffffffffffff1660016040518363ffffffff1660e01b8152600401610f4f929190612840565b600060405180830381600087803b158015610f6957600080fd5b505af1158015610f7d573d6000803e3d6000fd5b505050505b6001985050505050505b50505092915050565b610f9f8282611657565b610fc481600160008581526020019081526020016000206116da90919063ffffffff16565b505050565b610ffa7f65d7a28e3265b37a6474929f336521b332c1681b933f6cb9f3376673440d862a610ff561170a565b611103565b611039576040517f08c379a0000000000000000000000000000000000000000000000000000000008152600401611030906128b5565b60405180910390fd5b611041611712565b565b6000600260009054906101000a900460ff16905090565b61108b7f65d7a28e3265b37a6474929f336521b332c1681b933f6cb9f3376673440d862a61108661170a565b611103565b6110ca576040517f08c379a00000000000000000000000000000000000000000000000000000000081526004016110c1906128b5565b60405180910390fd5b6110d26117b4565b565b60006110fb826001600086815260200190815260200160002061185790919063ffffffff16565b905092915050565b600080600084815260200190815260200160002060000160008373ffffffffffffffffffffffffffffffffffffffff1673ffffffffffffffffffffffffffffffffffffffff16815260200190815260200160002060009054906101000a900460ff16905092915050565b6000801b81565b600061119160016000848152602001908152602001600020611871565b9050919050565b6111a28282611886565b6111c781600160008581526020019081526020016000206116da90919063ffffffff16565b505050565b7f65d7a28e3265b37a6474929f336521b332c1681b933f6cb9f3376673440d862a81565b60006111fa611043565b1561123a576040517f08c379a0000000000000000000000000000000000000000000000000000000008152600401611231906124c6565b60405180910390fd5b826005600082815260200190815260200160002060000160003373ffffffffffffffffffffffffffffffffffffffff1673ffffffffffffffffffffffffffffffffffffffff16815260200190815260200160002060010160019054906101000a900460ff166112de576040517f08c379a00000000000000000000000000000000000000000000000000000000081526004016112d59061260f565b60405180910390fd5b60006005600086815260200190815260200160002090506000801b8160000160003373ffffffffffffffffffffffffffffffffffffffff1673ffffffffffffffffffffffffffffffffffffffff1681526020019081526020016000206000015414156113d057838160000160003373ffffffffffffffffffffffffffffffffffffffff1673ffffffffffffffffffffffffffffffffffffffff168152602001908152602001600020600001819055507f6c2cfdaa8e96e4d8f50bf459a3aa7e5b3c55e52e16e24412aca144a7d895354033866040516113be92919061259a565b60405180910390a160019250506113d6565b60009250505b5092915050565b6113e782826118af565b5050565b6000611413836000018373ffffffffffffffffffffffffffffffffffffffff1660001b61198f565b905092915050565b60007f7965db0b000000000000000000000000000000000000000000000000000000007bffffffffffffffffffffffffffffffffffffffffffffffffffffffff1916827bffffffffffffffffffffffffffffffffffffffffffffffffffffffff1916148061148e575061148d826119ff565b5b9050919050565b61149e826106d2565b6114af816114aa61170a565b611a69565b6114b983836118af565b505050565b6000806030836000815181106114d7576114d661262f565b5b602001015160f81c60f81b60f81c6114ef91906128e2565b60ff16905060038111806115035750600081105b1561150d57600090505b8060038111156115205761151f61256b565b5b915050919050565b60006001600381111561153e5761153d61256b565b5b8360038111156115515761155061256b565b5b148015611581575060038081111561156c5761156b61256b565b5b82600381111561157f5761157e61256b565b5b145b806115df575060038081111561159a5761159961256b565b5b8360038111156115ad576115ac61256b565b5b1480156115de5750600260038111156115c9576115c861256b565b5b8260038111156115dc576115db61256b565b5b145b5b8061163e5750600260038111156115f9576115f861256b565b5b83600381111561160c5761160b61256b565b5b14801561163d5750600160038111156116285761162761256b565b5b82600381111561163b5761163a61256b565b5b145b5b1561164c5760019050611651565b600090505b92915050565b61165f61170a565b73ffffffffffffffffffffffffffffffffffffffff168173ffffffffffffffffffffffffffffffffffffffff16146116cc576040517f08c379a00000000000000000000000000000000000000000000000000000000081526004016116c390612988565b60405180910390fd5b6116d68282611b06565b5050565b6000611702836000018373ffffffffffffffffffffffffffffffffffffffff1660001b611be7565b905092915050565b600033905090565b61171a611043565b611759576040517f08c379a0000000000000000000000000000000000000000000000000000000008152600401611750906129f4565b60405180910390fd5b6000600260006101000a81548160ff0219169083151502179055507f5db9ee0a495bf2e6ff9c91a7834c1ba4fdd244a5e8aa4e537bd38aeae4b073aa61179d61170a565b6040516117aa9190612133565b60405180910390a1565b6117bc611043565b156117fc576040517f08c379a00000000000000000000000000000000000000000000000000000000081526004016117f3906124c6565b60405180910390fd5b6001600260006101000a81548160ff0219169083151502179055507f62e78cea01bee320cd4e420270b5ea74000d11b0c9f74754ebdbfc544b05a25861184061170a565b60405161184d9190612133565b60405180910390a1565b60006118668360000183611cfb565b60001c905092915050565b600061187f82600001611d26565b9050919050565b61188f826106d2565b6118a08161189b61170a565b611a69565b6118aa8383611b06565b505050565b6118b98282611103565b61198b57600160008084815260200190815260200160002060000160008373ffffffffffffffffffffffffffffffffffffffff1673ffffffffffffffffffffffffffffffffffffffff16815260200190815260200160002060006101000a81548160ff02191690831515021790555061193061170a565b73ffffffffffffffffffffffffffffffffffffffff168173ffffffffffffffffffffffffffffffffffffffff16837f2f8788117e7eff1d82e926ec794901d17c78024a50270940304540a733656f0d60405160405180910390a45b5050565b600061199b8383611d37565b6119f45782600001829080600181540180825580915050600190039060005260206000200160009091909190915055826000018054905083600101600084815260200190815260200160002081905550600190506119f9565b600090505b92915050565b60007f01ffc9a7000000000000000000000000000000000000000000000000000000007bffffffffffffffffffffffffffffffffffffffffffffffffffffffff1916827bffffffffffffffffffffffffffffffffffffffffffffffffffffffff1916149050919050565b611a738282611103565b611b0257611a988173ffffffffffffffffffffffffffffffffffffffff166014611d5a565b611aa68360001c6020611d5a565b604051602001611ab7929190612aac565b6040516020818303038152906040526040517f08c379a0000000000000000000000000000000000000000000000000000000008152600401611af99190612b1f565b60405180910390fd5b5050565b611b108282611103565b15611be357600080600084815260200190815260200160002060000160008373ffffffffffffffffffffffffffffffffffffffff1673ffffffffffffffffffffffffffffffffffffffff16815260200190815260200160002060006101000a81548160ff021916908315150217905550611b8861170a565b73ffffffffffffffffffffffffffffffffffffffff168173ffffffffffffffffffffffffffffffffffffffff16837ff6391f5c32d9c69d2a47ea670b442974b53935d1edc7fd64eb21e047a839171b60405160405180910390a45b5050565b60008083600101600084815260200190815260200160002054905060008114611cef576000600182611c199190612b41565b9050600060018660000180549050611c319190612b41565b9050818114611ca0576000866000018281548110611c5257611c5161262f565b5b9060005260206000200154905080876000018481548110611c7657611c7561262f565b5b90600052602060002001819055508387600101600083815260200190815260200160002081905550505b85600001805480611cb457611cb3612b75565b5b600190038181906000526020600020016000905590558560010160008681526020019081526020016000206000905560019350505050611cf5565b60009150505b92915050565b6000826000018281548110611d1357611d1261262f565b5b9060005260206000200154905092915050565b600081600001805490509050919050565b600080836001016000848152602001908152602001600020541415905092915050565b606060006002836002611d6d9190612ba4565b611d779190612515565b67ffffffffffffffff811115611d9057611d8f612262565b5b6040519080825280601f01601f191660200182016040528015611dc25781602001600182028036833780820191505090505b5090507f300000000000000000000000000000000000000000000000000000000000000081600081518110611dfa57611df961262f565b5b60200101907effffffffffffffffffffffffffffffffffffffffffffffffffffffffffffff1916908160001a9053507f780000000000000000000000000000000000000000000000000000000000000081600181518110611e5e57611e5d61262f565b5b60200101907effffffffffffffffffffffffffffffffffffffffffffffffffffffffffffff1916908160001a90535060006001846002611e9e9190612ba4565b611ea89190612515565b90505b6001811115611f48577f3031323334353637383961626364656600000000000000000000000000000000600f861660108110611eea57611ee961262f565b5b1a60f81b828281518110611f0157611f0061262f565b5b60200101907effffffffffffffffffffffffffffffffffffffffffffffffffffffffffffff1916908160001a905350600485901c945080611f4190612bfe565b9050611eab565b5060008414611f8c576040517f08c379a0000000000000000000000000000000000000000000000000000000008152600401611f8390612c74565b60405180910390fd5b8091505092915050565b6000604051905090565b600080fd5b600080fd5b60007fffffffff0000000000000000000000000000000000000000000000000000000082169050919050565b611fdf81611faa565b8114611fea57600080fd5b50565b600081359050611ffc81611fd6565b92915050565b60006020828403121561201857612017611fa0565b5b600061202684828501611fed565b91505092915050565b60008115159050919050565b6120448161202f565b82525050565b600060208201905061205f600083018461203b565b92915050565b6000819050919050565b61207881612065565b82525050565b6000602082019050612093600083018461206f565b92915050565b6120a281612065565b81146120ad57600080fd5b50565b6000813590506120bf81612099565b92915050565b6000602082840312156120db576120da611fa0565b5b60006120e9848285016120b0565b91505092915050565b600073ffffffffffffffffffffffffffffffffffffffff82169050919050565b600061211d826120f2565b9050919050565b61212d81612112565b82525050565b60006020820190506121486000830184612124565b92915050565b6000819050919050565b6121618161214e565b811461216c57600080fd5b50565b60008135905061217e81612158565b92915050565b60006020828403121561219a57612199611fa0565b5b60006121a88482850161216f565b91505092915050565b6121ba8161214e565b82525050565b60006020820190506121d560008301846121b1565b92915050565b6121e481612112565b81146121ef57600080fd5b50565b600081359050612201816121db565b92915050565b6000806040838503121561221e5761221d611fa0565b5b600061222c8582860161216f565b925050602061223d858286016121f2565b9150509250929050565b600080fd5b600080fd5b6000601f19601f8301169050919050565b7f4e487b7100000000000000000000000000000000000000000000000000000000600052604160045260246000fd5b61229a82612251565b810181811067ffffffffffffffff821117156122b9576122b8612262565b5b80604052505050565b60006122cc611f96565b90506122d88282612291565b919050565b600067ffffffffffffffff8211156122f8576122f7612262565b5b61230182612251565b9050602081019050919050565b82818337600083830152505050565b600061233061232b846122dd565b6122c2565b90508281526020810184848401111561234c5761234b61224c565b5b61235784828561230e565b509392505050565b600082601f83011261237457612373612247565b5b813561238484826020860161231d565b91505092915050565b600080604083850312156123a4576123a3611fa0565b5b60006123b2858286016120b0565b925050602083013567ffffffffffffffff8111156123d3576123d2611fa5565b5b6123df8582860161235f565b9150509250929050565b60008060408385031215612400576123ff611fa0565b5b600061240e8582860161216f565b925050602061241f858286016120b0565b9150509250929050565b600080604083850312156124405761243f611fa0565b5b600061244e858286016120b0565b925050602061245f8582860161216f565b9150509250929050565b600082825260208201905092915050565b7f5061757361626c653a2070617573656400000000000000000000000000000000600082015250565b60006124b0601083612469565b91506124bb8261247a565b602082019050919050565b600060208201905081810360008301526124df816124a3565b9050919050565b7f4e487b7100000000000000000000000000000000000000000000000000000000600052601160045260246000fd5b600061252082612065565b915061252b83612065565b9250827fffffffffffffffffffffffffffffffffffffffffffffffffffffffffffffffff038211156125605761255f6124e6565b5b828201905092915050565b7f4e487b7100000000000000000000000000000000000000000000000000000000600052602160045260246000fd5b60006040820190506125af6000830185612124565b6125bc602083018461206f565b9392505050565b7f506c61796572206973206e6f7420726567697374657265640000000000000000600082015250565b60006125f9601883612469565b9150612604826125c3565b602082019050919050565b60006020820190508181036000830152612628816125ec565b9050919050565b7f4e487b7100000000000000000000000000000000000000000000000000000000600052603260045260246000fd5b7f426f746820706c61796572206d75737420636f6d6d6974206d6f766573000000600082015250565b6000612694601d83612469565b915061269f8261265e565b602082019050919050565b600060208201905081810360008301526126c381612687565b9050919050565b600081519050919050565b600081905092915050565b60005b838110156126fe5780820151818401526020810190506126e3565b8381111561270d576000848401525b50505050565b600061271e826126ca565b61272881856126d5565b93506127388185602086016126e0565b80840191505092915050565b60006127508284612713565b915081905092915050565b600081519050919050565b600081905092915050565b600061277c8261275b565b6127868185612766565b93506127968185602086016126e0565b80840191505092915050565b60006127ae8284612771565b915081905092915050565b6000815190506127c881612158565b92915050565b6000602082840312156127e4576127e3611fa0565b5b60006127f2848285016127b9565b91505092915050565b6000819050919050565b6000819050919050565b600061282a612825612820846127fb565b612805565b612065565b9050919050565b61283a8161280f565b82525050565b60006040820190506128556000830185612124565b6128626020830184612831565b9392505050565b7f6d75737420686176652070617573657220726f6c650000000000000000000000600082015250565b600061289f601583612469565b91506128aa82612869565b602082019050919050565b600060208201905081810360008301526128ce81612892565b9050919050565b600060ff82169050919050565b60006128ed826128d5565b91506128f8836128d5565b92508282101561290b5761290a6124e6565b5b828203905092915050565b7f416363657373436f6e74726f6c3a2063616e206f6e6c792072656e6f756e636560008201527f20726f6c657320666f722073656c660000000000000000000000000000000000602082015250565b6000612972602f83612469565b915061297d82612916565b604082019050919050565b600060208201905081810360008301526129a181612965565b9050919050565b7f5061757361626c653a206e6f7420706175736564000000000000000000000000600082015250565b60006129de601483612469565b91506129e9826129a8565b602082019050919050565b60006020820190508181036000830152612a0d816129d1565b9050919050565b7f416363657373436f6e74726f6c3a206163636f756e7420000000000000000000600082015250565b6000612a4a6017836126d5565b9150612a5582612a14565b601782019050919050565b7f206973206d697373696e6720726f6c6520000000000000000000000000000000600082015250565b6000612a966011836126d5565b9150612aa182612a60565b601182019050919050565b6000612ab782612a3d565b9150612ac38285612713565b9150612ace82612a89565b9150612ada8284612713565b91508190509392505050565b6000612af1826126ca565b612afb8185612469565b9350612b0b8185602086016126e0565b612b1481612251565b840191505092915050565b60006020820190508181036000830152612b398184612ae6565b905092915050565b6000612b4c82612065565b9150612b5783612065565b925082821015612b6a57612b696124e6565b5b828203905092915050565b7f4e487b7100000000000000000000000000000000000000000000000000000000600052603160045260246000fd5b6000612baf82612065565b9150612bba83612065565b9250817fffffffffffffffffffffffffffffffffffffffffffffffffffffffffffffffff0483118215151615612bf357612bf26124e6565b5b828202905092915050565b6000612c0982612065565b91506000821415612c1d57612c1c6124e6565b5b600182039050919050565b7f537472696e67733a20686578206c656e67746820696e73756666696369656e74600082015250565b6000612c5e602083612469565b9150612c6982612c28565b602082019050919050565b60006020820190508181036000830152612c8d81612c51565b905091905056fea2646970667358221220594e17fdd1c3e5dc2e878fd5bb72ae046c75d2dc1068161e23e0ce18bf1eac5464736f6c634300080a0033",
  "immutableReferences": {},
  "source": "// SPDX-License-Identifier: MIT\r\npragma solidity ^0.8.0;\r\n\r\nimport \"@openzeppelin/contracts/security/Pausable.sol\";\r\nimport \"@openzeppelin/contracts/access/AccessControlEnumerable.sol\";\r\nimport \"./GameToken.sol\";\r\n\r\ncontract RockPaperScissors is AccessControlEnumerable, Pausable {\r\n  bytes32 public constant PAUSER_ROLE = keccak256(\"PAUSER_ROLE\");\r\n\r\n  /// @notice counter that keeps track of number of the games played\r\n  /// @dev used to determine what next gameId should be\r\n  uint public gameIdCount = 0;\r\n\r\n  /// @dev token instance for minting\r\n  GameToken private gameToken;\r\n  \r\n  /// @dev enum that defines allowed move in game with None as defaults\r\n  enum Moves {None, Rock, Paper, Scissors}\r\n\r\n  /// @dev struct that keeps submitted and revealed player move\r\n  struct PlayerMove {\r\n    bytes32 encrMove;\r\n    Moves move;\r\n    bool registered;\r\n  }\r\n\r\n  /// @dev struct that keep track of one game with players, moves and winner\r\n  struct Game { \r\n    mapping(address => PlayerMove) playerMoves;\r\n    address[] players;\r\n    address winner;\r\n  }\r\n\r\n  /// @notice mapping of games played\r\n  /// @dev keeps list of games with players and submitted moves\r\n  mapping(uint => Game) public games;\r\n\r\n  /// @notice emited when player registers\r\n  /// @dev emited when player registers\r\n  /// @param player address of registered player\r\n  /// @param gameId identifier of a game that player is registered to\r\n  event PlayerRegistered(address player, uint gameId);\r\n\r\n  /// @notice emited when player commits his move\r\n  /// @dev emited when player commits his move\r\n  /// @param player address of player that commited move\r\n  /// @param gameId identifier of a game\r\n  event MoveCommited(address player, uint gameId);\r\n\r\n  /// @notice emited when player reveals his move\r\n  /// @dev emited when player reveals his move\r\n  /// @param player address of player that revealed move\r\n  /// @param gameId identifier of a game\r\n  event MoveRevealed(address player, uint gameId);\r\n\r\n  /// @notice emited when game is drawn\r\n  /// @dev emited when game is drawn\r\n  /// @param gameId identifier of a game\r\n  event GameDrawn(uint gameId);\r\n\r\n  /// @notice emited when game winner is calculated\r\n  /// @dev emited when game winner is calculated\r\n  /// @param player address of player that won\r\n  /// @param gameId identifier of a game\r\n  event GamerWinner(address player, uint gameId);\r\n\r\n  constructor(GameToken _gameToken) {\r\n    gameToken = _gameToken;\r\n\r\n    _setupRole(DEFAULT_ADMIN_ROLE, msg.sender);\r\n    _setupRole(PAUSER_ROLE, msg.sender);\r\n  }\r\n  \r\n  /// @notice Modifier that require Pauser role when user tries to pause/resume contract execution\r\n  /// @dev Modifier used on pause/unpause functions\r\n  modifier pauser() {\r\n    require(hasRole(PAUSER_ROLE, _msgSender()), \"must have pauser role\");\r\n    _;\r\n  }\r\n\r\n  /// @notice pause contact execution\r\n  /// @dev this function will set pause to true in Pausable\r\n  function pause() public pauser() virtual {\r\n    _pause();\r\n  }\r\n\r\n  /// @notice resume contact execution\r\n  /// @dev this function will set pause to false in Pausable\r\n  function unpause() public pauser() virtual {\r\n    _unpause();\r\n  }\r\n  /// @notice resume contact execution\r\n  /// @dev modifier that checks if sender is registered that specific game instance\r\n  modifier isRegistered(uint _gameId) {\r\n    require (games[_gameId].playerMoves[msg.sender].registered, \"Player is not registered\");\r\n    _;\r\n  }\r\n  \r\n  /// @notice modifier function that checks wheter both users commited their moves\r\n  /// @dev check encrMove is not default for both players \r\n  modifier movesCommited(uint _gameId) {\r\n    Game storage current = games[_gameId];\r\n    require(current.playerMoves[current.players[0]].encrMove != 0x0 && \r\n      current.playerMoves[current.players[1]].encrMove != 0x0, \"Both player must commit moves\");\r\n      _;\r\n  }\r\n\r\n  /// @notice Register user that wants to play the game.\r\n  /// @dev register user / pair user to play with player that is waiting or create new game\r\n  /// @return returns game id \r\n  function register() public whenNotPaused() returns(uint) {\r\n    Game storage activeGame = games[gameIdCount];\r\n    if (activeGame.players.length >= 2) { \r\n      // start new game\r\n      gameIdCount = gameIdCount + 1;\r\n      Game storage  newGame = games[gameIdCount];\r\n      newGame.winner = address(0x0);\r\n    }\r\n    \r\n    Game storage currentGame = games[gameIdCount];\r\n  \r\n    currentGame.players.push(msg.sender);\r\n    currentGame.playerMoves[msg.sender] = PlayerMove({\r\n      move: Moves.None,\r\n      registered: true,\r\n      encrMove: 0x0\r\n    });\r\n\r\n    emit PlayerRegistered(msg.sender, gameIdCount);\r\n    return gameIdCount;\r\n  }\r\n\r\n  /// @notice player commits move\r\n  /// @dev Explain to a developer any extra details\r\n  /// @param gameId game identifier\r\n  /// @param encrMove encrypted move, first char in encrypted string should corresponds with Moves enum \r\n  /// @return if commit phase was successful.\r\n  function commit(uint gameId, bytes32 encrMove) whenNotPaused() public isRegistered(gameId) returns (bool) {\r\n    Game storage currentGame = games[gameId];\r\n    if (currentGame.playerMoves[msg.sender].encrMove == 0x0) {\r\n      currentGame.playerMoves[msg.sender].encrMove = encrMove;\r\n      emit MoveCommited(msg.sender, gameId);\r\n      return true;\r\n    }\r\n    return false;\r\n  }\r\n\r\n  /// @notice Reveal player move, if both player commited move than calculate \r\n  /// @dev Explain to a developer any extra details\r\n  /// @param gameId game identifier\r\n  /// @param plainMove plain string that was commited in commit phase.\r\n  /// @return boolean whether action was successful\r\n  function reveal(uint gameId, string memory plainMove) public whenNotPaused() isRegistered(gameId) movesCommited(gameId) returns (bool) {\r\n    bytes32 encrMove = sha256(abi.encodePacked(plainMove));\r\n    Moves move = getMove(plainMove);\r\n    if (move == Moves.None) {\r\n      return false;\r\n    }\r\n\r\n    Game storage currentGame = games[gameId];\r\n    if(currentGame.playerMoves[msg.sender].encrMove != encrMove) {\r\n      return false;\r\n    }\r\n\r\n    currentGame.playerMoves[msg.sender].move = move;\r\n    emit MoveRevealed(msg.sender, gameId);\r\n\r\n    Moves movePlayer1 = currentGame.playerMoves[currentGame.players[0]].move;\r\n    Moves movePlayer2 = currentGame.playerMoves[currentGame.players[1]].move;\r\n\r\n    if (movePlayer1 != Moves.None && movePlayer2 != Moves.None) {\r\n      if (movePlayer1 == movePlayer2) {\r\n        // drawn game;\r\n        emit GameDrawn(gameId);\r\n        return true;\r\n      }\r\n\r\n      // game has winner\r\n      if (isWinner(movePlayer1, movePlayer2)) {\r\n        currentGame.winner = currentGame.players[0];\r\n      } else {\r\n        currentGame.winner = currentGame.players[1];\r\n      }\r\n      \r\n      emit GamerWinner(currentGame.winner, gameId);\r\n\r\n      // send transaction to mint token and mint token\r\n      gameToken.mint(currentGame.winner, 1);\r\n    }\r\n\r\n    return true;\r\n  }\r\n\r\n  /// @notice get move from submitted string\r\n  /// @dev first char should contain uint and is converted into enum Moves\r\n  /// @param value plain string submitted in reveal phase\r\n  /// @return Moves enum\r\n  function getMove(string memory value) private pure returns (Moves) {\r\n    uint moveValue = uint(uint8((bytes(value)[0])) - 48);\r\n    if (moveValue > 3 || moveValue < 0) moveValue = 0;\r\n\r\n    return Moves(moveValue);\r\n  }\r\n\r\n  /// @notice Check if first param move is winning move\r\n  /// @dev it only checks cases when move1 is winning move, other returns false (even if it's drawn)\r\n  /// @param move1 move submitted by one of the player\r\n  /// @param move2 move submitted by other player\r\n  /// @return true if is move1 is winning move\r\n  function isWinner(Moves move1, Moves move2) private pure returns (bool) {\r\n    if ((move1 == Moves.Rock && move2 == Moves.Scissors) || \r\n        (move1 == Moves.Scissors && move2 == Moves.Paper) ||\r\n        (move1 == Moves.Paper && move2 == Moves.Rock)\r\n    ) {\r\n      return true;\r\n    } \r\n\r\n    return false;\r\n  }\r\n}\r\n",
  "sourcePath": "/d/projects/ConsenSys/boot camp/blockchain-boot-camp/contracts/RockPaperScissors.sol",
  "compiler": {
    "name": "solc",
    "version": "0.8.10+commit.fc410830.Emscripten.clang"
  },
  "schemaVersion": "3.4.3",
  "updatedAt": "2021-11-11T21:54:56.870Z",
  "devdoc": {
    "events": {
      "GameDrawn(uint256)": {
        "details": "emited when game is drawn",
        "params": {
          "gameId": "identifier of a game"
        }
      },
      "GamerWinner(address,uint256)": {
        "details": "emited when game winner is calculated",
        "params": {
          "gameId": "identifier of a game",
          "player": "address of player that won"
        }
      },
      "MoveCommited(address,uint256)": {
        "details": "emited when player commits his move",
        "params": {
          "gameId": "identifier of a game",
          "player": "address of player that commited move"
        }
      },
      "MoveRevealed(address,uint256)": {
        "details": "emited when player reveals his move",
        "params": {
          "gameId": "identifier of a game",
          "player": "address of player that revealed move"
        }
      },
      "PlayerRegistered(address,uint256)": {
        "details": "emited when player registers",
        "params": {
          "gameId": "identifier of a game that player is registered to",
          "player": "address of registered player"
        }
      }
    },
    "kind": "dev",
    "methods": {
      "commit(uint256,bytes32)": {
        "details": "Explain to a developer any extra details",
        "params": {
          "encrMove": "encrypted move, first char in encrypted string should corresponds with Moves enum ",
          "gameId": "game identifier"
        },
        "returns": {
          "_0": "if commit phase was successful."
        }
      },
      "getRoleAdmin(bytes32)": {
        "details": "Returns the admin role that controls `role`. See {grantRole} and {revokeRole}. To change a role's admin, use {_setRoleAdmin}."
      },
      "getRoleMember(bytes32,uint256)": {
        "details": "Returns one of the accounts that have `role`. `index` must be a value between 0 and {getRoleMemberCount}, non-inclusive. Role bearers are not sorted in any particular way, and their ordering may change at any point. WARNING: When using {getRoleMember} and {getRoleMemberCount}, make sure you perform all queries on the same block. See the following https://forum.openzeppelin.com/t/iterating-over-elements-on-enumerableset-in-openzeppelin-contracts/2296[forum post] for more information."
      },
      "getRoleMemberCount(bytes32)": {
        "details": "Returns the number of accounts that have `role`. Can be used together with {getRoleMember} to enumerate all bearers of a role."
      },
      "grantRole(bytes32,address)": {
        "details": "Overload {grantRole} to track enumerable memberships"
      },
      "hasRole(bytes32,address)": {
        "details": "Returns `true` if `account` has been granted `role`."
      },
      "pause()": {
        "details": "this function will set pause to true in Pausable"
      },
      "paused()": {
        "details": "Returns true if the contract is paused, and false otherwise."
      },
      "register()": {
        "details": "register user / pair user to play with player that is waiting or create new game",
        "returns": {
          "_0": "returns game id "
        }
      },
      "renounceRole(bytes32,address)": {
        "details": "Overload {renounceRole} to track enumerable memberships"
      },
      "reveal(uint256,string)": {
        "details": "Explain to a developer any extra details",
        "params": {
          "gameId": "game identifier",
          "plainMove": "plain string that was commited in commit phase."
        },
        "returns": {
          "_0": "boolean whether action was successful"
        }
      },
      "revokeRole(bytes32,address)": {
        "details": "Overload {revokeRole} to track enumerable memberships"
      },
      "supportsInterface(bytes4)": {
        "details": "See {IERC165-supportsInterface}."
      },
      "unpause()": {
        "details": "this function will set pause to false in Pausable"
      }
    },
    "stateVariables": {
      "gameIdCount": {
        "details": "used to determine what next gameId should be"
      },
      "gameToken": {
        "details": "token instance for minting"
      },
      "games": {
        "details": "keeps list of games with players and submitted moves"
      }
    },
    "version": 1
  },
  "userdoc": {
    "events": {
      "GameDrawn(uint256)": {
        "notice": "emited when game is drawn"
      },
      "GamerWinner(address,uint256)": {
        "notice": "emited when game winner is calculated"
      },
      "MoveCommited(address,uint256)": {
        "notice": "emited when player commits his move"
      },
      "MoveRevealed(address,uint256)": {
        "notice": "emited when player reveals his move"
      },
      "PlayerRegistered(address,uint256)": {
        "notice": "emited when player registers"
      }
    },
    "kind": "user",
    "methods": {
      "commit(uint256,bytes32)": {
        "notice": "player commits move"
      },
      "gameIdCount()": {
        "notice": "counter that keeps track of number of the games played"
      },
      "games(uint256)": {
        "notice": "mapping of games played"
      },
      "pause()": {
        "notice": "pause contact execution"
      },
      "register()": {
        "notice": "Register user that wants to play the game."
      },
      "reveal(uint256,string)": {
        "notice": "Reveal player move, if both player commited move than calculate "
      },
      "unpause()": {
        "notice": "resume contact execution"
      }
    },
    "version": 1
  }
}