{
  "contractName": "RockPaperScissors",
  "abi": [
    {
      "inputs": [
        {
          "internalType": "contract GameToken",
          "name": "_gameToken",
          "type": "address"
        }
      ],
      "stateMutability": "nonpayable",
      "type": "constructor"
    },
    {
      "anonymous": false,
      "inputs": [
        {
          "indexed": false,
          "internalType": "uint256",
          "name": "gameId",
          "type": "uint256"
        }
      ],
      "name": "GameDrawn",
      "type": "event"
    },
    {
      "anonymous": false,
      "inputs": [
        {
          "indexed": false,
          "internalType": "address",
          "name": "player",
          "type": "address"
        },
        {
          "indexed": false,
          "internalType": "uint256",
          "name": "gameId",
          "type": "uint256"
        }
      ],
      "name": "GamerWinner",
      "type": "event"
    },
    {
      "anonymous": false,
      "inputs": [
        {
          "indexed": false,
          "internalType": "address",
          "name": "player",
          "type": "address"
        },
        {
          "indexed": false,
          "internalType": "uint256",
          "name": "gameId",
          "type": "uint256"
        }
      ],
      "name": "MoveCommited",
      "type": "event"
    },
    {
      "anonymous": false,
      "inputs": [
        {
          "indexed": false,
          "internalType": "address",
          "name": "player",
          "type": "address"
        },
        {
          "indexed": false,
          "internalType": "uint256",
          "name": "gameId",
          "type": "uint256"
        }
      ],
      "name": "MoveRevealed",
      "type": "event"
    },
    {
      "anonymous": false,
      "inputs": [
        {
          "indexed": false,
          "internalType": "address",
          "name": "account",
          "type": "address"
        }
      ],
      "name": "Paused",
      "type": "event"
    },
    {
      "anonymous": false,
      "inputs": [
        {
          "indexed": false,
          "internalType": "address",
          "name": "player",
          "type": "address"
        },
        {
          "indexed": false,
          "internalType": "uint256",
          "name": "gameId",
          "type": "uint256"
        }
      ],
      "name": "PlayerRegistered",
      "type": "event"
    },
    {
      "anonymous": false,
      "inputs": [
        {
          "indexed": true,
          "internalType": "bytes32",
          "name": "role",
          "type": "bytes32"
        },
        {
          "indexed": true,
          "internalType": "bytes32",
          "name": "previousAdminRole",
          "type": "bytes32"
        },
        {
          "indexed": true,
          "internalType": "bytes32",
          "name": "newAdminRole",
          "type": "bytes32"
        }
      ],
      "name": "RoleAdminChanged",
      "type": "event"
    },
    {
      "anonymous": false,
      "inputs": [
        {
          "indexed": true,
          "internalType": "bytes32",
          "name": "role",
          "type": "bytes32"
        },
        {
          "indexed": true,
          "internalType": "address",
          "name": "account",
          "type": "address"
        },
        {
          "indexed": true,
          "internalType": "address",
          "name": "sender",
          "type": "address"
        }
      ],
      "name": "RoleGranted",
      "type": "event"
    },
    {
      "anonymous": false,
      "inputs": [
        {
          "indexed": true,
          "internalType": "bytes32",
          "name": "role",
          "type": "bytes32"
        },
        {
          "indexed": true,
          "internalType": "address",
          "name": "account",
          "type": "address"
        },
        {
          "indexed": true,
          "internalType": "address",
          "name": "sender",
          "type": "address"
        }
      ],
      "name": "RoleRevoked",
      "type": "event"
    },
    {
      "anonymous": false,
      "inputs": [
        {
          "indexed": false,
          "internalType": "address",
          "name": "account",
          "type": "address"
        }
      ],
      "name": "Unpaused",
      "type": "event"
    },
    {
      "inputs": [],
      "name": "DEFAULT_ADMIN_ROLE",
      "outputs": [
        {
          "internalType": "bytes32",
          "name": "",
          "type": "bytes32"
        }
      ],
      "stateMutability": "view",
      "type": "function",
      "constant": true
    },
    {
      "inputs": [],
      "name": "PAUSER_ROLE",
      "outputs": [
        {
          "internalType": "bytes32",
          "name": "",
          "type": "bytes32"
        }
      ],
      "stateMutability": "view",
      "type": "function",
      "constant": true
    },
    {
      "inputs": [],
      "name": "gameIdCount",
      "outputs": [
        {
          "internalType": "uint256",
          "name": "",
          "type": "uint256"
        }
      ],
      "stateMutability": "view",
      "type": "function",
      "constant": true
    },
    {
      "inputs": [
        {
          "internalType": "uint256",
          "name": "",
          "type": "uint256"
        }
      ],
      "name": "games",
      "outputs": [
        {
          "internalType": "address",
          "name": "winner",
          "type": "address"
        },
        {
          "internalType": "bool",
          "name": "finished",
          "type": "bool"
        }
      ],
      "stateMutability": "view",
      "type": "function",
      "constant": true
    },
    {
      "inputs": [
        {
          "internalType": "bytes32",
          "name": "role",
          "type": "bytes32"
        }
      ],
      "name": "getRoleAdmin",
      "outputs": [
        {
          "internalType": "bytes32",
          "name": "",
          "type": "bytes32"
        }
      ],
      "stateMutability": "view",
      "type": "function",
      "constant": true
    },
    {
      "inputs": [
        {
          "internalType": "bytes32",
          "name": "role",
          "type": "bytes32"
        },
        {
          "internalType": "uint256",
          "name": "index",
          "type": "uint256"
        }
      ],
      "name": "getRoleMember",
      "outputs": [
        {
          "internalType": "address",
          "name": "",
          "type": "address"
        }
      ],
      "stateMutability": "view",
      "type": "function",
      "constant": true
    },
    {
      "inputs": [
        {
          "internalType": "bytes32",
          "name": "role",
          "type": "bytes32"
        }
      ],
      "name": "getRoleMemberCount",
      "outputs": [
        {
          "internalType": "uint256",
          "name": "",
          "type": "uint256"
        }
      ],
      "stateMutability": "view",
      "type": "function",
      "constant": true
    },
    {
      "inputs": [
        {
          "internalType": "bytes32",
          "name": "role",
          "type": "bytes32"
        },
        {
          "internalType": "address",
          "name": "account",
          "type": "address"
        }
      ],
      "name": "grantRole",
      "outputs": [],
      "stateMutability": "nonpayable",
      "type": "function"
    },
    {
      "inputs": [
        {
          "internalType": "bytes32",
          "name": "role",
          "type": "bytes32"
        },
        {
          "internalType": "address",
          "name": "account",
          "type": "address"
        }
      ],
      "name": "hasRole",
      "outputs": [
        {
          "internalType": "bool",
          "name": "",
          "type": "bool"
        }
      ],
      "stateMutability": "view",
      "type": "function",
      "constant": true
    },
    {
      "inputs": [],
      "name": "paused",
      "outputs": [
        {
          "internalType": "bool",
          "name": "",
          "type": "bool"
        }
      ],
      "stateMutability": "view",
      "type": "function",
      "constant": true
    },
    {
      "inputs": [
        {
          "internalType": "bytes32",
          "name": "role",
          "type": "bytes32"
        },
        {
          "internalType": "address",
          "name": "account",
          "type": "address"
        }
      ],
      "name": "renounceRole",
      "outputs": [],
      "stateMutability": "nonpayable",
      "type": "function"
    },
    {
      "inputs": [
        {
          "internalType": "bytes32",
          "name": "role",
          "type": "bytes32"
        },
        {
          "internalType": "address",
          "name": "account",
          "type": "address"
        }
      ],
      "name": "revokeRole",
      "outputs": [],
      "stateMutability": "nonpayable",
      "type": "function"
    },
    {
      "inputs": [
        {
          "internalType": "bytes4",
          "name": "interfaceId",
          "type": "bytes4"
        }
      ],
      "name": "supportsInterface",
      "outputs": [
        {
          "internalType": "bool",
          "name": "",
          "type": "bool"
        }
      ],
      "stateMutability": "view",
      "type": "function",
      "constant": true
    },
    {
      "inputs": [],
      "name": "pause",
      "outputs": [],
      "stateMutability": "nonpayable",
      "type": "function"
    },
    {
      "inputs": [],
      "name": "unpause",
      "outputs": [],
      "stateMutability": "nonpayable",
      "type": "function"
    },
    {
      "inputs": [],
      "name": "register",
      "outputs": [
        {
          "internalType": "uint256",
          "name": "",
          "type": "uint256"
        }
      ],
      "stateMutability": "nonpayable",
      "type": "function"
    },
    {
      "inputs": [
        {
          "internalType": "uint256",
          "name": "gameId",
          "type": "uint256"
        },
        {
          "internalType": "bytes32",
          "name": "encrMove",
          "type": "bytes32"
        }
      ],
      "name": "commit",
      "outputs": [
        {
          "internalType": "bool",
          "name": "",
          "type": "bool"
        }
      ],
      "stateMutability": "nonpayable",
      "type": "function"
    },
    {
      "inputs": [
        {
          "internalType": "uint256",
          "name": "gameId",
          "type": "uint256"
        },
        {
          "internalType": "string",
          "name": "plainMove",
          "type": "string"
        }
      ],
      "name": "reveal",
      "outputs": [
        {
          "internalType": "bool",
          "name": "",
          "type": "bool"
        }
      ],
      "stateMutability": "nonpayable",
      "type": "function"
    },
    {
      "inputs": [
        {
          "internalType": "uint256",
          "name": "gameId",
          "type": "uint256"
        }
      ],
      "name": "getOpponentMove",
      "outputs": [
        {
          "components": [
            {
              "internalType": "bytes32",
              "name": "encrMove",
              "type": "bytes32"
            },
            {
              "internalType": "enum RockPaperScissors.Moves",
              "name": "move",
              "type": "uint8"
            },
            {
              "internalType": "bool",
              "name": "registered",
              "type": "bool"
            }
          ],
          "internalType": "struct RockPaperScissors.PlayerMove",
          "name": "",
          "type": "tuple"
        }
      ],
      "stateMutability": "view",
      "type": "function",
      "constant": true
    },
    {
      "inputs": [
        {
          "internalType": "uint256",
          "name": "gameId",
          "type": "uint256"
        }
      ],
      "name": "getPlayers",
      "outputs": [
        {
          "internalType": "address[]",
          "name": "",
          "type": "address[]"
        }
      ],
      "stateMutability": "view",
      "type": "function",
      "constant": true
    }
  ],
  "bytecode": "0x608060405260016003553480156200001657600080fd5b50604051620037393803806200373983398181016040528101906200003c9190620003fa565b6000600260006101000a81548160ff02191690831515021790555080600460006101000a81548173ffffffffffffffffffffffffffffffffffffffff021916908373ffffffffffffffffffffffffffffffffffffffff160217905550620000ad6000801b33620000e660201b60201c565b620000df7f65d7a28e3265b37a6474929f336521b332c1681b933f6cb9f3376673440d862a33620000e660201b60201c565b506200042c565b620000fd82826200012e60201b620018ac1760201c565b6200012981600160008581526020019081526020016000206200014460201b620018ba1790919060201c565b505050565b6200014082826200017c60201b60201c565b5050565b600062000174836000018373ffffffffffffffffffffffffffffffffffffffff1660001b6200026d60201b60201c565b905092915050565b6200018e8282620002e760201b60201c565b6200026957600160008084815260200190815260200160002060000160008373ffffffffffffffffffffffffffffffffffffffff1673ffffffffffffffffffffffffffffffffffffffff16815260200190815260200160002060006101000a81548160ff0219169083151502179055506200020e6200035160201b60201c565b73ffffffffffffffffffffffffffffffffffffffff168173ffffffffffffffffffffffffffffffffffffffff16837f2f8788117e7eff1d82e926ec794901d17c78024a50270940304540a733656f0d60405160405180910390a45b5050565b60006200028183836200035960201b60201c565b620002dc578260000182908060018154018082558091505060019003906000526020600020016000909190919091505582600001805490508360010160008481526020019081526020016000208190555060019050620002e1565b600090505b92915050565b600080600084815260200190815260200160002060000160008373ffffffffffffffffffffffffffffffffffffffff1673ffffffffffffffffffffffffffffffffffffffff16815260200190815260200160002060009054906101000a900460ff16905092915050565b600033905090565b600080836001016000848152602001908152602001600020541415905092915050565b600080fd5b600073ffffffffffffffffffffffffffffffffffffffff82169050919050565b6000620003ae8262000381565b9050919050565b6000620003c282620003a1565b9050919050565b620003d481620003b5565b8114620003e057600080fd5b50565b600081519050620003f481620003c9565b92915050565b6000602082840312156200041357620004126200037c565b5b60006200042384828501620003e3565b91505092915050565b6132fd806200043c6000396000f3fe608060405234801561001057600080fd5b506004361061012c5760003560e01c80635c975abb116100ad578063a217fddf11610071578063a217fddf14610358578063ca15c87314610376578063d547741f146103a6578063e63ab1e9146103c2578063f2f03877146103e05761012c565b80635c975abb146102a05780635f152a62146102be5780638456cb59146102ee5780639010d07c146102f857806391d14854146103285761012c565b80632f2ff15d116100f45780632f2ff15d146101fe5780632fa4548b1461021a57806336568abe1461024a5780633f4ba83a14610266578063460e2049146102705761012c565b806301ffc9a714610131578063061f4de414610161578063117a5b901461017f5780631aa3a008146101b0578063248a9ca3146101ce575b600080fd5b61014b60048036038101906101469190612509565b610410565b6040516101589190612551565b60405180910390f35b61016961048a565b6040516101769190612585565b60405180910390f35b610199600480360381019061019491906125cc565b610490565b6040516101a792919061263a565b60405180910390f35b6101b86104e1565b6040516101c59190612585565b60405180910390f35b6101e860048036038101906101e39190612699565b6107d4565b6040516101f591906126d5565b60405180910390f35b6102186004803603810190610213919061271c565b6107f3565b005b610234600480360381019061022f91906128a2565b610827565b6040516102419190612551565b60405180910390f35b610264600480360381019061025f919061271c565b61108f565b005b61026e6110c3565b005b61028a600480360381019061028591906125cc565b61113d565b60405161029791906129bc565b60405180910390f35b6102a8611286565b6040516102b59190612551565b60405180910390f35b6102d860048036038101906102d391906125cc565b61129d565b6040516102e59190612ab5565b60405180910390f35b6102f6611529565b005b610312600480360381019061030d9190612ad0565b6115a3565b60405161031f9190612b10565b60405180910390f35b610342600480360381019061033d919061271c565b6115d2565b60405161034f9190612551565b60405180910390f35b61036061163c565b60405161036d91906126d5565b60405180910390f35b610390600480360381019061038b9190612699565b611643565b60405161039d9190612585565b60405180910390f35b6103c060048036038101906103bb919061271c565b611667565b005b6103ca61169b565b6040516103d791906126d5565b60405180910390f35b6103fa60048036038101906103f59190612b2b565b6116bf565b6040516104079190612551565b60405180910390f35b60007f5a05180f000000000000000000000000000000000000000000000000000000007bffffffffffffffffffffffffffffffffffffffffffffffffffffffff1916827bffffffffffffffffffffffffffffffffffffffffffffffffffffffff191614806104835750610482826118ea565b5b9050919050565b60035481565b60056020528060005260406000206000915090508060020160009054906101000a900473ffffffffffffffffffffffffffffffffffffffff16908060020160149054906101000a900460ff16905082565b60006104eb611286565b1561052b576040517f08c379a000000000000000000000000000000000000000000000000000000000815260040161052290612bc8565b60405180910390fd5b60006005600060035481526020019081526020016000209050600281600101805490501015806105a957508060000160003373ffffffffffffffffffffffffffffffffffffffff1673ffffffffffffffffffffffffffffffffffffffff16815260200190815260200160002060010160019054906101000a900460ff165b1561063f5760016003546105bd9190612c17565b6003819055506000600560006003548152602001908152602001600020905060008160020160006101000a81548173ffffffffffffffffffffffffffffffffffffffff021916908373ffffffffffffffffffffffffffffffffffffffff16021790555060008160020160146101000a81548160ff021916908315150217905550505b6000600560006003548152602001908152602001600020905080600101339080600181540180825580915050600190039060005260206000200160009091909190916101000a81548173ffffffffffffffffffffffffffffffffffffffff021916908373ffffffffffffffffffffffffffffffffffffffff16021790555060405180606001604052806000801b8152602001600060038111156106e5576106e46129ed565b5b8152602001600115158152508160000160003373ffffffffffffffffffffffffffffffffffffffff1673ffffffffffffffffffffffffffffffffffffffff1681526020019081526020016000206000820151816000015560208201518160010160006101000a81548160ff02191690836003811115610767576107666129ed565b5b021790555060408201518160010160016101000a81548160ff0219169083151502179055509050507f324cb0062138d65997c86cd3012489ceb351d602f2f55c7408306e8040c79f3f336003546040516107c2929190612c6d565b60405180910390a16003549250505090565b6000806000838152602001908152602001600020600101549050919050565b6107fd8282611964565b61082281600160008581526020019081526020016000206118ba90919063ffffffff16565b505050565b6000610831611286565b15610871576040517f08c379a000000000000000000000000000000000000000000000000000000000815260040161086890612bc8565b60405180910390fd5b826005600082815260200190815260200160002060000160003373ffffffffffffffffffffffffffffffffffffffff1673ffffffffffffffffffffffffffffffffffffffff16815260200190815260200160002060010160019054906101000a900460ff16610915576040517f08c379a000000000000000000000000000000000000000000000000000000000815260040161090c90612ce2565b60405180910390fd5b8360006005600083815260200190815260200160002090506000801b8160000160008360010160008154811061094e5761094d612d02565b5b9060005260206000200160009054906101000a900473ffffffffffffffffffffffffffffffffffffffff1673ffffffffffffffffffffffffffffffffffffffff1673ffffffffffffffffffffffffffffffffffffffff1681526020019081526020016000206000015414158015610a4d57506000801b816000016000836001016001815481106109e1576109e0612d02565b5b9060005260206000200160009054906101000a900473ffffffffffffffffffffffffffffffffffffffff1673ffffffffffffffffffffffffffffffffffffffff1673ffffffffffffffffffffffffffffffffffffffff1681526020019081526020016000206000015414155b610a8c576040517f08c379a0000000000000000000000000000000000000000000000000000000008152600401610a8390612d7d565b60405180910390fd5b60006005600088815260200190815260200160002090508060020160149054906101000a900460ff1615610ac4576000945050611086565b600086604051602001610ad79190612e17565b6040516020818303038152906040528051906020012090506000610afa8861198d565b905060006003811115610b1057610b0f6129ed565b5b816003811115610b2357610b226129ed565b5b1415610b355760009650505050611086565b818360000160003373ffffffffffffffffffffffffffffffffffffffff1673ffffffffffffffffffffffffffffffffffffffff1681526020019081526020016000206000015414610b8c5760009650505050611086565b808360000160003373ffffffffffffffffffffffffffffffffffffffff1673ffffffffffffffffffffffffffffffffffffffff16815260200190815260200160002060010160006101000a81548160ff02191690836003811115610bf357610bf26129ed565b5b02179055507ff7bddf1d0b83b2c5abf9e1570cc4f5e462865216c066867b59ed1d05a140fc25338a604051610c29929190612c6d565b60405180910390a1600083600001600085600101600081548110610c5057610c4f612d02565b5b9060005260206000200160009054906101000a900473ffffffffffffffffffffffffffffffffffffffff1673ffffffffffffffffffffffffffffffffffffffff1673ffffffffffffffffffffffffffffffffffffffff16815260200190815260200160002060010160009054906101000a900460ff169050600084600001600086600101600181548110610ce757610ce6612d02565b5b9060005260206000200160009054906101000a900473ffffffffffffffffffffffffffffffffffffffff1673ffffffffffffffffffffffffffffffffffffffff1673ffffffffffffffffffffffffffffffffffffffff16815260200190815260200160002060010160009054906101000a900460ff16905060006003811115610d7357610d726129ed565b5b826003811115610d8657610d856129ed565b5b14158015610db9575060006003811115610da357610da26129ed565b5b816003811115610db657610db56129ed565b5b14155b1561107c5760018560020160146101000a81548160ff021916908315150217905550806003811115610dee57610ded6129ed565b5b826003811115610e0157610e006129ed565b5b1415610e4c577f4a08cf13c7203fa768acdfaf086e73d97f5f70bc438fd2f9a6c35cb03f3b25c48b604051610e369190612585565b60405180910390a1600198505050505050611086565b610e5682826119f7565b15610ee45784600101600081548110610e7257610e71612d02565b5b9060005260206000200160009054906101000a900473ffffffffffffffffffffffffffffffffffffffff168560020160006101000a81548173ffffffffffffffffffffffffffffffffffffffff021916908373ffffffffffffffffffffffffffffffffffffffff160217905550610f69565b84600101600181548110610efb57610efa612d02565b5b9060005260206000200160009054906101000a900473ffffffffffffffffffffffffffffffffffffffff168560020160006101000a81548173ffffffffffffffffffffffffffffffffffffffff021916908373ffffffffffffffffffffffffffffffffffffffff1602179055505b7fd95406dab69c42cef3161ee146f91b944c3a41020b0c78f1ec532f1dce196c9e8560020160009054906101000a900473ffffffffffffffffffffffffffffffffffffffff168c604051610fbe929190612c6d565b60405180910390a1600460009054906101000a900473ffffffffffffffffffffffffffffffffffffffff1673ffffffffffffffffffffffffffffffffffffffff166340c10f198660020160009054906101000a900473ffffffffffffffffffffffffffffffffffffffff166103e86040518363ffffffff1660e01b8152600401611049929190612e73565b600060405180830381600087803b15801561106357600080fd5b505af1158015611077573d6000803e3d6000fd5b505050505b6001985050505050505b50505092915050565b6110998282611b26565b6110be8160016000858152602001908152602001600020611ba990919063ffffffff16565b505050565b6110f47f65d7a28e3265b37a6474929f336521b332c1681b933f6cb9f3376673440d862a6110ef611bd9565b6115d2565b611133576040517f08c379a000000000000000000000000000000000000000000000000000000000815260040161112a90612ee8565b60405180910390fd5b61113b611be1565b565b6060816005600082815260200190815260200160002060000160003373ffffffffffffffffffffffffffffffffffffffff1673ffffffffffffffffffffffffffffffffffffffff16815260200190815260200160002060010160019054906101000a900460ff166111e3576040517f08c379a00000000000000000000000000000000000000000000000000000000081526004016111da90612ce2565b60405180910390fd5b6005600084815260200190815260200160002060010180548060200260200160405190810160405280929190818152602001828054801561127957602002820191906000526020600020905b8160009054906101000a900473ffffffffffffffffffffffffffffffffffffffff1673ffffffffffffffffffffffffffffffffffffffff168152602001906001019080831161122f575b5050505050915050919050565b6000600260009054906101000a900460ff16905090565b6112a5612465565b816005600082815260200190815260200160002060000160003373ffffffffffffffffffffffffffffffffffffffff1673ffffffffffffffffffffffffffffffffffffffff16815260200190815260200160002060010160019054906101000a900460ff16611349576040517f08c379a000000000000000000000000000000000000000000000000000000000815260040161134090612ce2565b60405180910390fd5b60006005600085815260200190815260200160002090506000600182600101805490501115611473573373ffffffffffffffffffffffffffffffffffffffff16826001016000815481106113a05761139f612d02565b5b9060005260206000200160009054906101000a900473ffffffffffffffffffffffffffffffffffffffff1673ffffffffffffffffffffffffffffffffffffffff161461142d57816001016000815481106113fd576113fc612d02565b5b9060005260206000200160009054906101000a900473ffffffffffffffffffffffffffffffffffffffff16611470565b8160010160018154811061144457611443612d02565b5b9060005260206000200160009054906101000a900473ffffffffffffffffffffffffffffffffffffffff165b90505b8160000160008273ffffffffffffffffffffffffffffffffffffffff1673ffffffffffffffffffffffffffffffffffffffff168152602001908152602001600020604051806060016040529081600082015481526020016001820160009054906101000a900460ff1660038111156114ee576114ed6129ed565b5b6003811115611500576114ff6129ed565b5b81526020016001820160019054906101000a900460ff1615151515815250509350505050919050565b61155a7f65d7a28e3265b37a6474929f336521b332c1681b933f6cb9f3376673440d862a611555611bd9565b6115d2565b611599576040517f08c379a000000000000000000000000000000000000000000000000000000000815260040161159090612ee8565b60405180910390fd5b6115a1611c83565b565b60006115ca8260016000868152602001908152602001600020611d2690919063ffffffff16565b905092915050565b600080600084815260200190815260200160002060000160008373ffffffffffffffffffffffffffffffffffffffff1673ffffffffffffffffffffffffffffffffffffffff16815260200190815260200160002060009054906101000a900460ff16905092915050565b6000801b81565b600061166060016000848152602001908152602001600020611d40565b9050919050565b6116718282611d55565b6116968160016000858152602001908152602001600020611ba990919063ffffffff16565b505050565b7f65d7a28e3265b37a6474929f336521b332c1681b933f6cb9f3376673440d862a81565b60006116c9611286565b15611709576040517f08c379a000000000000000000000000000000000000000000000000000000000815260040161170090612bc8565b60405180910390fd5b826005600082815260200190815260200160002060000160003373ffffffffffffffffffffffffffffffffffffffff1673ffffffffffffffffffffffffffffffffffffffff16815260200190815260200160002060010160019054906101000a900460ff166117ad576040517f08c379a00000000000000000000000000000000000000000000000000000000081526004016117a490612ce2565b60405180910390fd5b60006005600086815260200190815260200160002090506000801b8160000160003373ffffffffffffffffffffffffffffffffffffffff1673ffffffffffffffffffffffffffffffffffffffff16815260200190815260200160002060000154141561189f57838160000160003373ffffffffffffffffffffffffffffffffffffffff1673ffffffffffffffffffffffffffffffffffffffff168152602001908152602001600020600001819055507f6c2cfdaa8e96e4d8f50bf459a3aa7e5b3c55e52e16e24412aca144a7d8953540338660405161188d929190612c6d565b60405180910390a160019250506118a5565b60009250505b5092915050565b6118b68282611d7e565b5050565b60006118e2836000018373ffffffffffffffffffffffffffffffffffffffff1660001b611e5e565b905092915050565b60007f7965db0b000000000000000000000000000000000000000000000000000000007bffffffffffffffffffffffffffffffffffffffffffffffffffffffff1916827bffffffffffffffffffffffffffffffffffffffffffffffffffffffff1916148061195d575061195c82611ece565b5b9050919050565b61196d826107d4565b61197e81611979611bd9565b611f38565b6119888383611d7e565b505050565b6000806030836000815181106119a6576119a5612d02565b5b602001015160f81c60f81b60f81c6119be9190612f15565b60ff16905060038111806119d25750600081105b156119dc57600090505b8060038111156119ef576119ee6129ed565b5b915050919050565b600060016003811115611a0d57611a0c6129ed565b5b836003811115611a2057611a1f6129ed565b5b148015611a505750600380811115611a3b57611a3a6129ed565b5b826003811115611a4e57611a4d6129ed565b5b145b80611aae5750600380811115611a6957611a686129ed565b5b836003811115611a7c57611a7b6129ed565b5b148015611aad575060026003811115611a9857611a976129ed565b5b826003811115611aab57611aaa6129ed565b5b145b5b80611b0d575060026003811115611ac857611ac76129ed565b5b836003811115611adb57611ada6129ed565b5b148015611b0c575060016003811115611af757611af66129ed565b5b826003811115611b0a57611b096129ed565b5b145b5b15611b1b5760019050611b20565b600090505b92915050565b611b2e611bd9565b73ffffffffffffffffffffffffffffffffffffffff168173ffffffffffffffffffffffffffffffffffffffff1614611b9b576040517f08c379a0000000000000000000000000000000000000000000000000000000008152600401611b9290612fbb565b60405180910390fd5b611ba58282611fd5565b5050565b6000611bd1836000018373ffffffffffffffffffffffffffffffffffffffff1660001b6120b6565b905092915050565b600033905090565b611be9611286565b611c28576040517f08c379a0000000000000000000000000000000000000000000000000000000008152600401611c1f90613027565b60405180910390fd5b6000600260006101000a81548160ff0219169083151502179055507f5db9ee0a495bf2e6ff9c91a7834c1ba4fdd244a5e8aa4e537bd38aeae4b073aa611c6c611bd9565b604051611c799190612b10565b60405180910390a1565b611c8b611286565b15611ccb576040517f08c379a0000000000000000000000000000000000000000000000000000000008152600401611cc290612bc8565b60405180910390fd5b6001600260006101000a81548160ff0219169083151502179055507f62e78cea01bee320cd4e420270b5ea74000d11b0c9f74754ebdbfc544b05a258611d0f611bd9565b604051611d1c9190612b10565b60405180910390a1565b6000611d3583600001836121ca565b60001c905092915050565b6000611d4e826000016121f5565b9050919050565b611d5e826107d4565b611d6f81611d6a611bd9565b611f38565b611d798383611fd5565b505050565b611d8882826115d2565b611e5a57600160008084815260200190815260200160002060000160008373ffffffffffffffffffffffffffffffffffffffff1673ffffffffffffffffffffffffffffffffffffffff16815260200190815260200160002060006101000a81548160ff021916908315150217905550611dff611bd9565b73ffffffffffffffffffffffffffffffffffffffff168173ffffffffffffffffffffffffffffffffffffffff16837f2f8788117e7eff1d82e926ec794901d17c78024a50270940304540a733656f0d60405160405180910390a45b5050565b6000611e6a8383612206565b611ec3578260000182908060018154018082558091505060019003906000526020600020016000909190919091505582600001805490508360010160008481526020019081526020016000208190555060019050611ec8565b600090505b92915050565b60007f01ffc9a7000000000000000000000000000000000000000000000000000000007bffffffffffffffffffffffffffffffffffffffffffffffffffffffff1916827bffffffffffffffffffffffffffffffffffffffffffffffffffffffff1916149050919050565b611f4282826115d2565b611fd157611f678173ffffffffffffffffffffffffffffffffffffffff166014612229565b611f758360001c6020612229565b604051602001611f869291906130df565b6040516020818303038152906040526040517f08c379a0000000000000000000000000000000000000000000000000000000008152600401611fc89190613152565b60405180910390fd5b5050565b611fdf82826115d2565b156120b257600080600084815260200190815260200160002060000160008373ffffffffffffffffffffffffffffffffffffffff1673ffffffffffffffffffffffffffffffffffffffff16815260200190815260200160002060006101000a81548160ff021916908315150217905550612057611bd9565b73ffffffffffffffffffffffffffffffffffffffff168173ffffffffffffffffffffffffffffffffffffffff16837ff6391f5c32d9c69d2a47ea670b442974b53935d1edc7fd64eb21e047a839171b60405160405180910390a45b5050565b600080836001016000848152602001908152602001600020549050600081146121be5760006001826120e89190613174565b90506000600186600001805490506121009190613174565b905081811461216f57600086600001828154811061212157612120612d02565b5b906000526020600020015490508087600001848154811061214557612144612d02565b5b90600052602060002001819055508387600101600083815260200190815260200160002081905550505b85600001805480612183576121826131a8565b5b6001900381819060005260206000200160009055905585600101600086815260200190815260200160002060009055600193505050506121c4565b60009150505b92915050565b60008260000182815481106121e2576121e1612d02565b5b9060005260206000200154905092915050565b600081600001805490509050919050565b600080836001016000848152602001908152602001600020541415905092915050565b60606000600283600261223c91906131d7565b6122469190612c17565b67ffffffffffffffff81111561225f5761225e612777565b5b6040519080825280601f01601f1916602001820160405280156122915781602001600182028036833780820191505090505b5090507f3000000000000000000000000000000000000000000000000000000000000000816000815181106122c9576122c8612d02565b5b60200101907effffffffffffffffffffffffffffffffffffffffffffffffffffffffffffff1916908160001a9053507f78000000000000000000000000000000000000000000000000000000000000008160018151811061232d5761232c612d02565b5b60200101907effffffffffffffffffffffffffffffffffffffffffffffffffffffffffffff1916908160001a9053506000600184600261236d91906131d7565b6123779190612c17565b90505b6001811115612417577f3031323334353637383961626364656600000000000000000000000000000000600f8616601081106123b9576123b8612d02565b5b1a60f81b8282815181106123d0576123cf612d02565b5b60200101907effffffffffffffffffffffffffffffffffffffffffffffffffffffffffffff1916908160001a905350600485901c94508061241090613231565b905061237a565b506000841461245b576040517f08c379a0000000000000000000000000000000000000000000000000000000008152600401612452906132a7565b60405180910390fd5b8091505092915050565b6040518060600160405280600080191681526020016000600381111561248e5761248d6129ed565b5b81526020016000151581525090565b6000604051905090565b600080fd5b600080fd5b60007fffffffff0000000000000000000000000000000000000000000000000000000082169050919050565b6124e6816124b1565b81146124f157600080fd5b50565b600081359050612503816124dd565b92915050565b60006020828403121561251f5761251e6124a7565b5b600061252d848285016124f4565b91505092915050565b60008115159050919050565b61254b81612536565b82525050565b60006020820190506125666000830184612542565b92915050565b6000819050919050565b61257f8161256c565b82525050565b600060208201905061259a6000830184612576565b92915050565b6125a98161256c565b81146125b457600080fd5b50565b6000813590506125c6816125a0565b92915050565b6000602082840312156125e2576125e16124a7565b5b60006125f0848285016125b7565b91505092915050565b600073ffffffffffffffffffffffffffffffffffffffff82169050919050565b6000612624826125f9565b9050919050565b61263481612619565b82525050565b600060408201905061264f600083018561262b565b61265c6020830184612542565b9392505050565b6000819050919050565b61267681612663565b811461268157600080fd5b50565b6000813590506126938161266d565b92915050565b6000602082840312156126af576126ae6124a7565b5b60006126bd84828501612684565b91505092915050565b6126cf81612663565b82525050565b60006020820190506126ea60008301846126c6565b92915050565b6126f981612619565b811461270457600080fd5b50565b600081359050612716816126f0565b92915050565b60008060408385031215612733576127326124a7565b5b600061274185828601612684565b925050602061275285828601612707565b9150509250929050565b600080fd5b600080fd5b6000601f19601f8301169050919050565b7f4e487b7100000000000000000000000000000000000000000000000000000000600052604160045260246000fd5b6127af82612766565b810181811067ffffffffffffffff821117156127ce576127cd612777565b5b80604052505050565b60006127e161249d565b90506127ed82826127a6565b919050565b600067ffffffffffffffff82111561280d5761280c612777565b5b61281682612766565b9050602081019050919050565b82818337600083830152505050565b6000612845612840846127f2565b6127d7565b90508281526020810184848401111561286157612860612761565b5b61286c848285612823565b509392505050565b600082601f8301126128895761288861275c565b5b8135612899848260208601612832565b91505092915050565b600080604083850312156128b9576128b86124a7565b5b60006128c7858286016125b7565b925050602083013567ffffffffffffffff8111156128e8576128e76124ac565b5b6128f485828601612874565b9150509250929050565b600081519050919050565b600082825260208201905092915050565b6000819050602082019050919050565b61293381612619565b82525050565b6000612945838361292a565b60208301905092915050565b6000602082019050919050565b6000612969826128fe565b6129738185612909565b935061297e8361291a565b8060005b838110156129af5781516129968882612939565b97506129a183612951565b925050600181019050612982565b5085935050505092915050565b600060208201905081810360008301526129d6818461295e565b905092915050565b6129e781612663565b82525050565b7f4e487b7100000000000000000000000000000000000000000000000000000000600052602160045260246000fd5b60048110612a2d57612a2c6129ed565b5b50565b6000819050612a3e82612a1c565b919050565b6000612a4e82612a30565b9050919050565b612a5e81612a43565b82525050565b612a6d81612536565b82525050565b606082016000820151612a8960008501826129de565b506020820151612a9c6020850182612a55565b506040820151612aaf6040850182612a64565b50505050565b6000606082019050612aca6000830184612a73565b92915050565b60008060408385031215612ae757612ae66124a7565b5b6000612af585828601612684565b9250506020612b06858286016125b7565b9150509250929050565b6000602082019050612b25600083018461262b565b92915050565b60008060408385031215612b4257612b416124a7565b5b6000612b50858286016125b7565b9250506020612b6185828601612684565b9150509250929050565b600082825260208201905092915050565b7f5061757361626c653a2070617573656400000000000000000000000000000000600082015250565b6000612bb2601083612b6b565b9150612bbd82612b7c565b602082019050919050565b60006020820190508181036000830152612be181612ba5565b9050919050565b7f4e487b7100000000000000000000000000000000000000000000000000000000600052601160045260246000fd5b6000612c228261256c565b9150612c2d8361256c565b9250827fffffffffffffffffffffffffffffffffffffffffffffffffffffffffffffffff03821115612c6257612c61612be8565b5b828201905092915050565b6000604082019050612c82600083018561262b565b612c8f6020830184612576565b9392505050565b7f506c61796572206973206e6f7420726567697374657265640000000000000000600082015250565b6000612ccc601883612b6b565b9150612cd782612c96565b602082019050919050565b60006020820190508181036000830152612cfb81612cbf565b9050919050565b7f4e487b7100000000000000000000000000000000000000000000000000000000600052603260045260246000fd5b7f426f746820706c61796572206d75737420636f6d6d6974206d6f766573000000600082015250565b6000612d67601d83612b6b565b9150612d7282612d31565b602082019050919050565b60006020820190508181036000830152612d9681612d5a565b9050919050565b600081519050919050565b600081905092915050565b60005b83811015612dd1578082015181840152602081019050612db6565b83811115612de0576000848401525b50505050565b6000612df182612d9d565b612dfb8185612da8565b9350612e0b818560208601612db3565b80840191505092915050565b6000612e238284612de6565b915081905092915050565b6000819050919050565b6000819050919050565b6000612e5d612e58612e5384612e2e565b612e38565b61256c565b9050919050565b612e6d81612e42565b82525050565b6000604082019050612e88600083018561262b565b612e956020830184612e64565b9392505050565b7f6d75737420686176652070617573657220726f6c650000000000000000000000600082015250565b6000612ed2601583612b6b565b9150612edd82612e9c565b602082019050919050565b60006020820190508181036000830152612f0181612ec5565b9050919050565b600060ff82169050919050565b6000612f2082612f08565b9150612f2b83612f08565b925082821015612f3e57612f3d612be8565b5b828203905092915050565b7f416363657373436f6e74726f6c3a2063616e206f6e6c792072656e6f756e636560008201527f20726f6c657320666f722073656c660000000000000000000000000000000000602082015250565b6000612fa5602f83612b6b565b9150612fb082612f49565b604082019050919050565b60006020820190508181036000830152612fd481612f98565b9050919050565b7f5061757361626c653a206e6f7420706175736564000000000000000000000000600082015250565b6000613011601483612b6b565b915061301c82612fdb565b602082019050919050565b6000602082019050818103600083015261304081613004565b9050919050565b7f416363657373436f6e74726f6c3a206163636f756e7420000000000000000000600082015250565b600061307d601783612da8565b915061308882613047565b601782019050919050565b7f206973206d697373696e6720726f6c6520000000000000000000000000000000600082015250565b60006130c9601183612da8565b91506130d482613093565b601182019050919050565b60006130ea82613070565b91506130f68285612de6565b9150613101826130bc565b915061310d8284612de6565b91508190509392505050565b600061312482612d9d565b61312e8185612b6b565b935061313e818560208601612db3565b61314781612766565b840191505092915050565b6000602082019050818103600083015261316c8184613119565b905092915050565b600061317f8261256c565b915061318a8361256c565b92508282101561319d5761319c612be8565b5b828203905092915050565b7f4e487b7100000000000000000000000000000000000000000000000000000000600052603160045260246000fd5b60006131e28261256c565b91506131ed8361256c565b9250817fffffffffffffffffffffffffffffffffffffffffffffffffffffffffffffffff048311821515161561322657613225612be8565b5b828202905092915050565b600061323c8261256c565b915060008214156132505761324f612be8565b5b600182039050919050565b7f537472696e67733a20686578206c656e67746820696e73756666696369656e74600082015250565b6000613291602083612b6b565b915061329c8261325b565b602082019050919050565b600060208201905081810360008301526132c081613284565b905091905056fea26469706673582212202a29a54b489345b1c9eb8955c8079c14740f5adccff34a849cc8471df67f2bec64736f6c634300080a0033",
  "immutableReferences": {},
  "source": "// SPDX-License-Identifier: MIT\r\npragma solidity ^0.8.0;\r\n\r\nimport \"@openzeppelin/contracts/security/Pausable.sol\";\r\nimport \"@openzeppelin/contracts/access/AccessControlEnumerable.sol\";\r\nimport \"./GameToken.sol\";\r\n\r\ncontract RockPaperScissors is AccessControlEnumerable, Pausable {\r\n  bytes32 public constant PAUSER_ROLE = keccak256(\"PAUSER_ROLE\");\r\n\r\n  /// @notice counter that keeps track of number of the games played\r\n  /// @dev used to determine what next gameId should be, start count from 1\r\n  uint public gameIdCount = 1;\r\n\r\n  /// @dev token instance for minting\r\n  GameToken private gameToken;\r\n  \r\n  /// @dev enum that defines allowed move in game with None as defaults\r\n  enum Moves {None, Rock, Paper, Scissors}\r\n\r\n  /// @dev struct that keeps submitted and revealed player move\r\n  struct PlayerMove {\r\n    bytes32 encrMove;\r\n    Moves move;\r\n    bool registered;\r\n  }\r\n\r\n  /// @dev struct that keep track of one game with players, moves and winner\r\n  struct Game { \r\n    mapping(address => PlayerMove) playerMoves;\r\n    address[] players;\r\n    address winner;\r\n    bool finished;\r\n  }\r\n\r\n  /// @notice mapping of games played\r\n  /// @dev keeps list of games with players and submitted moves\r\n  mapping(uint => Game) public games;\r\n\r\n  /// @notice emited when player registers\r\n  /// @dev emited when player registers\r\n  /// @param player address of registered player\r\n  /// @param gameId identifier of a game that player is registered to\r\n  event PlayerRegistered(address player, uint gameId);\r\n\r\n  /// @notice emited when player commits his move\r\n  /// @dev emited when player commits his move\r\n  /// @param player address of player that commited move\r\n  /// @param gameId identifier of a game\r\n  event MoveCommited(address player, uint gameId);\r\n\r\n  /// @notice emited when player reveals his move\r\n  /// @dev emited when player reveals his move\r\n  /// @param player address of player that revealed move\r\n  /// @param gameId identifier of a game\r\n  event MoveRevealed(address player, uint gameId);\r\n\r\n  /// @notice emited when game is drawn\r\n  /// @dev emited when game is drawn\r\n  /// @param gameId identifier of a game\r\n  event GameDrawn(uint gameId);\r\n\r\n  /// @notice emited when game winner is calculated\r\n  /// @dev emited when game winner is calculated\r\n  /// @param player address of player that won\r\n  /// @param gameId identifier of a game\r\n  event GamerWinner(address player, uint gameId);\r\n\r\n  constructor(GameToken _gameToken) {\r\n    gameToken = _gameToken;\r\n\r\n    _setupRole(DEFAULT_ADMIN_ROLE, msg.sender);\r\n    _setupRole(PAUSER_ROLE, msg.sender);\r\n  }\r\n  \r\n  /// @notice Modifier that require Pauser role when user tries to pause/resume contract execution\r\n  /// @dev Modifier used on pause/unpause functions\r\n  modifier pauser() {\r\n    require(hasRole(PAUSER_ROLE, _msgSender()), \"must have pauser role\");\r\n    _;\r\n  }\r\n\r\n  /// @notice pause contact execution\r\n  /// @dev this function will set pause to true in Pausable\r\n  function pause() public pauser() virtual {\r\n    _pause();\r\n  }\r\n\r\n  /// @notice resume contact execution\r\n  /// @dev this function will set pause to false in Pausable\r\n  function unpause() public pauser() virtual {\r\n    _unpause();\r\n  }\r\n  /// @notice resume contact execution\r\n  /// @dev modifier that checks if sender is registered that specific game instance\r\n  modifier isRegistered(uint _gameId) {\r\n    require (games[_gameId].playerMoves[msg.sender].registered, \"Player is not registered\");\r\n    _;\r\n  }\r\n  \r\n  /// @notice modifier function that checks wheter both users commited their moves\r\n  /// @dev check encrMove is not default for both players \r\n  modifier whenMovesCommited(uint _gameId) {\r\n    Game storage current = games[_gameId];\r\n    require(current.playerMoves[current.players[0]].encrMove != 0x0 && \r\n      current.playerMoves[current.players[1]].encrMove != 0x0, \"Both player must commit moves\");\r\n      _;\r\n  }\r\n\r\n  /// @notice Register user that wants to play the game.\r\n  /// @dev register user / pair user to play with player that is waiting or create new game\r\n  /// @return returns game id \r\n  function register() public whenNotPaused() returns(uint) {\r\n    Game storage activeGame = games[gameIdCount];\r\n    if (\r\n      activeGame.players.length >= 2 || \r\n      activeGame.playerMoves[msg.sender].registered\r\n    ) { \r\n      // start new game\r\n      // current game is full or registered player wants to start new game\r\n      gameIdCount = gameIdCount + 1;\r\n      Game storage  newGame = games[gameIdCount];\r\n      newGame.winner = address(0x0);\r\n      newGame.finished = false;\r\n    }\r\n    \r\n    Game storage currentGame = games[gameIdCount];\r\n  \r\n    currentGame.players.push(msg.sender);\r\n    currentGame.playerMoves[msg.sender] = PlayerMove({\r\n      move: Moves.None,\r\n      registered: true,\r\n      encrMove: 0x0\r\n    });\r\n\r\n    emit PlayerRegistered(msg.sender, gameIdCount);\r\n    return gameIdCount;\r\n  }\r\n\r\n  /// @notice player commits move\r\n  /// @dev Explain to a developer any extra details\r\n  /// @param gameId game identifier\r\n  /// @param encrMove encrypted move, first char in encrypted string should corresponds with Moves enum \r\n  /// @return if commit phase was successful.\r\n  function commit(uint gameId, bytes32 encrMove) public whenNotPaused() isRegistered(gameId) returns (bool) {\r\n    Game storage currentGame = games[gameId];\r\n    if (currentGame.playerMoves[msg.sender].encrMove == 0x0) {\r\n      currentGame.playerMoves[msg.sender].encrMove = encrMove;\r\n      emit MoveCommited(msg.sender, gameId);\r\n      return true;\r\n    }\r\n    return false;\r\n  }\r\n\r\n  /// @notice Reveal player move, if both player commited move than calculate \r\n  /// @dev Explain to a developer any extra details\r\n  /// @param gameId game identifier\r\n  /// @param plainMove plain string that was commited in commit phase.\r\n  /// @return boolean whether action was successful\r\n  function reveal(uint gameId, string memory plainMove) public whenNotPaused() isRegistered(gameId) whenMovesCommited(gameId) returns (bool) {\r\n    Game storage currentGame = games[gameId];\r\n    if (currentGame.finished) {\r\n      // game is over\r\n      return false;\r\n    }\r\n    \r\n    bytes32 encrMove = keccak256(abi.encodePacked(plainMove));\r\n    Moves move = getMove(plainMove);\r\n    if (move == Moves.None) {\r\n      return false;\r\n    }\r\n\r\n    if(currentGame.playerMoves[msg.sender].encrMove != encrMove) {\r\n      return false;\r\n    }\r\n\r\n    currentGame.playerMoves[msg.sender].move = move;\r\n    emit MoveRevealed(msg.sender, gameId);\r\n\r\n    Moves movePlayer1 = currentGame.playerMoves[currentGame.players[0]].move;\r\n    Moves movePlayer2 = currentGame.playerMoves[currentGame.players[1]].move;\r\n\r\n    if (movePlayer1 != Moves.None && movePlayer2 != Moves.None) {\r\n      currentGame.finished = true;\r\n      if (movePlayer1 == movePlayer2) {\r\n        // drawn game;\r\n        emit GameDrawn(gameId);\r\n        return true;\r\n      }\r\n\r\n      // game has winner\r\n      if (isWinner(movePlayer1, movePlayer2)) {\r\n        currentGame.winner = currentGame.players[0];\r\n      } else {\r\n        currentGame.winner = currentGame.players[1];\r\n      }\r\n      \r\n      emit GamerWinner(currentGame.winner, gameId);\r\n\r\n      // send transaction to mint token and mint token\r\n      gameToken.mint(currentGame.winner, 1000);\r\n    }\r\n\r\n    return true;\r\n  }\r\n\r\n  /// @notice return game by game id\r\n  /// @dev returns game struct\r\n  /// @param gameId game id to return\r\n  /// @return Game from games storage variable\r\n  function getOpponentMove(uint gameId) public view isRegistered(gameId) returns (PlayerMove memory) {\r\n    Game storage currentGame = games[gameId];\r\n    address opponentAddress = address(0x0);\r\n    if (currentGame.players.length > 1) {\r\n      opponentAddress = currentGame.players[0] == msg.sender ? currentGame.players[1] : currentGame.players[0];\r\n    }\r\n\r\n    return currentGame.playerMoves[opponentAddress];\r\n  }\r\n\r\n  /// @notice returns players for gameId\r\n  /// @dev fetch player addresses for gameid\r\n  /// @param gameId game id to return\r\n  /// @return array of address\r\n  function getPlayers(uint gameId) public view isRegistered(gameId) returns (address[] memory) {\r\n    return games[gameId].players;\r\n  }\r\n\r\n  /// @notice get move from submitted string\r\n  /// @dev first char should contain uint and is converted into enum Moves\r\n  /// @param value plain string submitted in reveal phase\r\n  /// @return Moves enum\r\n  function getMove(string memory value) private pure returns (Moves) {\r\n    uint moveValue = uint(uint8((bytes(value)[0])) - 48);\r\n    if (moveValue > 3 || moveValue < 0) moveValue = 0;\r\n\r\n    return Moves(moveValue);\r\n  }\r\n\r\n  /// @notice Check if first param move is winning move\r\n  /// @dev it only checks cases when move1 is winning move, other returns false (even if it's drawn)\r\n  /// @param move1 move submitted by one of the player\r\n  /// @param move2 move submitted by other player\r\n  /// @return true if is move1 is winning move\r\n  function isWinner(Moves move1, Moves move2) private pure returns (bool) {\r\n    if ((move1 == Moves.Rock && move2 == Moves.Scissors) || \r\n        (move1 == Moves.Scissors && move2 == Moves.Paper) ||\r\n        (move1 == Moves.Paper && move2 == Moves.Rock)\r\n    ) {\r\n      return true;\r\n    } \r\n\r\n    return false;\r\n  }\r\n}\r\n",
  "sourcePath": "/d/projects/ConsenSys/boot camp/blockchain-boot-camp/contracts/RockPaperScissors.sol",
  "compiler": {
    "name": "solc",
    "version": "0.8.10+commit.fc410830.Emscripten.clang"
  },
  "schemaVersion": "3.4.3",
  "updatedAt": "2021-11-24T21:27:01.373Z",
  "networkType": "ethereum",
  "devdoc": {
    "events": {
      "GameDrawn(uint256)": {
        "details": "emited when game is drawn",
        "params": {
          "gameId": "identifier of a game"
        }
      },
      "GamerWinner(address,uint256)": {
        "details": "emited when game winner is calculated",
        "params": {
          "gameId": "identifier of a game",
          "player": "address of player that won"
        }
      },
      "MoveCommited(address,uint256)": {
        "details": "emited when player commits his move",
        "params": {
          "gameId": "identifier of a game",
          "player": "address of player that commited move"
        }
      },
      "MoveRevealed(address,uint256)": {
        "details": "emited when player reveals his move",
        "params": {
          "gameId": "identifier of a game",
          "player": "address of player that revealed move"
        }
      },
      "PlayerRegistered(address,uint256)": {
        "details": "emited when player registers",
        "params": {
          "gameId": "identifier of a game that player is registered to",
          "player": "address of registered player"
        }
      }
    },
    "kind": "dev",
    "methods": {
      "commit(uint256,bytes32)": {
        "details": "Explain to a developer any extra details",
        "params": {
          "encrMove": "encrypted move, first char in encrypted string should corresponds with Moves enum ",
          "gameId": "game identifier"
        },
        "returns": {
          "_0": "if commit phase was successful."
        }
      },
      "getOpponentMove(uint256)": {
        "details": "returns game struct",
        "params": {
          "gameId": "game id to return"
        },
        "returns": {
          "_0": "Game from games storage variable"
        }
      },
      "getPlayers(uint256)": {
        "details": "fetch player addresses for gameid",
        "params": {
          "gameId": "game id to return"
        },
        "returns": {
          "_0": "array of address"
        }
      },
      "getRoleAdmin(bytes32)": {
        "details": "Returns the admin role that controls `role`. See {grantRole} and {revokeRole}. To change a role's admin, use {_setRoleAdmin}."
      },
      "getRoleMember(bytes32,uint256)": {
        "details": "Returns one of the accounts that have `role`. `index` must be a value between 0 and {getRoleMemberCount}, non-inclusive. Role bearers are not sorted in any particular way, and their ordering may change at any point. WARNING: When using {getRoleMember} and {getRoleMemberCount}, make sure you perform all queries on the same block. See the following https://forum.openzeppelin.com/t/iterating-over-elements-on-enumerableset-in-openzeppelin-contracts/2296[forum post] for more information."
      },
      "getRoleMemberCount(bytes32)": {
        "details": "Returns the number of accounts that have `role`. Can be used together with {getRoleMember} to enumerate all bearers of a role."
      },
      "grantRole(bytes32,address)": {
        "details": "Overload {grantRole} to track enumerable memberships"
      },
      "hasRole(bytes32,address)": {
        "details": "Returns `true` if `account` has been granted `role`."
      },
      "pause()": {
        "details": "this function will set pause to true in Pausable"
      },
      "paused()": {
        "details": "Returns true if the contract is paused, and false otherwise."
      },
      "register()": {
        "details": "register user / pair user to play with player that is waiting or create new game",
        "returns": {
          "_0": "returns game id "
        }
      },
      "renounceRole(bytes32,address)": {
        "details": "Overload {renounceRole} to track enumerable memberships"
      },
      "reveal(uint256,string)": {
        "details": "Explain to a developer any extra details",
        "params": {
          "gameId": "game identifier",
          "plainMove": "plain string that was commited in commit phase."
        },
        "returns": {
          "_0": "boolean whether action was successful"
        }
      },
      "revokeRole(bytes32,address)": {
        "details": "Overload {revokeRole} to track enumerable memberships"
      },
      "supportsInterface(bytes4)": {
        "details": "See {IERC165-supportsInterface}."
      },
      "unpause()": {
        "details": "this function will set pause to false in Pausable"
      }
    },
    "stateVariables": {
      "gameIdCount": {
        "details": "used to determine what next gameId should be, start count from 1"
      },
      "gameToken": {
        "details": "token instance for minting"
      },
      "games": {
        "details": "keeps list of games with players and submitted moves"
      }
    },
    "version": 1
  },
  "userdoc": {
    "events": {
      "GameDrawn(uint256)": {
        "notice": "emited when game is drawn"
      },
      "GamerWinner(address,uint256)": {
        "notice": "emited when game winner is calculated"
      },
      "MoveCommited(address,uint256)": {
        "notice": "emited when player commits his move"
      },
      "MoveRevealed(address,uint256)": {
        "notice": "emited when player reveals his move"
      },
      "PlayerRegistered(address,uint256)": {
        "notice": "emited when player registers"
      }
    },
    "kind": "user",
    "methods": {
      "commit(uint256,bytes32)": {
        "notice": "player commits move"
      },
      "gameIdCount()": {
        "notice": "counter that keeps track of number of the games played"
      },
      "games(uint256)": {
        "notice": "mapping of games played"
      },
      "getOpponentMove(uint256)": {
        "notice": "return game by game id"
      },
      "getPlayers(uint256)": {
        "notice": "returns players for gameId"
      },
      "pause()": {
        "notice": "pause contact execution"
      },
      "register()": {
        "notice": "Register user that wants to play the game."
      },
      "reveal(uint256,string)": {
        "notice": "Reveal player move, if both player commited move than calculate "
      },
      "unpause()": {
        "notice": "resume contact execution"
      }
    },
    "version": 1
  }
}